{
  "contractName": "MyContract",
  "abi": [
    {
      "inputs": [],
      "stateMutability": "nonpayable",
      "type": "constructor"
    },
    {
      "inputs": [],
      "name": "get",
      "outputs": [
        {
          "internalType": "string",
          "name": "",
          "type": "string"
        }
      ],
      "stateMutability": "view",
      "type": "function",
      "constant": true
    },
    {
      "inputs": [
        {
          "internalType": "string",
          "name": "_value",
          "type": "string"
        },
        {
          "internalType": "string",
          "name": "_ownerName",
          "type": "string"
        }
      ],
      "name": "set",
      "outputs": [],
      "stateMutability": "nonpayable",
      "type": "function"
    },
    {
      "inputs": [],
      "name": "getMobileNumber",
      "outputs": [
        {
          "internalType": "int256",
          "name": "",
          "type": "int256"
        }
      ],
      "stateMutability": "view",
      "type": "function",
      "constant": true
    },
    {
      "inputs": [
        {
          "internalType": "int256",
          "name": "_mobileNumber",
          "type": "int256"
        }
      ],
      "name": "setMobileNumber",
      "outputs": [],
      "stateMutability": "nonpayable",
      "type": "function"
    },
    {
      "inputs": [],
      "name": "getOwnerName",
      "outputs": [
        {
          "internalType": "string",
          "name": "",
          "type": "string"
        }
      ],
      "stateMutability": "view",
      "type": "function",
      "constant": true
    },
    {
      "inputs": [],
      "name": "getPropertyAddress",
      "outputs": [
        {
          "internalType": "string",
          "name": "",
          "type": "string"
        }
      ],
      "stateMutability": "view",
      "type": "function",
      "constant": true
    },
    {
      "inputs": [],
      "name": "getWeeklyRent",
      "outputs": [
        {
          "internalType": "int256",
          "name": "",
          "type": "int256"
        }
      ],
      "stateMutability": "view",
      "type": "function",
      "constant": true
    },
    {
      "inputs": [],
      "name": "getDeposit",
      "outputs": [
        {
          "internalType": "int256",
          "name": "",
          "type": "int256"
        }
      ],
      "stateMutability": "view",
      "type": "function",
      "constant": true
    },
    {
      "inputs": [],
      "name": "getStartDate",
      "outputs": [
        {
          "internalType": "int256",
          "name": "",
          "type": "int256"
        }
      ],
      "stateMutability": "view",
      "type": "function",
      "constant": true
    },
    {
      "inputs": [],
      "name": "getEndDate",
      "outputs": [
        {
          "internalType": "int256",
          "name": "",
          "type": "int256"
        }
      ],
      "stateMutability": "view",
      "type": "function",
      "constant": true
    }
  ],
  "bytecode": "0x608060405234801561001057600080fd5b506040518060400160405280600781526020017f6d7956616c7565000000000000000000000000000000000000000000000000008152506000908051906020019061005c9291906100b6565b506040518060400160405280600381526020017f52656e0000000000000000000000000000000000000000000000000000000000815250600290805190602001906100a89291906100b6565b50607b6001819055506101ba565b8280546100c290610188565b90600052602060002090601f0160209004810192826100e4576000855561012b565b82601f106100fd57805160ff191683800117855561012b565b8280016001018555821561012b579182015b8281111561012a57825182559160200191906001019061010f565b5b509050610138919061013c565b5090565b5b8082111561015557600081600090555060010161013d565b5090565b7f4e487b7100000000000000000000000000000000000000000000000000000000600052602260045260246000fd5b600060028204905060018216806101a057607f821691505b602082108114156101b4576101b3610159565b5b50919050565b610832806101c96000396000f3fe608060405234801561001057600080fd5b506004361061009e5760003560e01c8063a386c41011610066578063a386c41014610137578063b135648814610155578063c399ec8814610173578063e942b51614610191578063f2c4769a146101ad5761009e565b80630ff245bc146100a3578063145ef6e9146100bf5780636d4ce63c146100dd57806378f305c6146100fb5780639abea44d14610119575b600080fd5b6100bd60048036038101906100b891906104dc565b6101cb565b005b6100c76101d5565b6040516100d491906105a2565b60405180910390f35b6100e5610267565b6040516100f291906105a2565b60405180910390f35b6101036102f9565b60405161011091906105d3565b60405180910390f35b610121610303565b60405161012e91906105d3565b60405180910390f35b61013f61030d565b60405161014c91906105d3565b60405180910390f35b61015d610317565b60405161016a91906105d3565b60405180910390f35b61017b610321565b60405161018891906105d3565b60405180910390f35b6101ab60048036038101906101a69190610723565b61032b565b005b6101b561035d565b6040516101c291906105a2565b60405180910390f35b8060018190555050565b6060600280546101e4906107ca565b80601f0160208091040260200160405190810160405280929190818152602001828054610210906107ca565b801561025d5780601f106102325761010080835404028352916020019161025d565b820191906000526020600020905b81548152906001019060200180831161024057829003601f168201915b5050505050905090565b606060008054610276906107ca565b80601f01602080910402602001604051908101604052809291908181526020018280546102a2906107ca565b80156102ef5780601f106102c4576101008083540402835291602001916102ef565b820191906000526020600020905b8154815290600101906020018083116102d257829003601f168201915b5050505050905090565b6000600654905090565b6000600454905090565b6000600154905090565b6000600754905090565b6000600554905090565b81600090805190602001906103419291906103ef565b5080600290805190602001906103589291906103ef565b505050565b60606003805461036c906107ca565b80601f0160208091040260200160405190810160405280929190818152602001828054610398906107ca565b80156103e55780601f106103ba576101008083540402835291602001916103e5565b820191906000526020600020905b8154815290600101906020018083116103c857829003601f168201915b5050505050905090565b8280546103fb906107ca565b90600052602060002090601f01602090048101928261041d5760008555610464565b82601f1061043657805160ff1916838001178555610464565b82800160010185558215610464579182015b82811115610463578251825591602001919060010190610448565b5b5090506104719190610475565b5090565b5b8082111561048e576000816000905550600101610476565b5090565b6000604051905090565b600080fd5b600080fd5b6000819050919050565b6104b9816104a6565b81146104c457600080fd5b50565b6000813590506104d6816104b0565b92915050565b6000602082840312156104f2576104f161049c565b5b6000610500848285016104c7565b91505092915050565b600081519050919050565b600082825260208201905092915050565b60005b83811015610543578082015181840152602081019050610528565b83811115610552576000848401525b50505050565b6000601f19601f8301169050919050565b600061057482610509565b61057e8185610514565b935061058e818560208601610525565b61059781610558565b840191505092915050565b600060208201905081810360008301526105bc8184610569565b905092915050565b6105cd816104a6565b82525050565b60006020820190506105e860008301846105c4565b92915050565b600080fd5b600080fd5b7f4e487b7100000000000000000000000000000000000000000000000000000000600052604160045260246000fd5b61063082610558565b810181811067ffffffffffffffff8211171561064f5761064e6105f8565b5b80604052505050565b6000610662610492565b905061066e8282610627565b919050565b600067ffffffffffffffff82111561068e5761068d6105f8565b5b61069782610558565b9050602081019050919050565b82818337600083830152505050565b60006106c66106c184610673565b610658565b9050828152602081018484840111156106e2576106e16105f3565b5b6106ed8482856106a4565b509392505050565b600082601f83011261070a576107096105ee565b5b813561071a8482602086016106b3565b91505092915050565b6000806040838503121561073a5761073961049c565b5b600083013567ffffffffffffffff811115610758576107576104a1565b5b610764858286016106f5565b925050602083013567ffffffffffffffff811115610785576107846104a1565b5b610791858286016106f5565b9150509250929050565b7f4e487b7100000000000000000000000000000000000000000000000000000000600052602260045260246000fd5b600060028204905060018216806107e257607f821691505b602082108114156107f6576107f561079b565b5b5091905056fea264697066735822122036fa651c440970c3b31d71d6334ceaedb3d52a225fb5efe87786aef70d6da3b864736f6c634300080a0033",
  "immutableReferences": {},
  "source": "// SPDX-License-Identifier: MIT\npragma solidity ^0.8.10;\n\n// MyContract\ncontract MyContract {\n\n    // value\n    string value;\n    int mobileNumber;\n    // string ownerName;\n    string ownerName;\n    string peropertyAddress;\n    int weeklyRent;\n    int deposit;\n    int startDate;\n    int endDate;\n    string suppliedServices;\n    bool petsAllowed;\n    \n\n\n    // \n    // public\n    // valuemyValue\n    constructor() {\n        value = \"myValue\";\n        ownerName = \"Ren\";\n        mobileNumber = 123;\n        \n    }\n\n    // public\n    // view\n    function get() public view returns(string memory ) {\n        return value;\n    }\n\n    // public\n    function set(string memory _value, string memory _ownerName) public {\n        value = _value;\n        ownerName = _ownerName;\n    }\n\n\n    function getMobileNumber() public view returns(int) {\n        return mobileNumber;\n    }\n\n    function setMobileNumber(int _mobileNumber) public {\n        mobileNumber = _mobileNumber;\n    }\n\n    function getOwnerName() public view returns (string memory) {\n        return ownerName;\t\n    }\n\n    // function setOwnerName(string memory _ownerName) public {\n    //     ownerName = _ownerName;\n    // }\n\n    function getPropertyAddress() public view returns (string memory) {\n        return peropertyAddress;\t\n    }\n    \n    function getWeeklyRent() public view returns(int) {\n        return weeklyRent;\n    }\n    function getDeposit() public view returns(int) {\n        return deposit;\n    }\n    function getStartDate() public view returns(int) {\n        return startDate;\n    }\n        function getEndDate() public view returns(int) {\n        return endDate;\n    }\n\n    // function setDetails(string memory setOwnerName, int setMobileNumber, string memory setPropertyAddress, int setWeeklyRent, int setDeposit, uint setStartDate, uint setEndDate, string memory setSuppliedServices, bool setPetsAllowed) public payable {\n    //     ownerName = setOwnerName;\n    //     mobileNumber = setMobileNumber;\n    //     peropertyAddress = setPropertyAddress;\n    //     weeklyRent = setWeeklyRent;\n    //     deposit = setDeposit;\n    //     startDate = setStartDate;\n    //     endDate = setEndDate;\n    //     suppliedServices = setSuppliedServices;\n    //     petsAllowed = setPetsAllowed;\n\n    // }\n}",
  "sourcePath": "/Users/yuxuanli/mydapp/contracts/MyContract.sol",
  "compiler": {
    "name": "solc",
    "version": "0.8.10+commit.fc410830.Emscripten.clang"
  },
  "schemaVersion": "3.4.3",
  "updatedAt": "2022-04-04T14:27:00.600Z",
  "networkType": "ethereum",
  "devdoc": {
    "kind": "dev",
    "methods": {},
    "version": 1
  },
  "userdoc": {
    "kind": "user",
    "methods": {},
    "version": 1
  }
}