{
  "contractName": "MyContract",
  "abi": [
    {
      "inputs": [],
      "stateMutability": "nonpayable",
      "type": "constructor"
    },
    {
      "stateMutability": "payable",
      "type": "fallback",
      "payable": true
    },
    {
      "inputs": [],
      "name": "balance",
      "outputs": [
        {
          "internalType": "uint256",
          "name": "",
          "type": "uint256"
        }
      ],
      "stateMutability": "view",
      "type": "function",
      "constant": true
    },
    {
      "stateMutability": "payable",
      "type": "receive",
      "payable": true
    },
    {
      "inputs": [
        {
          "internalType": "string",
          "name": "s",
          "type": "string"
        }
      ],
      "name": "stringToUint",
      "outputs": [
        {
          "internalType": "uint256",
          "name": "result",
          "type": "uint256"
        }
      ],
      "stateMutability": "pure",
      "type": "function",
      "constant": true
    },
    {
      "inputs": [
        {
          "internalType": "string",
          "name": "_ownerName",
          "type": "string"
        },
        {
          "internalType": "string",
          "name": "_mobileNumber",
          "type": "string"
        },
        {
          "internalType": "string",
          "name": "_propertyAddress",
          "type": "string"
        },
        {
          "internalType": "string",
          "name": "_weeklyRent",
          "type": "string"
        },
        {
          "internalType": "string",
          "name": "_deposit",
          "type": "string"
        },
        {
          "internalType": "string",
          "name": "_startDate",
          "type": "string"
        },
        {
          "internalType": "string",
          "name": "_endDate",
          "type": "string"
        },
        {
          "internalType": "string",
          "name": "_suppliedServices",
          "type": "string"
        },
        {
          "internalType": "string",
          "name": "_petsAllowed",
          "type": "string"
        }
      ],
      "name": "set",
      "outputs": [],
      "stateMutability": "nonpayable",
      "type": "function"
    },
    {
      "inputs": [
        {
          "internalType": "string",
          "name": "newName",
          "type": "string"
        },
        {
          "internalType": "string",
          "name": "newNumber",
          "type": "string"
        },
        {
          "internalType": "string",
          "name": "newStart",
          "type": "string"
        },
        {
          "internalType": "string",
          "name": "newEnd",
          "type": "string"
        }
      ],
      "name": "setTenant",
      "outputs": [],
      "stateMutability": "nonpayable",
      "type": "function"
    },
    {
      "inputs": [],
      "name": "getMobileNumber",
      "outputs": [
        {
          "internalType": "string",
          "name": "",
          "type": "string"
        }
      ],
      "stateMutability": "view",
      "type": "function",
      "constant": true
    },
    {
      "inputs": [],
      "name": "getOwnerName",
      "outputs": [
        {
          "internalType": "string",
          "name": "",
          "type": "string"
        }
      ],
      "stateMutability": "view",
      "type": "function",
      "constant": true
    },
    {
      "inputs": [],
      "name": "getPropertyAddress",
      "outputs": [
        {
          "internalType": "string",
          "name": "",
          "type": "string"
        }
      ],
      "stateMutability": "view",
      "type": "function",
      "constant": true
    },
    {
      "inputs": [],
      "name": "getWeeklyRent",
      "outputs": [
        {
          "internalType": "string",
          "name": "",
          "type": "string"
        }
      ],
      "stateMutability": "view",
      "type": "function",
      "constant": true
    },
    {
      "inputs": [],
      "name": "getDeposit",
      "outputs": [
        {
          "internalType": "string",
          "name": "",
          "type": "string"
        }
      ],
      "stateMutability": "view",
      "type": "function",
      "constant": true
    },
    {
      "inputs": [],
      "name": "getStartDate",
      "outputs": [
        {
          "internalType": "string",
          "name": "",
          "type": "string"
        }
      ],
      "stateMutability": "view",
      "type": "function",
      "constant": true
    },
    {
      "inputs": [],
      "name": "getEndDate",
      "outputs": [
        {
          "internalType": "string",
          "name": "",
          "type": "string"
        }
      ],
      "stateMutability": "view",
      "type": "function",
      "constant": true
    },
    {
      "inputs": [],
      "name": "getSuppliedServices",
      "outputs": [
        {
          "internalType": "string",
          "name": "",
          "type": "string"
        }
      ],
      "stateMutability": "view",
      "type": "function",
      "constant": true
    },
    {
      "inputs": [],
      "name": "getPetsAllowed",
      "outputs": [
        {
          "internalType": "string",
          "name": "",
          "type": "string"
        }
      ],
      "stateMutability": "view",
      "type": "function",
      "constant": true
    },
    {
      "inputs": [],
      "name": "getTenantName",
      "outputs": [
        {
          "internalType": "string",
          "name": "",
          "type": "string"
        }
      ],
      "stateMutability": "view",
      "type": "function",
      "constant": true
    },
    {
      "inputs": [],
      "name": "getTenantNumber",
      "outputs": [
        {
          "internalType": "string",
          "name": "",
          "type": "string"
        }
      ],
      "stateMutability": "view",
      "type": "function",
      "constant": true
    },
    {
      "inputs": [],
      "name": "getTenantStartDate",
      "outputs": [
        {
          "internalType": "string",
          "name": "",
          "type": "string"
        }
      ],
      "stateMutability": "view",
      "type": "function",
      "constant": true
    },
    {
      "inputs": [],
      "name": "getTenantEndDate",
      "outputs": [
        {
          "internalType": "string",
          "name": "",
          "type": "string"
        }
      ],
      "stateMutability": "view",
      "type": "function",
      "constant": true
    },
    {
      "inputs": [
        {
          "internalType": "address payable",
          "name": "_receiver",
          "type": "address"
        },
        {
          "internalType": "uint256",
          "name": "amount",
          "type": "uint256"
        }
      ],
      "name": "sendDeposit",
      "outputs": [],
      "stateMutability": "payable",
      "type": "function",
      "payable": true
    },
    {
      "inputs": [
        {
          "internalType": "address payable",
          "name": "_landlordAddress",
          "type": "address"
        }
      ],
      "name": "getLandlordBalance",
      "outputs": [
        {
          "internalType": "uint256",
          "name": "",
          "type": "uint256"
        }
      ],
      "stateMutability": "view",
      "type": "function",
      "constant": true
    },
    {
      "inputs": [
        {
          "internalType": "address payable",
          "name": "_tenantAddress",
          "type": "address"
        }
      ],
      "name": "getTenantBalance",
      "outputs": [
        {
          "internalType": "uint256",
          "name": "",
          "type": "uint256"
        }
      ],
      "stateMutability": "view",
      "type": "function",
      "constant": true
    },
    {
      "inputs": [
        {
          "internalType": "address payable",
          "name": "_landlord",
          "type": "address"
        },
        {
          "internalType": "string",
          "name": "amount",
          "type": "string"
        }
      ],
      "name": "requestDeposit",
      "outputs": [],
      "stateMutability": "payable",
      "type": "function",
      "payable": true
    },
    {
      "inputs": [
        {
          "internalType": "address payable",
          "name": "_landlord",
          "type": "address"
        }
      ],
      "name": "receiveRent",
      "outputs": [],
      "stateMutability": "payable",
      "type": "function",
      "payable": true
    },
    {
      "inputs": [],
      "name": "getBalance",
      "outputs": [
        {
          "internalType": "uint256",
          "name": "",
          "type": "uint256"
        }
      ],
      "stateMutability": "view",
      "type": "function",
      "constant": true
    },
    {
      "inputs": [],
      "name": "rr",
      "outputs": [
        {
          "internalType": "uint256",
          "name": "",
          "type": "uint256"
        }
      ],
      "stateMutability": "view",
      "type": "function",
      "constant": true
    }
  ],
  "bytecode": "0x60806040527331248ef67b5a5afd0623b54dbfa467901818fc2c600d60006101000a81548173ffffffffffffffffffffffffffffffffffffffff021916908373ffffffffffffffffffffffffffffffffffffffff16021790555073df5d173d48ce72d3af0ab5c614bf7e25b36af6a6600e60006101000a81548173ffffffffffffffffffffffffffffffffffffffff021916908373ffffffffffffffffffffffffffffffffffffffff160217905550600d60009054906101000a900473ffffffffffffffffffffffffffffffffffffffff16600f60006101000a81548173ffffffffffffffffffffffffffffffffffffffff021916908373ffffffffffffffffffffffffffffffffffffffff160217905550600e60009054906101000a900473ffffffffffffffffffffffffffffffffffffffff16601060006101000a81548173ffffffffffffffffffffffffffffffffffffffff021916908373ffffffffffffffffffffffffffffffffffffffff1602179055503480156200018157600080fd5b506040518060400160405280600381526020017f52656e000000000000000000000000000000000000000000000000000000000081525060019080519060200190620001cf92919062000224565b506040518060400160405280600181526020017f3100000000000000000000000000000000000000000000000000000000000000815250600490805190602001906200021d92919062000224565b5062000339565b828054620002329062000303565b90600052602060002090601f016020900481019282620002565760008555620002a2565b82601f106200027157805160ff1916838001178555620002a2565b82800160010185558215620002a2579182015b82811115620002a157825182559160200191906001019062000284565b5b509050620002b19190620002b5565b5090565b5b80821115620002d0576000816000905550600101620002b6565b5090565b7f4e487b7100000000000000000000000000000000000000000000000000000000600052602260045260246000fd5b600060028204905060018216806200031c57607f821691505b60208210811415620003335762000332620002d4565b5b50919050565b6119c580620003496000396000f3fe60806040526004361061014f5760003560e01c806395e59332116100b6578063c399ec881161006f578063c399ec8814610490578063df77baf6146104bb578063e35fd0c7146104e6578063ee2a4f3114610502578063f2c4769a1461051e578063fd36f3381461054957610156565b806395e59332146103905780639abea44d146103b9578063a386c410146103e4578063a3be3d821461040f578063b13564881461043a578063b69ef8a81461046557610156565b80632bab9189116101085780632bab91891461026c5780632cd847d2146102975780634b7eb085146102c257806366369c63146102ff57806378f305c61461033c578063823cd0981461036757610156565b806307a231571461015857806312065fe01461018357806312539cc3146101ae578063145ef6e9146101d95780631bd95155146102045780631c22bc521461024157610156565b3661015657005b005b34801561016457600080fd5b5061016d610565565b60405161017a91906111cb565b60405180910390f35b34801561018f57600080fd5b506101986105f7565b6040516101a59190611206565b60405180910390f35b3480156101ba57600080fd5b506101c36105ff565b6040516101d09190611206565b60405180910390f35b3480156101e557600080fd5b506101ee61064c565b6040516101fb91906111cb565b60405180910390f35b34801561021057600080fd5b5061022b6004803603810190610226919061136a565b6106de565b6040516102389190611206565b60405180910390f35b34801561024d57600080fd5b50610256610778565b60405161026391906111cb565b60405180910390f35b34801561027857600080fd5b5061028161080a565b60405161028e91906111cb565b60405180910390f35b3480156102a357600080fd5b506102ac61089c565b6040516102b991906111cb565b60405180910390f35b3480156102ce57600080fd5b506102e960048036038101906102e49190611411565b61092e565b6040516102f69190611206565b60405180910390f35b34801561030b57600080fd5b5061032660048036038101906103219190611411565b61094f565b6040516103339190611206565b60405180910390f35b34801561034857600080fd5b50610351610970565b60405161035e91906111cb565b60405180910390f35b34801561037357600080fd5b5061038e6004803603810190610389919061143e565b610a02565b005b34801561039c57600080fd5b506103b760048036038101906103b29190611515565b610a64565b005b3480156103c557600080fd5b506103ce610b3e565b6040516103db91906111cb565b60405180910390f35b3480156103f057600080fd5b506103f9610bd0565b60405161040691906111cb565b60405180910390f35b34801561041b57600080fd5b50610424610c62565b60405161043191906111cb565b60405180910390f35b34801561044657600080fd5b5061044f610cf4565b60405161045c91906111cb565b60405180910390f35b34801561047157600080fd5b5061047a610d86565b6040516104879190611206565b60405180910390f35b34801561049c57600080fd5b506104a5610d8c565b6040516104b291906111cb565b60405180910390f35b3480156104c757600080fd5b506104d0610e1e565b6040516104dd91906111cb565b60405180910390f35b61050060048036038101906104fb9190611707565b610eb0565b005b61051c60048036038101906105179190611747565b610efb565b005b34801561052a57600080fd5b50610533610f6d565b60405161054091906111cb565b60405180910390f35b610563600480360381019061055e9190611411565b610fff565b005b606060078054610574906117d2565b80601f01602080910402602001604051908101604052809291908181526020018280546105a0906117d2565b80156105ed5780601f106105c2576101008083540402835291602001916105ed565b820191906000526020600020905b8154815290600101906020018083116105d057829003601f168201915b5050505050905090565b600047905090565b60008061060a6105f7565b90506000610616610d8c565b90506000670de0b6b3a764000061062c836106de565b6106369190611833565b83610641919061188d565b905080935050505090565b60606001805461065b906117d2565b80601f0160208091040260200160405190810160405280929190818152602001828054610687906117d2565b80156106d45780601f106106a9576101008083540402835291602001916106d4565b820191906000526020600020905b8154815290600101906020018083116106b757829003601f168201915b5050505050905090565b6000808290506000809250600090505b815181101561077157600082828151811061070c5761070b6118c1565b5b602001015160f81c60f81b60f81c60ff16905060308110158015610731575060398111155b1561075d57603081610743919061188d565b600a856107509190611833565b61075a91906118f0565b93505b50808061076990611946565b9150506106ee565b5050919050565b6060600c8054610787906117d2565b80601f01602080910402602001604051908101604052809291908181526020018280546107b3906117d2565b80156108005780601f106107d557610100808354040283529160200191610800565b820191906000526020600020905b8154815290600101906020018083116107e357829003601f168201915b5050505050905090565b6060600a8054610819906117d2565b80601f0160208091040260200160405190810160405280929190818152602001828054610845906117d2565b80156108925780601f1061086757610100808354040283529160200191610892565b820191906000526020600020905b81548152906001019060200180831161087557829003601f168201915b5050505050905090565b6060600880546108ab906117d2565b80601f01602080910402602001604051908101604052809291908181526020018280546108d7906117d2565b80156109245780601f106108f957610100808354040283529160200191610924565b820191906000526020600020905b81548152906001019060200180831161090757829003601f168201915b5050505050905090565b60008173ffffffffffffffffffffffffffffffffffffffff16319050919050565b60008173ffffffffffffffffffffffffffffffffffffffff16319050919050565b60606005805461097f906117d2565b80601f01602080910402602001604051908101604052809291908181526020018280546109ab906117d2565b80156109f85780601f106109cd576101008083540402835291602001916109f8565b820191906000526020600020905b8154815290600101906020018083116109db57829003601f168201915b5050505050905090565b8360099080519060200190610a1892919061108f565b5082600a9080519060200190610a2f92919061108f565b5081600b9080519060200190610a4692919061108f565b5080600c9080519060200190610a5d92919061108f565b5050505050565b8860019080519060200190610a7a92919061108f565b508760009080519060200190610a9192919061108f565b508660029080519060200190610aa892919061108f565b508560039080519060200190610abf92919061108f565b508460049080519060200190610ad692919061108f565b508360059080519060200190610aed92919061108f565b508260069080519060200190610b0492919061108f565b508160079080519060200190610b1b92919061108f565b508060089080519060200190610b3292919061108f565b50505050505050505050565b606060038054610b4d906117d2565b80601f0160208091040260200160405190810160405280929190818152602001828054610b79906117d2565b8015610bc65780601f10610b9b57610100808354040283529160200191610bc6565b820191906000526020600020905b815481529060010190602001808311610ba957829003601f168201915b5050505050905090565b606060008054610bdf906117d2565b80601f0160208091040260200160405190810160405280929190818152602001828054610c0b906117d2565b8015610c585780601f10610c2d57610100808354040283529160200191610c58565b820191906000526020600020905b815481529060010190602001808311610c3b57829003601f168201915b5050505050905090565b606060098054610c71906117d2565b80601f0160208091040260200160405190810160405280929190818152602001828054610c9d906117d2565b8015610cea5780601f10610cbf57610100808354040283529160200191610cea565b820191906000526020600020905b815481529060010190602001808311610ccd57829003601f168201915b5050505050905090565b606060068054610d03906117d2565b80601f0160208091040260200160405190810160405280929190818152602001828054610d2f906117d2565b8015610d7c5780601f10610d5157610100808354040283529160200191610d7c565b820191906000526020600020905b815481529060010190602001808311610d5f57829003601f168201915b5050505050905090565b60115481565b606060048054610d9b906117d2565b80601f0160208091040260200160405190810160405280929190818152602001828054610dc7906117d2565b8015610e145780601f10610de957610100808354040283529160200191610e14565b820191906000526020600020905b815481529060010190602001808311610df757829003601f168201915b5050505050905090565b6060600b8054610e2d906117d2565b80601f0160208091040260200160405190810160405280929190818152602001828054610e59906117d2565b8015610ea65780601f10610e7b57610100808354040283529160200191610ea6565b820191906000526020600020905b815481529060010190602001808311610e8957829003601f168201915b5050505050905090565b8173ffffffffffffffffffffffffffffffffffffffff166108fc829081150290604051600060405180830381858888f19350505050158015610ef6573d6000803e3d6000fd5b505050565b6000610f06826106de565b90506000670de0b6b3a764000082610f1e9190611833565b90508373ffffffffffffffffffffffffffffffffffffffff166108fc829081150290604051600060405180830381858888f19350505050158015610f66573d6000803e3d6000fd5b5050505050565b606060028054610f7c906117d2565b80601f0160208091040260200160405190810160405280929190818152602001828054610fa8906117d2565b8015610ff55780601f10610fca57610100808354040283529160200191610ff5565b820191906000526020600020905b815481529060010190602001808311610fd857829003601f168201915b5050505050905090565b60006110096105f7565b90506000611015610d8c565b90506000670de0b6b3a764000061102b836106de565b6110359190611833565b83611040919061188d565b90508373ffffffffffffffffffffffffffffffffffffffff166108fc829081150290604051600060405180830381858888f19350505050158015611088573d6000803e3d6000fd5b5050505050565b82805461109b906117d2565b90600052602060002090601f0160209004810192826110bd5760008555611104565b82601f106110d657805160ff1916838001178555611104565b82800160010185558215611104579182015b828111156111035782518255916020019190600101906110e8565b5b5090506111119190611115565b5090565b5b8082111561112e576000816000905550600101611116565b5090565b600081519050919050565b600082825260208201905092915050565b60005b8381101561116c578082015181840152602081019050611151565b8381111561117b576000848401525b50505050565b6000601f19601f8301169050919050565b600061119d82611132565b6111a7818561113d565b93506111b781856020860161114e565b6111c081611181565b840191505092915050565b600060208201905081810360008301526111e58184611192565b905092915050565b6000819050919050565b611200816111ed565b82525050565b600060208201905061121b60008301846111f7565b92915050565b6000604051905090565b600080fd5b600080fd5b600080fd5b600080fd5b7f4e487b7100000000000000000000000000000000000000000000000000000000600052604160045260246000fd5b61127782611181565b810181811067ffffffffffffffff821117156112965761129561123f565b5b80604052505050565b60006112a9611221565b90506112b5828261126e565b919050565b600067ffffffffffffffff8211156112d5576112d461123f565b5b6112de82611181565b9050602081019050919050565b82818337600083830152505050565b600061130d611308846112ba565b61129f565b9050828152602081018484840111156113295761132861123a565b5b6113348482856112eb565b509392505050565b600082601f83011261135157611350611235565b5b81356113618482602086016112fa565b91505092915050565b6000602082840312156113805761137f61122b565b5b600082013567ffffffffffffffff81111561139e5761139d611230565b5b6113aa8482850161133c565b91505092915050565b600073ffffffffffffffffffffffffffffffffffffffff82169050919050565b60006113de826113b3565b9050919050565b6113ee816113d3565b81146113f957600080fd5b50565b60008135905061140b816113e5565b92915050565b6000602082840312156114275761142661122b565b5b6000611435848285016113fc565b91505092915050565b600080600080608085870312156114585761145761122b565b5b600085013567ffffffffffffffff81111561147657611475611230565b5b6114828782880161133c565b945050602085013567ffffffffffffffff8111156114a3576114a2611230565b5b6114af8782880161133c565b935050604085013567ffffffffffffffff8111156114d0576114cf611230565b5b6114dc8782880161133c565b925050606085013567ffffffffffffffff8111156114fd576114fc611230565b5b6115098782880161133c565b91505092959194509250565b60008060008060008060008060006101208a8c0312156115385761153761122b565b5b60008a013567ffffffffffffffff81111561155657611555611230565b5b6115628c828d0161133c565b99505060208a013567ffffffffffffffff81111561158357611582611230565b5b61158f8c828d0161133c565b98505060408a013567ffffffffffffffff8111156115b0576115af611230565b5b6115bc8c828d0161133c565b97505060608a013567ffffffffffffffff8111156115dd576115dc611230565b5b6115e98c828d0161133c565b96505060808a013567ffffffffffffffff81111561160a57611609611230565b5b6116168c828d0161133c565b95505060a08a013567ffffffffffffffff81111561163757611636611230565b5b6116438c828d0161133c565b94505060c08a013567ffffffffffffffff81111561166457611663611230565b5b6116708c828d0161133c565b93505060e08a013567ffffffffffffffff81111561169157611690611230565b5b61169d8c828d0161133c565b9250506101008a013567ffffffffffffffff8111156116bf576116be611230565b5b6116cb8c828d0161133c565b9150509295985092959850929598565b6116e4816111ed565b81146116ef57600080fd5b50565b600081359050611701816116db565b92915050565b6000806040838503121561171e5761171d61122b565b5b600061172c858286016113fc565b925050602061173d858286016116f2565b9150509250929050565b6000806040838503121561175e5761175d61122b565b5b600061176c858286016113fc565b925050602083013567ffffffffffffffff81111561178d5761178c611230565b5b6117998582860161133c565b9150509250929050565b7f4e487b7100000000000000000000000000000000000000000000000000000000600052602260045260246000fd5b600060028204905060018216806117ea57607f821691505b602082108114156117fe576117fd6117a3565b5b50919050565b7f4e487b7100000000000000000000000000000000000000000000000000000000600052601160045260246000fd5b600061183e826111ed565b9150611849836111ed565b9250817fffffffffffffffffffffffffffffffffffffffffffffffffffffffffffffffff048311821515161561188257611881611804565b5b828202905092915050565b6000611898826111ed565b91506118a3836111ed565b9250828210156118b6576118b5611804565b5b828203905092915050565b7f4e487b7100000000000000000000000000000000000000000000000000000000600052603260045260246000fd5b60006118fb826111ed565b9150611906836111ed565b9250827fffffffffffffffffffffffffffffffffffffffffffffffffffffffffffffffff0382111561193b5761193a611804565b5b828201905092915050565b6000611951826111ed565b91507fffffffffffffffffffffffffffffffffffffffffffffffffffffffffffffffff82141561198457611983611804565b5b60018201905091905056fea26469706673582212200a5ee7de9bfe2c0e345810fec6c5a36ceb74373a9f0a9022f59f54c319d3483164736f6c634300080a0033",
  "immutableReferences": {},
  "source": "// SPDX-License-Identifier: MIT\npragma solidity ^0.8.10;\n\n\ncontract MyContract {\n\n    string mobileNumber;\n    // string ownerName;\n    string ownerName;\n    string propertyAddress;\n    string weeklyRent;\n    string deposit;\n    string startDate;\n    string endDate;\n    string suppliedServices;\n    string petsAllowed;\n\n    string tenantName;\n    string tenantNumber;\n    string tenantStartDate;\n    string tenantEndDate;\n\n    // string landlordAddress;\n    // string tenantAddress;\n    address landlordAddress = 0x31248Ef67b5a5AFd0623B54dBfA467901818Fc2c;  // ********************** edit this\n    address tenantAddress = 0xdF5d173d48cE72d3AF0AB5c614BF7e25B36Af6a6; // ************************ edit this \n    address payable landlordAddressPayable = payable(landlordAddress);\n    address payable tenantAddressPayable = payable(tenantAddress);\n\n\n    constructor() {\n        // value = \"myValue\";\n        ownerName = \"Ren\";\n        deposit = \"1\";\n        \n    }\n    fallback() external payable {}\n    receive() external payable {\n        // custom function code\n    }\n\n    function stringToUint(string memory s) public pure returns (uint result) {\n        bytes memory b = bytes(s);\n        uint i;\n        result = 0;\n        for (i = 0; i < b.length; i++) {\n            uint c = uint(uint8(b[i]));\n            // uint c = uint(b[i]);\n            if (c >= 48 && c <= 57) {\n                result = result * 10 + (c - 48);\n            }\n        }\n    }\n\n    function set(string memory _ownerName, string memory _mobileNumber, string memory _propertyAddress, string memory _weeklyRent, string memory _deposit, string memory _startDate,\n                string memory _endDate, string memory _suppliedServices, string memory _petsAllowed) public {\n        ownerName = _ownerName;\n        mobileNumber = _mobileNumber;\n        propertyAddress = _propertyAddress;\n        weeklyRent = _weeklyRent;\n        deposit = _deposit;\n        startDate = _startDate;\n        endDate = _endDate;\n        suppliedServices = _suppliedServices;\n        petsAllowed = _petsAllowed;\n    }\n\n    function setTenant(string memory newName, string memory newNumber, string memory newStart, string memory newEnd) public {\n        tenantName = newName;\n        tenantNumber = newNumber;\n        tenantStartDate = newStart;\n        tenantEndDate = newEnd;\n        //call send deposit here \n        // string memory depositSet = getDeposit();\n        // uint depositUint = stringToUint(depositSet);\n        // sendDeposit(landlordAddressPayable, depositUint);\n    }\n\n\n    function getMobileNumber() public view returns(string memory) {\n        return mobileNumber;\n    }\n\n\n    function getOwnerName() public view returns (string memory) {\n        return ownerName;\t\n    }\n\n\n    function getPropertyAddress() public view returns (string memory) {\n        return propertyAddress;\t\n    }\n    \n    function getWeeklyRent() public view returns(string memory) {\n        return weeklyRent;\n    }\n    function getDeposit() public view returns(string memory) {\n        return deposit;\n    }\n    function getStartDate() public view returns(string memory) {\n        return startDate;\n    }\n        function getEndDate() public view returns(string memory) {\n        return endDate;\n    }\n\n    function getSuppliedServices() public view returns (string memory) {\n        return suppliedServices;\n    }\n\n    function getPetsAllowed() public view returns (string memory) {\n        return petsAllowed;\n    }\n\n    function getTenantName() public view returns (string memory) {\n        return tenantName;\n    }\n\n    function getTenantNumber() public view returns (string memory) {\n        return tenantNumber;\n    }\n\n    function getTenantStartDate() public view returns (string memory) {\n        return tenantStartDate;\n    }\n\n        function getTenantEndDate() public view returns (string memory) {\n        return tenantEndDate;\n    }\n\n        uint256 public balance;\n\n\n\n// Tenant functions\n\n    // function () public payable {}\n\n    function sendDeposit(address payable _receiver, uint amount) payable public {\n         _receiver.transfer(amount);\n    }\n\n    function getLandlordBalance(address payable _landlordAddress) public view returns (uint) {\n        return _landlordAddress.balance;\n    }\n\n    function getTenantBalance(address payable _tenantAddress) public view returns (uint) {\n        return _tenantAddress.balance;\n    }\n\n    // landlord functions\n\n    function requestDeposit(address payable _landlord, string memory amount) payable public {\n                //call send deposit here \n        // string memory depositSet = getDeposit();\n        uint depositUintinWei = stringToUint(amount);\n        uint depositUint = depositUintinWei*1000000000000000000;\n        _landlord.transfer(depositUint);\n    }\n\n    function receiveRent(address payable _landlord) payable public {\n        uint balanceInContract = getBalance();\n        string memory depositInContract = getDeposit();\n\n        uint rentToCollect = balanceInContract - stringToUint(depositInContract)*1000000000000000000;\n        // uint rentUint = rentToCollect*1000000000000000000;\n        _landlord.transfer(rentToCollect);\n    }\n\n    \n\n\n\n// testing \n\n    function getBalance() public view returns(uint){\n        return address(this).balance;\n    }\n\n    function rr() public view returns(uint) {\n        uint balanceInContract = getBalance();\n        string memory depositInContract = getDeposit();\n        uint rentToCollect = balanceInContract - stringToUint(depositInContract)*1000000000000000000;\n        return rentToCollect;\n    }\n\n\n\n\n\n\n//   fallback() external payable {\n//     emit seeSender(msg.sender, msg.value);\n//     emit showNum(num);\n//     num += 1;\n//   }\n\n\n\n\n\n\n\n}",
  "sourcePath": "/Users/yuxuanli/mydapp/contracts/MyContract.sol",
  "compiler": {
    "name": "solc",
    "version": "0.8.10+commit.fc410830.Emscripten.clang"
  },
  "schemaVersion": "3.4.3",
  "updatedAt": "2022-05-02T06:42:00.149Z",
  "networkType": "ethereum",
  "devdoc": {
    "kind": "dev",
    "methods": {},
    "version": 1
  },
  "userdoc": {
    "kind": "user",
    "methods": {},
    "version": 1
  }
}