{
  "contractName": "MyContract",
  "abi": [
    {
      "inputs": [],
      "stateMutability": "nonpayable",
      "type": "constructor"
    },
    {
      "inputs": [
        {
          "internalType": "string",
          "name": "_ownerName",
          "type": "string"
        },
        {
          "internalType": "string",
          "name": "_mobileNumber",
          "type": "string"
        },
        {
          "internalType": "string",
          "name": "_propertyAddress",
          "type": "string"
        },
        {
          "internalType": "string",
          "name": "_weeklyRent",
          "type": "string"
        },
        {
          "internalType": "string",
          "name": "_deposit",
          "type": "string"
        },
        {
          "internalType": "string",
          "name": "_startDate",
          "type": "string"
        },
        {
          "internalType": "string",
          "name": "_endDate",
          "type": "string"
        },
        {
          "internalType": "string",
          "name": "_suppliedServices",
          "type": "string"
        },
        {
          "internalType": "string",
          "name": "_petsAllowed",
          "type": "string"
        }
      ],
      "name": "set",
      "outputs": [],
      "stateMutability": "nonpayable",
      "type": "function"
    },
    {
      "inputs": [],
      "name": "getMobileNumber",
      "outputs": [
        {
          "internalType": "string",
          "name": "",
          "type": "string"
        }
      ],
      "stateMutability": "view",
      "type": "function",
      "constant": true
    },
    {
      "inputs": [],
      "name": "getOwnerName",
      "outputs": [
        {
          "internalType": "string",
          "name": "",
          "type": "string"
        }
      ],
      "stateMutability": "view",
      "type": "function",
      "constant": true
    },
    {
      "inputs": [],
      "name": "getPropertyAddress",
      "outputs": [
        {
          "internalType": "string",
          "name": "",
          "type": "string"
        }
      ],
      "stateMutability": "view",
      "type": "function",
      "constant": true
    },
    {
      "inputs": [],
      "name": "getWeeklyRent",
      "outputs": [
        {
          "internalType": "string",
          "name": "",
          "type": "string"
        }
      ],
      "stateMutability": "view",
      "type": "function",
      "constant": true
    },
    {
      "inputs": [],
      "name": "getDeposit",
      "outputs": [
        {
          "internalType": "string",
          "name": "",
          "type": "string"
        }
      ],
      "stateMutability": "view",
      "type": "function",
      "constant": true
    },
    {
      "inputs": [],
      "name": "getStartDate",
      "outputs": [
        {
          "internalType": "string",
          "name": "",
          "type": "string"
        }
      ],
      "stateMutability": "view",
      "type": "function",
      "constant": true
    },
    {
      "inputs": [],
      "name": "getEndDate",
      "outputs": [
        {
          "internalType": "string",
          "name": "",
          "type": "string"
        }
      ],
      "stateMutability": "view",
      "type": "function",
      "constant": true
    },
    {
      "inputs": [],
      "name": "getSuppliedServices",
      "outputs": [
        {
          "internalType": "string",
          "name": "",
          "type": "string"
        }
      ],
      "stateMutability": "view",
      "type": "function",
      "constant": true
    },
    {
      "inputs": [],
      "name": "getPetsAllowed",
      "outputs": [
        {
          "internalType": "string",
          "name": "",
          "type": "string"
        }
      ],
      "stateMutability": "view",
      "type": "function",
      "constant": true
    }
  ],
  "bytecode": "0x60806040523480156200001157600080fd5b506040518060400160405280600381526020017f52656e0000000000000000000000000000000000000000000000000000000000815250600190805190602001906200005f92919062000066565b506200017b565b828054620000749062000145565b90600052602060002090601f016020900481019282620000985760008555620000e4565b82601f10620000b357805160ff1916838001178555620000e4565b82800160010185558215620000e4579182015b82811115620000e3578251825591602001919060010190620000c6565b5b509050620000f39190620000f7565b5090565b5b8082111562000112576000816000905550600101620000f8565b5090565b7f4e487b7100000000000000000000000000000000000000000000000000000000600052602260045260246000fd5b600060028204905060018216806200015e57607f821691505b6020821081141562000175576200017462000116565b5b50919050565b610ccd806200018b6000396000f3fe608060405234801561001057600080fd5b506004361061009e5760003560e01c80639abea44d116100665780639abea44d14610137578063a386c41014610155578063b135648814610173578063c399ec8814610191578063f2c4769a146101af5761009e565b806307a23157146100a3578063145ef6e9146100c15780632cd847d2146100df57806378f305c6146100fd57806395e593321461011b575b600080fd5b6100ab6101cd565b6040516100b89190610905565b60405180910390f35b6100c961025f565b6040516100d69190610905565b60405180910390f35b6100e76102f1565b6040516100f49190610905565b60405180910390f35b610105610383565b6040516101129190610905565b60405180910390f35b61013560048036038101906101309190610a70565b610415565b005b61013f6104ef565b60405161014c9190610905565b60405180910390f35b61015d610581565b60405161016a9190610905565b60405180910390f35b61017b610613565b6040516101889190610905565b60405180910390f35b6101996106a5565b6040516101a69190610905565b60405180910390f35b6101b7610737565b6040516101c49190610905565b60405180910390f35b6060600780546101dc90610c65565b80601f016020809104026020016040519081016040528092919081815260200182805461020890610c65565b80156102555780601f1061022a57610100808354040283529160200191610255565b820191906000526020600020905b81548152906001019060200180831161023857829003601f168201915b5050505050905090565b60606001805461026e90610c65565b80601f016020809104026020016040519081016040528092919081815260200182805461029a90610c65565b80156102e75780601f106102bc576101008083540402835291602001916102e7565b820191906000526020600020905b8154815290600101906020018083116102ca57829003601f168201915b5050505050905090565b60606008805461030090610c65565b80601f016020809104026020016040519081016040528092919081815260200182805461032c90610c65565b80156103795780601f1061034e57610100808354040283529160200191610379565b820191906000526020600020905b81548152906001019060200180831161035c57829003601f168201915b5050505050905090565b60606005805461039290610c65565b80601f01602080910402602001604051908101604052809291908181526020018280546103be90610c65565b801561040b5780601f106103e05761010080835404028352916020019161040b565b820191906000526020600020905b8154815290600101906020018083116103ee57829003601f168201915b5050505050905090565b886001908051906020019061042b9291906107c9565b5087600090805190602001906104429291906107c9565b5086600290805190602001906104599291906107c9565b5085600390805190602001906104709291906107c9565b5084600490805190602001906104879291906107c9565b50836005908051906020019061049e9291906107c9565b5082600690805190602001906104b59291906107c9565b5081600790805190602001906104cc9291906107c9565b5080600890805190602001906104e39291906107c9565b50505050505050505050565b6060600380546104fe90610c65565b80601f016020809104026020016040519081016040528092919081815260200182805461052a90610c65565b80156105775780601f1061054c57610100808354040283529160200191610577565b820191906000526020600020905b81548152906001019060200180831161055a57829003601f168201915b5050505050905090565b60606000805461059090610c65565b80601f01602080910402602001604051908101604052809291908181526020018280546105bc90610c65565b80156106095780601f106105de57610100808354040283529160200191610609565b820191906000526020600020905b8154815290600101906020018083116105ec57829003601f168201915b5050505050905090565b60606006805461062290610c65565b80601f016020809104026020016040519081016040528092919081815260200182805461064e90610c65565b801561069b5780601f106106705761010080835404028352916020019161069b565b820191906000526020600020905b81548152906001019060200180831161067e57829003601f168201915b5050505050905090565b6060600480546106b490610c65565b80601f01602080910402602001604051908101604052809291908181526020018280546106e090610c65565b801561072d5780601f106107025761010080835404028352916020019161072d565b820191906000526020600020905b81548152906001019060200180831161071057829003601f168201915b5050505050905090565b60606002805461074690610c65565b80601f016020809104026020016040519081016040528092919081815260200182805461077290610c65565b80156107bf5780601f10610794576101008083540402835291602001916107bf565b820191906000526020600020905b8154815290600101906020018083116107a257829003601f168201915b5050505050905090565b8280546107d590610c65565b90600052602060002090601f0160209004810192826107f7576000855561083e565b82601f1061081057805160ff191683800117855561083e565b8280016001018555821561083e579182015b8281111561083d578251825591602001919060010190610822565b5b50905061084b919061084f565b5090565b5b80821115610868576000816000905550600101610850565b5090565b600081519050919050565b600082825260208201905092915050565b60005b838110156108a657808201518184015260208101905061088b565b838111156108b5576000848401525b50505050565b6000601f19601f8301169050919050565b60006108d78261086c565b6108e18185610877565b93506108f1818560208601610888565b6108fa816108bb565b840191505092915050565b6000602082019050818103600083015261091f81846108cc565b905092915050565b6000604051905090565b600080fd5b600080fd5b600080fd5b600080fd5b7f4e487b7100000000000000000000000000000000000000000000000000000000600052604160045260246000fd5b61097d826108bb565b810181811067ffffffffffffffff8211171561099c5761099b610945565b5b80604052505050565b60006109af610927565b90506109bb8282610974565b919050565b600067ffffffffffffffff8211156109db576109da610945565b5b6109e4826108bb565b9050602081019050919050565b82818337600083830152505050565b6000610a13610a0e846109c0565b6109a5565b905082815260208101848484011115610a2f57610a2e610940565b5b610a3a8482856109f1565b509392505050565b600082601f830112610a5757610a5661093b565b5b8135610a67848260208601610a00565b91505092915050565b60008060008060008060008060006101208a8c031215610a9357610a92610931565b5b60008a013567ffffffffffffffff811115610ab157610ab0610936565b5b610abd8c828d01610a42565b99505060208a013567ffffffffffffffff811115610ade57610add610936565b5b610aea8c828d01610a42565b98505060408a013567ffffffffffffffff811115610b0b57610b0a610936565b5b610b178c828d01610a42565b97505060608a013567ffffffffffffffff811115610b3857610b37610936565b5b610b448c828d01610a42565b96505060808a013567ffffffffffffffff811115610b6557610b64610936565b5b610b718c828d01610a42565b95505060a08a013567ffffffffffffffff811115610b9257610b91610936565b5b610b9e8c828d01610a42565b94505060c08a013567ffffffffffffffff811115610bbf57610bbe610936565b5b610bcb8c828d01610a42565b93505060e08a013567ffffffffffffffff811115610bec57610beb610936565b5b610bf88c828d01610a42565b9250506101008a013567ffffffffffffffff811115610c1a57610c19610936565b5b610c268c828d01610a42565b9150509295985092959850929598565b7f4e487b7100000000000000000000000000000000000000000000000000000000600052602260045260246000fd5b60006002820490506001821680610c7d57607f821691505b60208210811415610c9157610c90610c36565b5b5091905056fea2646970667358221220eaca8a108e00274290cd9484955f6c32b2e70ff870cb277b8319ee668403de1064736f6c634300080a0033",
  "immutableReferences": {},
  "source": "// SPDX-License-Identifier: MIT\npragma solidity ^0.8.10;\n\n// MyContract\ncontract MyContract {\n\n    // value\n    // string value;\n    string mobileNumber;\n    // string ownerName;\n    string ownerName;\n    string propertyAddress;\n    string weeklyRent;\n    string deposit;\n    string startDate;\n    string endDate;\n    string suppliedServices;\n    string petsAllowed;\n    \n\n\n    // \n    // public\n    // valuemyValue\n    constructor() {\n        // value = \"myValue\";\n        ownerName = \"Ren\";\n        \n    }\n\n    // public\n    // view\n    // function get() public view returns(string memory) {\n    //     return value;\n    // }\n\n    // public\n    function set(string memory _ownerName, string memory _mobileNumber, string memory _propertyAddress, string memory _weeklyRent, string memory _deposit, string memory _startDate,\n                string memory _endDate, string memory _suppliedServices, string memory _petsAllowed) public {\n        ownerName = _ownerName;\n        mobileNumber = _mobileNumber;\n        propertyAddress = _propertyAddress;\n        weeklyRent = _weeklyRent;\n        deposit = _deposit;\n        startDate = _startDate;\n        endDate = _endDate;\n        suppliedServices = _suppliedServices;\n        petsAllowed = _petsAllowed;\n    }\n\n\n    function getMobileNumber() public view returns(string memory) {\n        return mobileNumber;\n    }\n\n\n    function getOwnerName() public view returns (string memory) {\n        return ownerName;\t\n    }\n\n\n    function getPropertyAddress() public view returns (string memory) {\n        return propertyAddress;\t\n    }\n    \n    function getWeeklyRent() public view returns(string memory) {\n        return weeklyRent;\n    }\n    function getDeposit() public view returns(string memory) {\n        return deposit;\n    }\n    function getStartDate() public view returns(string memory) {\n        return startDate;\n    }\n        function getEndDate() public view returns(string memory) {\n        return endDate;\n    }\n\n    function getSuppliedServices() public view returns (string memory) {\n        return suppliedServices;\n    }\n\n    function getPetsAllowed() public view returns (string memory) {\n        return petsAllowed;\n    }\n\n}",
  "sourcePath": "/Users/yuxuanli/mydapp/contracts/MyContract.sol",
  "compiler": {
    "name": "solc",
    "version": "0.8.10+commit.fc410830.Emscripten.clang"
  },
  "schemaVersion": "3.4.3",
  "updatedAt": "2022-04-06T14:18:09.708Z",
  "networkType": "ethereum",
  "devdoc": {
    "kind": "dev",
    "methods": {},
    "version": 1
  },
  "userdoc": {
    "kind": "user",
    "methods": {},
    "version": 1
  }
}