{
  "contractName": "MyContract",
  "abi": [
    {
      "inputs": [],
      "stateMutability": "nonpayable",
      "type": "constructor"
    },
    {
      "stateMutability": "payable",
      "type": "fallback",
      "payable": true
    },
    {
      "inputs": [],
      "name": "balance",
      "outputs": [
        {
          "internalType": "uint256",
          "name": "",
          "type": "uint256"
        }
      ],
      "stateMutability": "view",
      "type": "function",
      "constant": true
    },
    {
      "inputs": [
        {
          "internalType": "string",
          "name": "s",
          "type": "string"
        }
      ],
      "name": "stringToUint",
      "outputs": [
        {
          "internalType": "uint256",
          "name": "result",
          "type": "uint256"
        }
      ],
      "stateMutability": "pure",
      "type": "function",
      "constant": true
    },
    {
      "inputs": [
        {
          "internalType": "string",
          "name": "_ownerName",
          "type": "string"
        },
        {
          "internalType": "string",
          "name": "_mobileNumber",
          "type": "string"
        },
        {
          "internalType": "string",
          "name": "_propertyAddress",
          "type": "string"
        },
        {
          "internalType": "string",
          "name": "_weeklyRent",
          "type": "string"
        },
        {
          "internalType": "string",
          "name": "_deposit",
          "type": "string"
        },
        {
          "internalType": "string",
          "name": "_startDate",
          "type": "string"
        },
        {
          "internalType": "string",
          "name": "_endDate",
          "type": "string"
        },
        {
          "internalType": "string",
          "name": "_suppliedServices",
          "type": "string"
        },
        {
          "internalType": "string",
          "name": "_petsAllowed",
          "type": "string"
        }
      ],
      "name": "set",
      "outputs": [],
      "stateMutability": "nonpayable",
      "type": "function"
    },
    {
      "inputs": [
        {
          "internalType": "string",
          "name": "newName",
          "type": "string"
        },
        {
          "internalType": "string",
          "name": "newNumber",
          "type": "string"
        },
        {
          "internalType": "string",
          "name": "newStart",
          "type": "string"
        },
        {
          "internalType": "string",
          "name": "newEnd",
          "type": "string"
        }
      ],
      "name": "setTenant",
      "outputs": [],
      "stateMutability": "nonpayable",
      "type": "function"
    },
    {
      "inputs": [],
      "name": "getMobileNumber",
      "outputs": [
        {
          "internalType": "string",
          "name": "",
          "type": "string"
        }
      ],
      "stateMutability": "view",
      "type": "function",
      "constant": true
    },
    {
      "inputs": [],
      "name": "getOwnerName",
      "outputs": [
        {
          "internalType": "string",
          "name": "",
          "type": "string"
        }
      ],
      "stateMutability": "view",
      "type": "function",
      "constant": true
    },
    {
      "inputs": [],
      "name": "getPropertyAddress",
      "outputs": [
        {
          "internalType": "string",
          "name": "",
          "type": "string"
        }
      ],
      "stateMutability": "view",
      "type": "function",
      "constant": true
    },
    {
      "inputs": [],
      "name": "getWeeklyRent",
      "outputs": [
        {
          "internalType": "string",
          "name": "",
          "type": "string"
        }
      ],
      "stateMutability": "view",
      "type": "function",
      "constant": true
    },
    {
      "inputs": [],
      "name": "getDeposit",
      "outputs": [
        {
          "internalType": "string",
          "name": "",
          "type": "string"
        }
      ],
      "stateMutability": "view",
      "type": "function",
      "constant": true
    },
    {
      "inputs": [],
      "name": "getStartDate",
      "outputs": [
        {
          "internalType": "string",
          "name": "",
          "type": "string"
        }
      ],
      "stateMutability": "view",
      "type": "function",
      "constant": true
    },
    {
      "inputs": [],
      "name": "getEndDate",
      "outputs": [
        {
          "internalType": "string",
          "name": "",
          "type": "string"
        }
      ],
      "stateMutability": "view",
      "type": "function",
      "constant": true
    },
    {
      "inputs": [],
      "name": "getSuppliedServices",
      "outputs": [
        {
          "internalType": "string",
          "name": "",
          "type": "string"
        }
      ],
      "stateMutability": "view",
      "type": "function",
      "constant": true
    },
    {
      "inputs": [],
      "name": "getPetsAllowed",
      "outputs": [
        {
          "internalType": "string",
          "name": "",
          "type": "string"
        }
      ],
      "stateMutability": "view",
      "type": "function",
      "constant": true
    },
    {
      "inputs": [],
      "name": "getTenantName",
      "outputs": [
        {
          "internalType": "string",
          "name": "",
          "type": "string"
        }
      ],
      "stateMutability": "view",
      "type": "function",
      "constant": true
    },
    {
      "inputs": [],
      "name": "getTenantNumber",
      "outputs": [
        {
          "internalType": "string",
          "name": "",
          "type": "string"
        }
      ],
      "stateMutability": "view",
      "type": "function",
      "constant": true
    },
    {
      "inputs": [],
      "name": "getTenantStartDate",
      "outputs": [
        {
          "internalType": "string",
          "name": "",
          "type": "string"
        }
      ],
      "stateMutability": "view",
      "type": "function",
      "constant": true
    },
    {
      "inputs": [],
      "name": "getTenantEndDate",
      "outputs": [
        {
          "internalType": "string",
          "name": "",
          "type": "string"
        }
      ],
      "stateMutability": "view",
      "type": "function",
      "constant": true
    },
    {
      "inputs": [
        {
          "internalType": "address payable",
          "name": "_receiver",
          "type": "address"
        },
        {
          "internalType": "uint256",
          "name": "amount",
          "type": "uint256"
        }
      ],
      "name": "sendDeposit",
      "outputs": [],
      "stateMutability": "payable",
      "type": "function",
      "payable": true
    },
    {
      "inputs": [
        {
          "internalType": "address payable",
          "name": "_landlordAddress",
          "type": "address"
        }
      ],
      "name": "getLandlordBalance",
      "outputs": [
        {
          "internalType": "uint256",
          "name": "",
          "type": "uint256"
        }
      ],
      "stateMutability": "view",
      "type": "function",
      "constant": true
    },
    {
      "inputs": [
        {
          "internalType": "address payable",
          "name": "_tenantAddress",
          "type": "address"
        }
      ],
      "name": "getTenantBalance",
      "outputs": [
        {
          "internalType": "uint256",
          "name": "",
          "type": "uint256"
        }
      ],
      "stateMutability": "view",
      "type": "function",
      "constant": true
    },
    {
      "inputs": [
        {
          "internalType": "address payable",
          "name": "_landlord",
          "type": "address"
        },
        {
          "internalType": "string",
          "name": "amount",
          "type": "string"
        }
      ],
      "name": "requestDeposit",
      "outputs": [],
      "stateMutability": "payable",
      "type": "function",
      "payable": true
    },
    {
      "inputs": [],
      "name": "getBalance",
      "outputs": [
        {
          "internalType": "uint256",
          "name": "",
          "type": "uint256"
        }
      ],
      "stateMutability": "view",
      "type": "function",
      "constant": true
    },
    {
      "inputs": [
        {
          "internalType": "address payable",
          "name": "_recipient",
          "type": "address"
        },
        {
          "internalType": "uint256",
          "name": "_amount",
          "type": "uint256"
        }
      ],
      "name": "transferAmount",
      "outputs": [],
      "stateMutability": "payable",
      "type": "function",
      "payable": true
    }
  ],
  "bytecode": "0x60806040527331248ef67b5a5afd0623b54dbfa467901818fc2c600d60006101000a81548173ffffffffffffffffffffffffffffffffffffffff021916908373ffffffffffffffffffffffffffffffffffffffff16021790555073df5d173d48ce72d3af0ab5c614bf7e25b36af6a6600e60006101000a81548173ffffffffffffffffffffffffffffffffffffffff021916908373ffffffffffffffffffffffffffffffffffffffff160217905550600d60009054906101000a900473ffffffffffffffffffffffffffffffffffffffff16600f60006101000a81548173ffffffffffffffffffffffffffffffffffffffff021916908373ffffffffffffffffffffffffffffffffffffffff160217905550600e60009054906101000a900473ffffffffffffffffffffffffffffffffffffffff16601060006101000a81548173ffffffffffffffffffffffffffffffffffffffff021916908373ffffffffffffffffffffffffffffffffffffffff1602179055503480156200018157600080fd5b506040518060400160405280600381526020017f52656e000000000000000000000000000000000000000000000000000000000081525060019080519060200190620001cf92919062000224565b506040518060400160405280600181526020017f3100000000000000000000000000000000000000000000000000000000000000815250600490805190602001906200021d92919062000224565b5062000339565b828054620002329062000303565b90600052602060002090601f016020900481019282620002565760008555620002a2565b82601f106200027157805160ff1916838001178555620002a2565b82800160010185558215620002a2579182015b82811115620002a157825182559160200191906001019062000284565b5b509050620002b19190620002b5565b5090565b5b80821115620002d0576000816000905550600101620002b6565b5090565b7f4e487b7100000000000000000000000000000000000000000000000000000000600052602260045260246000fd5b600060028204905060018216806200031c57607f821691505b60208210811415620003335762000332620002d4565b5b50919050565b6118f780620003496000396000f3fe6080604052600436106101445760003560e01c806395e59332116100b6578063c399ec881161006f578063c399ec8814610454578063d7081e031461047f578063df77baf61461049b578063e35fd0c7146104c6578063ee2a4f31146104e2578063f2c4769a146104fe57610145565b806395e59332146103545780639abea44d1461037d578063a386c410146103a8578063a3be3d82146103d3578063b1356488146103fe578063b69ef8a81461042957610145565b80632bab9189116101085780632bab9189146102305780632cd847d21461025b5780634b7eb0851461028657806366369c63146102c357806378f305c614610300578063823cd0981461032b57610145565b806307a231571461014757806312065fe014610172578063145ef6e91461019d5780631bd95155146101c85780631c22bc521461020557610145565b5b005b34801561015357600080fd5b5061015c610529565b60405161016991906110fd565b60405180910390f35b34801561017e57600080fd5b506101876105bb565b6040516101949190611138565b60405180910390f35b3480156101a957600080fd5b506101b26105c3565b6040516101bf91906110fd565b60405180910390f35b3480156101d457600080fd5b506101ef60048036038101906101ea919061129c565b610655565b6040516101fc9190611138565b60405180910390f35b34801561021157600080fd5b5061021a6106ef565b60405161022791906110fd565b60405180910390f35b34801561023c57600080fd5b50610245610781565b60405161025291906110fd565b60405180910390f35b34801561026757600080fd5b50610270610813565b60405161027d91906110fd565b60405180910390f35b34801561029257600080fd5b506102ad60048036038101906102a89190611343565b6108a5565b6040516102ba9190611138565b60405180910390f35b3480156102cf57600080fd5b506102ea60048036038101906102e59190611343565b6108c6565b6040516102f79190611138565b60405180910390f35b34801561030c57600080fd5b506103156108e7565b60405161032291906110fd565b60405180910390f35b34801561033757600080fd5b50610352600480360381019061034d9190611370565b610979565b005b34801561036057600080fd5b5061037b60048036038101906103769190611447565b6109db565b005b34801561038957600080fd5b50610392610ab5565b60405161039f91906110fd565b60405180910390f35b3480156103b457600080fd5b506103bd610b47565b6040516103ca91906110fd565b60405180910390f35b3480156103df57600080fd5b506103e8610bd9565b6040516103f591906110fd565b60405180910390f35b34801561040a57600080fd5b50610413610c6b565b60405161042091906110fd565b60405180910390f35b34801561043557600080fd5b5061043e610cfd565b60405161044b9190611138565b60405180910390f35b34801561046057600080fd5b50610469610d03565b60405161047691906110fd565b60405180910390f35b61049960048036038101906104949190611639565b610d95565b005b3480156104a757600080fd5b506104b0610de0565b6040516104bd91906110fd565b60405180910390f35b6104e060048036038101906104db9190611639565b610e72565b005b6104fc60048036038101906104f79190611679565b610ebd565b005b34801561050a57600080fd5b50610513610f2f565b60405161052091906110fd565b60405180910390f35b60606007805461053890611704565b80601f016020809104026020016040519081016040528092919081815260200182805461056490611704565b80156105b15780601f10610586576101008083540402835291602001916105b1565b820191906000526020600020905b81548152906001019060200180831161059457829003601f168201915b5050505050905090565b600047905090565b6060600180546105d290611704565b80601f01602080910402602001604051908101604052809291908181526020018280546105fe90611704565b801561064b5780601f106106205761010080835404028352916020019161064b565b820191906000526020600020905b81548152906001019060200180831161062e57829003601f168201915b5050505050905090565b6000808290506000809250600090505b81518110156106e857600082828151811061068357610682611736565b5b602001015160f81c60f81b60f81c60ff169050603081101580156106a8575060398111155b156106d4576030816106ba9190611794565b600a856106c791906117c8565b6106d19190611822565b93505b5080806106e090611878565b915050610665565b5050919050565b6060600c80546106fe90611704565b80601f016020809104026020016040519081016040528092919081815260200182805461072a90611704565b80156107775780601f1061074c57610100808354040283529160200191610777565b820191906000526020600020905b81548152906001019060200180831161075a57829003601f168201915b5050505050905090565b6060600a805461079090611704565b80601f01602080910402602001604051908101604052809291908181526020018280546107bc90611704565b80156108095780601f106107de57610100808354040283529160200191610809565b820191906000526020600020905b8154815290600101906020018083116107ec57829003601f168201915b5050505050905090565b60606008805461082290611704565b80601f016020809104026020016040519081016040528092919081815260200182805461084e90611704565b801561089b5780601f106108705761010080835404028352916020019161089b565b820191906000526020600020905b81548152906001019060200180831161087e57829003601f168201915b5050505050905090565b60008173ffffffffffffffffffffffffffffffffffffffff16319050919050565b60008173ffffffffffffffffffffffffffffffffffffffff16319050919050565b6060600580546108f690611704565b80601f016020809104026020016040519081016040528092919081815260200182805461092290611704565b801561096f5780601f106109445761010080835404028352916020019161096f565b820191906000526020600020905b81548152906001019060200180831161095257829003601f168201915b5050505050905090565b836009908051906020019061098f929190610fc1565b5082600a90805190602001906109a6929190610fc1565b5081600b90805190602001906109bd929190610fc1565b5080600c90805190602001906109d4929190610fc1565b5050505050565b88600190805190602001906109f1929190610fc1565b508760009080519060200190610a08929190610fc1565b508660029080519060200190610a1f929190610fc1565b508560039080519060200190610a36929190610fc1565b508460049080519060200190610a4d929190610fc1565b508360059080519060200190610a64929190610fc1565b508260069080519060200190610a7b929190610fc1565b508160079080519060200190610a92929190610fc1565b508060089080519060200190610aa9929190610fc1565b50505050505050505050565b606060038054610ac490611704565b80601f0160208091040260200160405190810160405280929190818152602001828054610af090611704565b8015610b3d5780601f10610b1257610100808354040283529160200191610b3d565b820191906000526020600020905b815481529060010190602001808311610b2057829003601f168201915b5050505050905090565b606060008054610b5690611704565b80601f0160208091040260200160405190810160405280929190818152602001828054610b8290611704565b8015610bcf5780601f10610ba457610100808354040283529160200191610bcf565b820191906000526020600020905b815481529060010190602001808311610bb257829003601f168201915b5050505050905090565b606060098054610be890611704565b80601f0160208091040260200160405190810160405280929190818152602001828054610c1490611704565b8015610c615780601f10610c3657610100808354040283529160200191610c61565b820191906000526020600020905b815481529060010190602001808311610c4457829003601f168201915b5050505050905090565b606060068054610c7a90611704565b80601f0160208091040260200160405190810160405280929190818152602001828054610ca690611704565b8015610cf35780601f10610cc857610100808354040283529160200191610cf3565b820191906000526020600020905b815481529060010190602001808311610cd657829003601f168201915b5050505050905090565b60115481565b606060048054610d1290611704565b80601f0160208091040260200160405190810160405280929190818152602001828054610d3e90611704565b8015610d8b5780601f10610d6057610100808354040283529160200191610d8b565b820191906000526020600020905b815481529060010190602001808311610d6e57829003601f168201915b5050505050905090565b8173ffffffffffffffffffffffffffffffffffffffff166108fc829081150290604051600060405180830381858888f19350505050158015610ddb573d6000803e3d6000fd5b505050565b6060600b8054610def90611704565b80601f0160208091040260200160405190810160405280929190818152602001828054610e1b90611704565b8015610e685780601f10610e3d57610100808354040283529160200191610e68565b820191906000526020600020905b815481529060010190602001808311610e4b57829003601f168201915b5050505050905090565b8173ffffffffffffffffffffffffffffffffffffffff166108fc829081150290604051600060405180830381858888f19350505050158015610eb8573d6000803e3d6000fd5b505050565b6000610ec882610655565b90506000670de0b6b3a764000082610ee091906117c8565b90508373ffffffffffffffffffffffffffffffffffffffff166108fc829081150290604051600060405180830381858888f19350505050158015610f28573d6000803e3d6000fd5b5050505050565b606060028054610f3e90611704565b80601f0160208091040260200160405190810160405280929190818152602001828054610f6a90611704565b8015610fb75780601f10610f8c57610100808354040283529160200191610fb7565b820191906000526020600020905b815481529060010190602001808311610f9a57829003601f168201915b5050505050905090565b828054610fcd90611704565b90600052602060002090601f016020900481019282610fef5760008555611036565b82601f1061100857805160ff1916838001178555611036565b82800160010185558215611036579182015b8281111561103557825182559160200191906001019061101a565b5b5090506110439190611047565b5090565b5b80821115611060576000816000905550600101611048565b5090565b600081519050919050565b600082825260208201905092915050565b60005b8381101561109e578082015181840152602081019050611083565b838111156110ad576000848401525b50505050565b6000601f19601f8301169050919050565b60006110cf82611064565b6110d9818561106f565b93506110e9818560208601611080565b6110f2816110b3565b840191505092915050565b6000602082019050818103600083015261111781846110c4565b905092915050565b6000819050919050565b6111328161111f565b82525050565b600060208201905061114d6000830184611129565b92915050565b6000604051905090565b600080fd5b600080fd5b600080fd5b600080fd5b7f4e487b7100000000000000000000000000000000000000000000000000000000600052604160045260246000fd5b6111a9826110b3565b810181811067ffffffffffffffff821117156111c8576111c7611171565b5b80604052505050565b60006111db611153565b90506111e782826111a0565b919050565b600067ffffffffffffffff82111561120757611206611171565b5b611210826110b3565b9050602081019050919050565b82818337600083830152505050565b600061123f61123a846111ec565b6111d1565b90508281526020810184848401111561125b5761125a61116c565b5b61126684828561121d565b509392505050565b600082601f83011261128357611282611167565b5b813561129384826020860161122c565b91505092915050565b6000602082840312156112b2576112b161115d565b5b600082013567ffffffffffffffff8111156112d0576112cf611162565b5b6112dc8482850161126e565b91505092915050565b600073ffffffffffffffffffffffffffffffffffffffff82169050919050565b6000611310826112e5565b9050919050565b61132081611305565b811461132b57600080fd5b50565b60008135905061133d81611317565b92915050565b6000602082840312156113595761135861115d565b5b60006113678482850161132e565b91505092915050565b6000806000806080858703121561138a5761138961115d565b5b600085013567ffffffffffffffff8111156113a8576113a7611162565b5b6113b48782880161126e565b945050602085013567ffffffffffffffff8111156113d5576113d4611162565b5b6113e18782880161126e565b935050604085013567ffffffffffffffff81111561140257611401611162565b5b61140e8782880161126e565b925050606085013567ffffffffffffffff81111561142f5761142e611162565b5b61143b8782880161126e565b91505092959194509250565b60008060008060008060008060006101208a8c03121561146a5761146961115d565b5b60008a013567ffffffffffffffff81111561148857611487611162565b5b6114948c828d0161126e565b99505060208a013567ffffffffffffffff8111156114b5576114b4611162565b5b6114c18c828d0161126e565b98505060408a013567ffffffffffffffff8111156114e2576114e1611162565b5b6114ee8c828d0161126e565b97505060608a013567ffffffffffffffff81111561150f5761150e611162565b5b61151b8c828d0161126e565b96505060808a013567ffffffffffffffff81111561153c5761153b611162565b5b6115488c828d0161126e565b95505060a08a013567ffffffffffffffff81111561156957611568611162565b5b6115758c828d0161126e565b94505060c08a013567ffffffffffffffff81111561159657611595611162565b5b6115a28c828d0161126e565b93505060e08a013567ffffffffffffffff8111156115c3576115c2611162565b5b6115cf8c828d0161126e565b9250506101008a013567ffffffffffffffff8111156115f1576115f0611162565b5b6115fd8c828d0161126e565b9150509295985092959850929598565b6116168161111f565b811461162157600080fd5b50565b6000813590506116338161160d565b92915050565b600080604083850312156116505761164f61115d565b5b600061165e8582860161132e565b925050602061166f85828601611624565b9150509250929050565b600080604083850312156116905761168f61115d565b5b600061169e8582860161132e565b925050602083013567ffffffffffffffff8111156116bf576116be611162565b5b6116cb8582860161126e565b9150509250929050565b7f4e487b7100000000000000000000000000000000000000000000000000000000600052602260045260246000fd5b6000600282049050600182168061171c57607f821691505b602082108114156117305761172f6116d5565b5b50919050565b7f4e487b7100000000000000000000000000000000000000000000000000000000600052603260045260246000fd5b7f4e487b7100000000000000000000000000000000000000000000000000000000600052601160045260246000fd5b600061179f8261111f565b91506117aa8361111f565b9250828210156117bd576117bc611765565b5b828203905092915050565b60006117d38261111f565b91506117de8361111f565b9250817fffffffffffffffffffffffffffffffffffffffffffffffffffffffffffffffff048311821515161561181757611816611765565b5b828202905092915050565b600061182d8261111f565b91506118388361111f565b9250827fffffffffffffffffffffffffffffffffffffffffffffffffffffffffffffffff0382111561186d5761186c611765565b5b828201905092915050565b60006118838261111f565b91507fffffffffffffffffffffffffffffffffffffffffffffffffffffffffffffffff8214156118b6576118b5611765565b5b60018201905091905056fea2646970667358221220d15ede817219c71d506a2b613b7f0800f76d6b7352968daec7a56e75bd9a677b64736f6c634300080a0033",
  "immutableReferences": {},
  "source": "// SPDX-License-Identifier: MIT\npragma solidity ^0.8.10;\n\n\ncontract MyContract {\n\n    string mobileNumber;\n    // string ownerName;\n    string ownerName;\n    string propertyAddress;\n    string weeklyRent;\n    string deposit;\n    string startDate;\n    string endDate;\n    string suppliedServices;\n    string petsAllowed;\n\n    string tenantName;\n    string tenantNumber;\n    string tenantStartDate;\n    string tenantEndDate;\n\n    // string landlordAddress;\n    // string tenantAddress;\n    address landlordAddress = 0x31248Ef67b5a5AFd0623B54dBfA467901818Fc2c;  // ********************** edit this\n    address tenantAddress = 0xdF5d173d48cE72d3AF0AB5c614BF7e25B36Af6a6; // ************************ edit this \n    address payable landlordAddressPayable = payable(landlordAddress);\n    address payable tenantAddressPayable = payable(tenantAddress);\n\n\n    constructor() {\n        // value = \"myValue\";\n        ownerName = \"Ren\";\n        deposit = \"1\";\n        \n    }\n    fallback() external payable {}\n\n    function stringToUint(string memory s) public pure returns (uint result) {\n        bytes memory b = bytes(s);\n        uint i;\n        result = 0;\n        for (i = 0; i < b.length; i++) {\n            uint c = uint(uint8(b[i]));\n            // uint c = uint(b[i]);\n            if (c >= 48 && c <= 57) {\n                result = result * 10 + (c - 48);\n            }\n        }\n    }\n\n    function set(string memory _ownerName, string memory _mobileNumber, string memory _propertyAddress, string memory _weeklyRent, string memory _deposit, string memory _startDate,\n                string memory _endDate, string memory _suppliedServices, string memory _petsAllowed) public {\n        ownerName = _ownerName;\n        mobileNumber = _mobileNumber;\n        propertyAddress = _propertyAddress;\n        weeklyRent = _weeklyRent;\n        deposit = _deposit;\n        startDate = _startDate;\n        endDate = _endDate;\n        suppliedServices = _suppliedServices;\n        petsAllowed = _petsAllowed;\n    }\n\n    function setTenant(string memory newName, string memory newNumber, string memory newStart, string memory newEnd) public {\n        tenantName = newName;\n        tenantNumber = newNumber;\n        tenantStartDate = newStart;\n        tenantEndDate = newEnd;\n        //call send deposit here \n        // string memory depositSet = getDeposit();\n        // uint depositUint = stringToUint(depositSet);\n        // sendDeposit(landlordAddressPayable, depositUint);\n    }\n\n\n    function getMobileNumber() public view returns(string memory) {\n        return mobileNumber;\n    }\n\n\n    function getOwnerName() public view returns (string memory) {\n        return ownerName;\t\n    }\n\n\n    function getPropertyAddress() public view returns (string memory) {\n        return propertyAddress;\t\n    }\n    \n    function getWeeklyRent() public view returns(string memory) {\n        return weeklyRent;\n    }\n    function getDeposit() public view returns(string memory) {\n        return deposit;\n    }\n    function getStartDate() public view returns(string memory) {\n        return startDate;\n    }\n        function getEndDate() public view returns(string memory) {\n        return endDate;\n    }\n\n    function getSuppliedServices() public view returns (string memory) {\n        return suppliedServices;\n    }\n\n    function getPetsAllowed() public view returns (string memory) {\n        return petsAllowed;\n    }\n\n    function getTenantName() public view returns (string memory) {\n        return tenantName;\n    }\n\n    function getTenantNumber() public view returns (string memory) {\n        return tenantNumber;\n    }\n\n    function getTenantStartDate() public view returns (string memory) {\n        return tenantStartDate;\n    }\n\n        function getTenantEndDate() public view returns (string memory) {\n        return tenantEndDate;\n    }\n\n        uint256 public balance;\n\n\n\n// Tenant functions\n\n    // function () public payable {}\n\n    function sendDeposit(address payable _receiver, uint amount) payable public {\n         _receiver.transfer(amount);\n    }\n\n    function getLandlordBalance(address payable _landlordAddress) public view returns (uint) {\n        return _landlordAddress.balance;\n    }\n\n    function getTenantBalance(address payable _tenantAddress) public view returns (uint) {\n        return _tenantAddress.balance;\n    }\n\n    // landlord functions\n\n    function requestDeposit(address payable _landlord, string memory amount) payable public {\n                //call send deposit here \n        // string memory depositSet = getDeposit();\n        uint depositUintinWei = stringToUint(amount);\n        uint depositUint = depositUintinWei*1000000000000000000;\n        _landlord.transfer(depositUint);\n    }\n\n\n\n// testing \n\n    function getBalance() public view returns(uint){\n        return address(this).balance;\n    }\n\n    function transferAmount(address payable _recipient, uint _amount) external payable {\n        _recipient.transfer(_amount);\n    }\n\n\n\n\n//   fallback() external payable {\n//     emit seeSender(msg.sender, msg.value);\n//     emit showNum(num);\n//     num += 1;\n//   }\n\n\n\n\n\n\n\n}",
  "sourcePath": "/Users/yuxuanli/mydapp/contracts/MyContract.sol",
  "compiler": {
    "name": "solc",
    "version": "0.8.10+commit.fc410830.Emscripten.clang"
  },
  "schemaVersion": "3.4.3",
  "updatedAt": "2022-05-01T13:48:33.994Z",
  "networkType": "ethereum",
  "devdoc": {
    "kind": "dev",
    "methods": {},
    "version": 1
  },
  "userdoc": {
    "kind": "user",
    "methods": {},
    "version": 1
  }
}