{
  "contractName": "MyContract",
  "abi": [
    {
      "inputs": [],
      "stateMutability": "nonpayable",
      "type": "constructor"
    },
    {
      "stateMutability": "payable",
      "type": "fallback",
      "payable": true
    },
    {
      "inputs": [],
      "name": "balance",
      "outputs": [
        {
          "internalType": "uint256",
          "name": "",
          "type": "uint256"
        }
      ],
      "stateMutability": "view",
      "type": "function",
      "constant": true
    },
    {
      "stateMutability": "payable",
      "type": "receive",
      "payable": true
    },
    {
      "inputs": [
        {
          "internalType": "string",
          "name": "s",
          "type": "string"
        }
      ],
      "name": "stringToUint",
      "outputs": [
        {
          "internalType": "uint256",
          "name": "result",
          "type": "uint256"
        }
      ],
      "stateMutability": "pure",
      "type": "function",
      "constant": true
    },
    {
      "inputs": [
        {
          "internalType": "string",
          "name": "_ownerName",
          "type": "string"
        },
        {
          "internalType": "string",
          "name": "_mobileNumber",
          "type": "string"
        },
        {
          "internalType": "string",
          "name": "_propertyAddress",
          "type": "string"
        },
        {
          "internalType": "string",
          "name": "_weeklyRent",
          "type": "string"
        },
        {
          "internalType": "string",
          "name": "_deposit",
          "type": "string"
        },
        {
          "internalType": "string",
          "name": "_startDate",
          "type": "string"
        },
        {
          "internalType": "string",
          "name": "_endDate",
          "type": "string"
        },
        {
          "internalType": "string",
          "name": "_suppliedServices",
          "type": "string"
        },
        {
          "internalType": "string",
          "name": "_petsAllowed",
          "type": "string"
        }
      ],
      "name": "set",
      "outputs": [],
      "stateMutability": "nonpayable",
      "type": "function"
    },
    {
      "inputs": [
        {
          "internalType": "string",
          "name": "newName",
          "type": "string"
        },
        {
          "internalType": "string",
          "name": "newNumber",
          "type": "string"
        },
        {
          "internalType": "string",
          "name": "newStart",
          "type": "string"
        },
        {
          "internalType": "string",
          "name": "newEnd",
          "type": "string"
        }
      ],
      "name": "setTenant",
      "outputs": [],
      "stateMutability": "nonpayable",
      "type": "function"
    },
    {
      "inputs": [],
      "name": "getMobileNumber",
      "outputs": [
        {
          "internalType": "string",
          "name": "",
          "type": "string"
        }
      ],
      "stateMutability": "view",
      "type": "function",
      "constant": true
    },
    {
      "inputs": [],
      "name": "getOwnerName",
      "outputs": [
        {
          "internalType": "string",
          "name": "",
          "type": "string"
        }
      ],
      "stateMutability": "view",
      "type": "function",
      "constant": true
    },
    {
      "inputs": [],
      "name": "getPropertyAddress",
      "outputs": [
        {
          "internalType": "string",
          "name": "",
          "type": "string"
        }
      ],
      "stateMutability": "view",
      "type": "function",
      "constant": true
    },
    {
      "inputs": [],
      "name": "getWeeklyRent",
      "outputs": [
        {
          "internalType": "string",
          "name": "",
          "type": "string"
        }
      ],
      "stateMutability": "view",
      "type": "function",
      "constant": true
    },
    {
      "inputs": [],
      "name": "getDeposit",
      "outputs": [
        {
          "internalType": "string",
          "name": "",
          "type": "string"
        }
      ],
      "stateMutability": "view",
      "type": "function",
      "constant": true
    },
    {
      "inputs": [],
      "name": "getStartDate",
      "outputs": [
        {
          "internalType": "string",
          "name": "",
          "type": "string"
        }
      ],
      "stateMutability": "view",
      "type": "function",
      "constant": true
    },
    {
      "inputs": [],
      "name": "getEndDate",
      "outputs": [
        {
          "internalType": "string",
          "name": "",
          "type": "string"
        }
      ],
      "stateMutability": "view",
      "type": "function",
      "constant": true
    },
    {
      "inputs": [],
      "name": "getSuppliedServices",
      "outputs": [
        {
          "internalType": "string",
          "name": "",
          "type": "string"
        }
      ],
      "stateMutability": "view",
      "type": "function",
      "constant": true
    },
    {
      "inputs": [],
      "name": "getPetsAllowed",
      "outputs": [
        {
          "internalType": "string",
          "name": "",
          "type": "string"
        }
      ],
      "stateMutability": "view",
      "type": "function",
      "constant": true
    },
    {
      "inputs": [],
      "name": "getTenantName",
      "outputs": [
        {
          "internalType": "string",
          "name": "",
          "type": "string"
        }
      ],
      "stateMutability": "view",
      "type": "function",
      "constant": true
    },
    {
      "inputs": [],
      "name": "getTenantNumber",
      "outputs": [
        {
          "internalType": "string",
          "name": "",
          "type": "string"
        }
      ],
      "stateMutability": "view",
      "type": "function",
      "constant": true
    },
    {
      "inputs": [],
      "name": "getTenantStartDate",
      "outputs": [
        {
          "internalType": "string",
          "name": "",
          "type": "string"
        }
      ],
      "stateMutability": "view",
      "type": "function",
      "constant": true
    },
    {
      "inputs": [],
      "name": "getTenantEndDate",
      "outputs": [
        {
          "internalType": "string",
          "name": "",
          "type": "string"
        }
      ],
      "stateMutability": "view",
      "type": "function",
      "constant": true
    },
    {
      "inputs": [
        {
          "internalType": "address payable",
          "name": "_receiver",
          "type": "address"
        },
        {
          "internalType": "uint256",
          "name": "amount",
          "type": "uint256"
        }
      ],
      "name": "sendDeposit",
      "outputs": [],
      "stateMutability": "payable",
      "type": "function",
      "payable": true
    },
    {
      "inputs": [
        {
          "internalType": "address payable",
          "name": "_landlordAddress",
          "type": "address"
        }
      ],
      "name": "getLandlordBalance",
      "outputs": [
        {
          "internalType": "uint256",
          "name": "",
          "type": "uint256"
        }
      ],
      "stateMutability": "view",
      "type": "function",
      "constant": true
    },
    {
      "inputs": [
        {
          "internalType": "address payable",
          "name": "_tenantAddress",
          "type": "address"
        }
      ],
      "name": "getTenantBalance",
      "outputs": [
        {
          "internalType": "uint256",
          "name": "",
          "type": "uint256"
        }
      ],
      "stateMutability": "view",
      "type": "function",
      "constant": true
    },
    {
      "inputs": [
        {
          "internalType": "address payable",
          "name": "_landlord",
          "type": "address"
        },
        {
          "internalType": "string",
          "name": "amount",
          "type": "string"
        }
      ],
      "name": "requestDeposit",
      "outputs": [],
      "stateMutability": "payable",
      "type": "function",
      "payable": true
    },
    {
      "inputs": [
        {
          "internalType": "address payable",
          "name": "_landlord",
          "type": "address"
        }
      ],
      "name": "receiveRent",
      "outputs": [],
      "stateMutability": "payable",
      "type": "function",
      "payable": true
    },
    {
      "inputs": [
        {
          "internalType": "address payable",
          "name": "_receiver",
          "type": "address"
        },
        {
          "internalType": "string",
          "name": "amount",
          "type": "string"
        }
      ],
      "name": "endLease",
      "outputs": [],
      "stateMutability": "payable",
      "type": "function",
      "payable": true
    },
    {
      "inputs": [],
      "name": "getBalance",
      "outputs": [
        {
          "internalType": "uint256",
          "name": "",
          "type": "uint256"
        }
      ],
      "stateMutability": "view",
      "type": "function",
      "constant": true
    },
    {
      "inputs": [],
      "name": "rr",
      "outputs": [
        {
          "internalType": "uint256",
          "name": "",
          "type": "uint256"
        }
      ],
      "stateMutability": "view",
      "type": "function",
      "constant": true
    }
  ],
  "bytecode": "0x60806040527331248ef67b5a5afd0623b54dbfa467901818fc2c600d60006101000a81548173ffffffffffffffffffffffffffffffffffffffff021916908373ffffffffffffffffffffffffffffffffffffffff16021790555073df5d173d48ce72d3af0ab5c614bf7e25b36af6a6600e60006101000a81548173ffffffffffffffffffffffffffffffffffffffff021916908373ffffffffffffffffffffffffffffffffffffffff160217905550600d60009054906101000a900473ffffffffffffffffffffffffffffffffffffffff16600f60006101000a81548173ffffffffffffffffffffffffffffffffffffffff021916908373ffffffffffffffffffffffffffffffffffffffff160217905550600e60009054906101000a900473ffffffffffffffffffffffffffffffffffffffff16601060006101000a81548173ffffffffffffffffffffffffffffffffffffffff021916908373ffffffffffffffffffffffffffffffffffffffff1602179055503480156200018157600080fd5b506040518060400160405280600381526020017f52656e000000000000000000000000000000000000000000000000000000000081525060019080519060200190620001cf92919062000224565b506040518060400160405280600181526020017f3100000000000000000000000000000000000000000000000000000000000000815250600490805190602001906200021d92919062000224565b5062000339565b828054620002329062000303565b90600052602060002090601f016020900481019282620002565760008555620002a2565b82601f106200027157805160ff1916838001178555620002a2565b82800160010185558215620002a2579182015b82811115620002a157825182559160200191906001019062000284565b5b509050620002b19190620002b5565b5090565b5b80821115620002d0576000816000905550600101620002b6565b5090565b7f4e487b7100000000000000000000000000000000000000000000000000000000600052602260045260246000fd5b600060028204905060018216806200031c57607f821691505b60208210811415620003335762000332620002d4565b5b50919050565b611a6e80620003496000396000f3fe60806040526004361061016a5760003560e01c8063823cd098116100d1578063b69ef8a81161008a578063e35fd0c711610064578063e35fd0c71461051d578063ee2a4f3114610539578063f2c4769a14610555578063fd36f3381461058057610171565b8063b69ef8a81461049c578063c399ec88146104c7578063df77baf6146104f257610171565b8063823cd0981461039e57806395e59332146103c75780639abea44d146103f0578063a386c4101461041b578063a3be3d8214610446578063b13564881461047157610171565b8063209e0b4911610123578063209e0b49146102875780632bab9189146102a35780632cd847d2146102ce5780634b7eb085146102f957806366369c631461033657806378f305c61461037357610171565b806307a231571461017357806312065fe01461019e57806312539cc3146101c9578063145ef6e9146101f45780631bd951551461021f5780631c22bc521461025c57610171565b3661017157005b005b34801561017f57600080fd5b5061018861059c565b6040516101959190611274565b60405180910390f35b3480156101aa57600080fd5b506101b361062e565b6040516101c091906112af565b60405180910390f35b3480156101d557600080fd5b506101de610636565b6040516101eb91906112af565b60405180910390f35b34801561020057600080fd5b50610209610683565b6040516102169190611274565b60405180910390f35b34801561022b57600080fd5b5061024660048036038101906102419190611413565b610715565b60405161025391906112af565b60405180910390f35b34801561026857600080fd5b506102716107af565b60405161027e9190611274565b60405180910390f35b6102a1600480360381019061029c91906114ba565b610841565b005b3480156102af57600080fd5b506102b86108b3565b6040516102c59190611274565b60405180910390f35b3480156102da57600080fd5b506102e3610945565b6040516102f09190611274565b60405180910390f35b34801561030557600080fd5b50610320600480360381019061031b9190611516565b6109d7565b60405161032d91906112af565b60405180910390f35b34801561034257600080fd5b5061035d60048036038101906103589190611516565b6109f8565b60405161036a91906112af565b60405180910390f35b34801561037f57600080fd5b50610388610a19565b6040516103959190611274565b60405180910390f35b3480156103aa57600080fd5b506103c560048036038101906103c09190611543565b610aab565b005b3480156103d357600080fd5b506103ee60048036038101906103e9919061161a565b610b0d565b005b3480156103fc57600080fd5b50610405610be7565b6040516104129190611274565b60405180910390f35b34801561042757600080fd5b50610430610c79565b60405161043d9190611274565b60405180910390f35b34801561045257600080fd5b5061045b610d0b565b6040516104689190611274565b60405180910390f35b34801561047d57600080fd5b50610486610d9d565b6040516104939190611274565b60405180910390f35b3480156104a857600080fd5b506104b1610e2f565b6040516104be91906112af565b60405180910390f35b3480156104d357600080fd5b506104dc610e35565b6040516104e99190611274565b60405180910390f35b3480156104fe57600080fd5b50610507610ec7565b6040516105149190611274565b60405180910390f35b6105376004803603810190610532919061180c565b610f59565b005b610553600480360381019061054e91906114ba565b610fa4565b005b34801561056157600080fd5b5061056a611016565b6040516105779190611274565b60405180910390f35b61059a60048036038101906105959190611516565b6110a8565b005b6060600780546105ab9061187b565b80601f01602080910402602001604051908101604052809291908181526020018280546105d79061187b565b80156106245780601f106105f957610100808354040283529160200191610624565b820191906000526020600020905b81548152906001019060200180831161060757829003601f168201915b5050505050905090565b600047905090565b60008061064161062e565b9050600061064d610e35565b90506000670de0b6b3a764000061066383610715565b61066d91906118dc565b836106789190611936565b905080935050505090565b6060600180546106929061187b565b80601f01602080910402602001604051908101604052809291908181526020018280546106be9061187b565b801561070b5780601f106106e05761010080835404028352916020019161070b565b820191906000526020600020905b8154815290600101906020018083116106ee57829003601f168201915b5050505050905090565b6000808290506000809250600090505b81518110156107a85760008282815181106107435761074261196a565b5b602001015160f81c60f81b60f81c60ff16905060308110158015610768575060398111155b156107945760308161077a9190611936565b600a8561078791906118dc565b6107919190611999565b93505b5080806107a0906119ef565b915050610725565b5050919050565b6060600c80546107be9061187b565b80601f01602080910402602001604051908101604052809291908181526020018280546107ea9061187b565b80156108375780601f1061080c57610100808354040283529160200191610837565b820191906000526020600020905b81548152906001019060200180831161081a57829003601f168201915b5050505050905090565b600061084c82610715565b90506000670de0b6b3a76400008261086491906118dc565b90508373ffffffffffffffffffffffffffffffffffffffff166108fc829081150290604051600060405180830381858888f193505050501580156108ac573d6000803e3d6000fd5b5050505050565b6060600a80546108c29061187b565b80601f01602080910402602001604051908101604052809291908181526020018280546108ee9061187b565b801561093b5780601f106109105761010080835404028352916020019161093b565b820191906000526020600020905b81548152906001019060200180831161091e57829003601f168201915b5050505050905090565b6060600880546109549061187b565b80601f01602080910402602001604051908101604052809291908181526020018280546109809061187b565b80156109cd5780601f106109a2576101008083540402835291602001916109cd565b820191906000526020600020905b8154815290600101906020018083116109b057829003601f168201915b5050505050905090565b60008173ffffffffffffffffffffffffffffffffffffffff16319050919050565b60008173ffffffffffffffffffffffffffffffffffffffff16319050919050565b606060058054610a289061187b565b80601f0160208091040260200160405190810160405280929190818152602001828054610a549061187b565b8015610aa15780601f10610a7657610100808354040283529160200191610aa1565b820191906000526020600020905b815481529060010190602001808311610a8457829003601f168201915b5050505050905090565b8360099080519060200190610ac1929190611138565b5082600a9080519060200190610ad8929190611138565b5081600b9080519060200190610aef929190611138565b5080600c9080519060200190610b06929190611138565b5050505050565b8860019080519060200190610b23929190611138565b508760009080519060200190610b3a929190611138565b508660029080519060200190610b51929190611138565b508560039080519060200190610b68929190611138565b508460049080519060200190610b7f929190611138565b508360059080519060200190610b96929190611138565b508260069080519060200190610bad929190611138565b508160079080519060200190610bc4929190611138565b508060089080519060200190610bdb929190611138565b50505050505050505050565b606060038054610bf69061187b565b80601f0160208091040260200160405190810160405280929190818152602001828054610c229061187b565b8015610c6f5780601f10610c4457610100808354040283529160200191610c6f565b820191906000526020600020905b815481529060010190602001808311610c5257829003601f168201915b5050505050905090565b606060008054610c889061187b565b80601f0160208091040260200160405190810160405280929190818152602001828054610cb49061187b565b8015610d015780601f10610cd657610100808354040283529160200191610d01565b820191906000526020600020905b815481529060010190602001808311610ce457829003601f168201915b5050505050905090565b606060098054610d1a9061187b565b80601f0160208091040260200160405190810160405280929190818152602001828054610d469061187b565b8015610d935780601f10610d6857610100808354040283529160200191610d93565b820191906000526020600020905b815481529060010190602001808311610d7657829003601f168201915b5050505050905090565b606060068054610dac9061187b565b80601f0160208091040260200160405190810160405280929190818152602001828054610dd89061187b565b8015610e255780601f10610dfa57610100808354040283529160200191610e25565b820191906000526020600020905b815481529060010190602001808311610e0857829003601f168201915b5050505050905090565b60115481565b606060048054610e449061187b565b80601f0160208091040260200160405190810160405280929190818152602001828054610e709061187b565b8015610ebd5780601f10610e9257610100808354040283529160200191610ebd565b820191906000526020600020905b815481529060010190602001808311610ea057829003601f168201915b5050505050905090565b6060600b8054610ed69061187b565b80601f0160208091040260200160405190810160405280929190818152602001828054610f029061187b565b8015610f4f5780601f10610f2457610100808354040283529160200191610f4f565b820191906000526020600020905b815481529060010190602001808311610f3257829003601f168201915b5050505050905090565b8173ffffffffffffffffffffffffffffffffffffffff166108fc829081150290604051600060405180830381858888f19350505050158015610f9f573d6000803e3d6000fd5b505050565b6000610faf82610715565b90506000670de0b6b3a764000082610fc791906118dc565b90508373ffffffffffffffffffffffffffffffffffffffff166108fc829081150290604051600060405180830381858888f1935050505015801561100f573d6000803e3d6000fd5b5050505050565b6060600280546110259061187b565b80601f01602080910402602001604051908101604052809291908181526020018280546110519061187b565b801561109e5780601f106110735761010080835404028352916020019161109e565b820191906000526020600020905b81548152906001019060200180831161108157829003601f168201915b5050505050905090565b60006110b261062e565b905060006110be610e35565b90506000670de0b6b3a76400006110d483610715565b6110de91906118dc565b836110e99190611936565b90508373ffffffffffffffffffffffffffffffffffffffff166108fc829081150290604051600060405180830381858888f19350505050158015611131573d6000803e3d6000fd5b5050505050565b8280546111449061187b565b90600052602060002090601f01602090048101928261116657600085556111ad565b82601f1061117f57805160ff19168380011785556111ad565b828001600101855582156111ad579182015b828111156111ac578251825591602001919060010190611191565b5b5090506111ba91906111be565b5090565b5b808211156111d75760008160009055506001016111bf565b5090565b600081519050919050565b600082825260208201905092915050565b60005b838110156112155780820151818401526020810190506111fa565b83811115611224576000848401525b50505050565b6000601f19601f8301169050919050565b6000611246826111db565b61125081856111e6565b93506112608185602086016111f7565b6112698161122a565b840191505092915050565b6000602082019050818103600083015261128e818461123b565b905092915050565b6000819050919050565b6112a981611296565b82525050565b60006020820190506112c460008301846112a0565b92915050565b6000604051905090565b600080fd5b600080fd5b600080fd5b600080fd5b7f4e487b7100000000000000000000000000000000000000000000000000000000600052604160045260246000fd5b6113208261122a565b810181811067ffffffffffffffff8211171561133f5761133e6112e8565b5b80604052505050565b60006113526112ca565b905061135e8282611317565b919050565b600067ffffffffffffffff82111561137e5761137d6112e8565b5b6113878261122a565b9050602081019050919050565b82818337600083830152505050565b60006113b66113b184611363565b611348565b9050828152602081018484840111156113d2576113d16112e3565b5b6113dd848285611394565b509392505050565b600082601f8301126113fa576113f96112de565b5b813561140a8482602086016113a3565b91505092915050565b600060208284031215611429576114286112d4565b5b600082013567ffffffffffffffff811115611447576114466112d9565b5b611453848285016113e5565b91505092915050565b600073ffffffffffffffffffffffffffffffffffffffff82169050919050565b60006114878261145c565b9050919050565b6114978161147c565b81146114a257600080fd5b50565b6000813590506114b48161148e565b92915050565b600080604083850312156114d1576114d06112d4565b5b60006114df858286016114a5565b925050602083013567ffffffffffffffff811115611500576114ff6112d9565b5b61150c858286016113e5565b9150509250929050565b60006020828403121561152c5761152b6112d4565b5b600061153a848285016114a5565b91505092915050565b6000806000806080858703121561155d5761155c6112d4565b5b600085013567ffffffffffffffff81111561157b5761157a6112d9565b5b611587878288016113e5565b945050602085013567ffffffffffffffff8111156115a8576115a76112d9565b5b6115b4878288016113e5565b935050604085013567ffffffffffffffff8111156115d5576115d46112d9565b5b6115e1878288016113e5565b925050606085013567ffffffffffffffff811115611602576116016112d9565b5b61160e878288016113e5565b91505092959194509250565b60008060008060008060008060006101208a8c03121561163d5761163c6112d4565b5b60008a013567ffffffffffffffff81111561165b5761165a6112d9565b5b6116678c828d016113e5565b99505060208a013567ffffffffffffffff811115611688576116876112d9565b5b6116948c828d016113e5565b98505060408a013567ffffffffffffffff8111156116b5576116b46112d9565b5b6116c18c828d016113e5565b97505060608a013567ffffffffffffffff8111156116e2576116e16112d9565b5b6116ee8c828d016113e5565b96505060808a013567ffffffffffffffff81111561170f5761170e6112d9565b5b61171b8c828d016113e5565b95505060a08a013567ffffffffffffffff81111561173c5761173b6112d9565b5b6117488c828d016113e5565b94505060c08a013567ffffffffffffffff811115611769576117686112d9565b5b6117758c828d016113e5565b93505060e08a013567ffffffffffffffff811115611796576117956112d9565b5b6117a28c828d016113e5565b9250506101008a013567ffffffffffffffff8111156117c4576117c36112d9565b5b6117d08c828d016113e5565b9150509295985092959850929598565b6117e981611296565b81146117f457600080fd5b50565b600081359050611806816117e0565b92915050565b60008060408385031215611823576118226112d4565b5b6000611831858286016114a5565b9250506020611842858286016117f7565b9150509250929050565b7f4e487b7100000000000000000000000000000000000000000000000000000000600052602260045260246000fd5b6000600282049050600182168061189357607f821691505b602082108114156118a7576118a661184c565b5b50919050565b7f4e487b7100000000000000000000000000000000000000000000000000000000600052601160045260246000fd5b60006118e782611296565b91506118f283611296565b9250817fffffffffffffffffffffffffffffffffffffffffffffffffffffffffffffffff048311821515161561192b5761192a6118ad565b5b828202905092915050565b600061194182611296565b915061194c83611296565b92508282101561195f5761195e6118ad565b5b828203905092915050565b7f4e487b7100000000000000000000000000000000000000000000000000000000600052603260045260246000fd5b60006119a482611296565b91506119af83611296565b9250827fffffffffffffffffffffffffffffffffffffffffffffffffffffffffffffffff038211156119e4576119e36118ad565b5b828201905092915050565b60006119fa82611296565b91507fffffffffffffffffffffffffffffffffffffffffffffffffffffffffffffffff821415611a2d57611a2c6118ad565b5b60018201905091905056fea26469706673582212206d373f921285631b9839efdd701dceba5a08ccac588d803a3bf7bfcb985b9f1e64736f6c634300080a0033",
  "immutableReferences": {},
  "source": "// SPDX-License-Identifier: MIT\npragma solidity ^0.8.10;\n\n\ncontract MyContract {\n\n    string mobileNumber;\n    // string ownerName;\n    string ownerName;\n    string propertyAddress;\n    string weeklyRent;\n    string deposit;\n    string startDate;\n    string endDate;\n    string suppliedServices;\n    string petsAllowed;\n\n    string tenantName;\n    string tenantNumber;\n    string tenantStartDate;\n    string tenantEndDate;\n\n    // string landlordAddress;\n    // string tenantAddress;\n    address landlordAddress = 0x31248Ef67b5a5AFd0623B54dBfA467901818Fc2c;  // ********************** edit this\n    address tenantAddress = 0xdF5d173d48cE72d3AF0AB5c614BF7e25B36Af6a6; // ************************ edit this \n    address payable landlordAddressPayable = payable(landlordAddress);\n    address payable tenantAddressPayable = payable(tenantAddress);\n\n\n    constructor() {\n        // value = \"myValue\";\n        ownerName = \"Ren\";\n        deposit = \"1\";\n        \n    }\n    fallback() external payable {}\n    receive() external payable {\n        // custom function code\n    }\n\n    function stringToUint(string memory s) public pure returns (uint result) {\n        bytes memory b = bytes(s);\n        uint i;\n        result = 0;\n        for (i = 0; i < b.length; i++) {\n            uint c = uint(uint8(b[i]));\n            // uint c = uint(b[i]);\n            if (c >= 48 && c <= 57) {\n                result = result * 10 + (c - 48);\n            }\n        }\n    }\n\n    function set(string memory _ownerName, string memory _mobileNumber, string memory _propertyAddress, string memory _weeklyRent, string memory _deposit, string memory _startDate,\n                string memory _endDate, string memory _suppliedServices, string memory _petsAllowed) public {\n        ownerName = _ownerName;\n        mobileNumber = _mobileNumber;\n        propertyAddress = _propertyAddress;\n        weeklyRent = _weeklyRent;\n        deposit = _deposit;\n        startDate = _startDate;\n        endDate = _endDate;\n        suppliedServices = _suppliedServices;\n        petsAllowed = _petsAllowed;\n    }\n\n    function setTenant(string memory newName, string memory newNumber, string memory newStart, string memory newEnd) public {\n        tenantName = newName;\n        tenantNumber = newNumber;\n        tenantStartDate = newStart;\n        tenantEndDate = newEnd;\n        //call send deposit here \n        // string memory depositSet = getDeposit();\n        // uint depositUint = stringToUint(depositSet);\n        // sendDeposit(landlordAddressPayable, depositUint);\n    }\n\n\n    function getMobileNumber() public view returns(string memory) {\n        return mobileNumber;\n    }\n\n\n    function getOwnerName() public view returns (string memory) {\n        return ownerName;\t\n    }\n\n\n    function getPropertyAddress() public view returns (string memory) {\n        return propertyAddress;\t\n    }\n    \n    function getWeeklyRent() public view returns(string memory) {\n        return weeklyRent;\n    }\n    function getDeposit() public view returns(string memory) {\n        return deposit;\n    }\n    function getStartDate() public view returns(string memory) {\n        return startDate;\n    }\n        function getEndDate() public view returns(string memory) {\n        return endDate;\n    }\n\n    function getSuppliedServices() public view returns (string memory) {\n        return suppliedServices;\n    }\n\n    function getPetsAllowed() public view returns (string memory) {\n        return petsAllowed;\n    }\n\n    function getTenantName() public view returns (string memory) {\n        return tenantName;\n    }\n\n    function getTenantNumber() public view returns (string memory) {\n        return tenantNumber;\n    }\n\n    function getTenantStartDate() public view returns (string memory) {\n        return tenantStartDate;\n    }\n\n        function getTenantEndDate() public view returns (string memory) {\n        return tenantEndDate;\n    }\n\n        uint256 public balance;\n\n\n\n// Tenant functions\n\n    // function () public payable {}\n\n    function sendDeposit(address payable _receiver, uint amount) payable public {\n         _receiver.transfer(amount);\n    }\n\n    function getLandlordBalance(address payable _landlordAddress) public view returns (uint) {\n        return _landlordAddress.balance;\n    }\n\n    function getTenantBalance(address payable _tenantAddress) public view returns (uint) {\n        return _tenantAddress.balance;\n    }\n\n    // landlord functions\n\n    function requestDeposit(address payable _landlord, string memory amount) payable public {\n                //call send deposit here \n        // string memory depositSet = getDeposit();\n        uint depositUintinWei = stringToUint(amount);\n        uint depositUint = depositUintinWei*1000000000000000000;\n        _landlord.transfer(depositUint);\n    }\n\n    function receiveRent(address payable _landlord) payable public {\n        uint balanceInContract = getBalance();\n        string memory depositInContract = getDeposit();\n\n        uint rentToCollect = balanceInContract - stringToUint(depositInContract)*1000000000000000000;\n        // uint rentUint = rentToCollect*1000000000000000000;\n        _landlord.transfer(rentToCollect);\n    }\n\n\n    function endLease(address payable _receiver, string memory amount) payable public {\n        uint depositUintinWei = stringToUint(amount);\n        uint depositUint = depositUintinWei*1000000000000000000;\n        _receiver.transfer(depositUint);\n    }\n\n    \n\n\n\n// testing \n\n    function getBalance() public view returns(uint){\n        return address(this).balance;\n    }\n\n    function rr() public view returns(uint) {\n        uint balanceInContract = getBalance();\n        string memory depositInContract = getDeposit();\n        uint rentToCollect = balanceInContract - stringToUint(depositInContract)*1000000000000000000;\n        return rentToCollect;\n    }\n\n\n\n\n\n\n//   fallback() external payable {\n//     emit seeSender(msg.sender, msg.value);\n//     emit showNum(num);\n//     num += 1;\n//   }\n\n\n\n\n\n\n\n}",
  "sourcePath": "/Users/yuxuanli/mydapp/contracts/MyContract.sol",
  "compiler": {
    "name": "solc",
    "version": "0.8.10+commit.fc410830.Emscripten.clang"
  },
  "schemaVersion": "3.4.3",
  "updatedAt": "2022-05-02T08:33:07.967Z",
  "networkType": "ethereum",
  "devdoc": {
    "kind": "dev",
    "methods": {},
    "version": 1
  },
  "userdoc": {
    "kind": "user",
    "methods": {},
    "version": 1
  }
}