{
  "contractName": "MyContract",
  "abi": [
    {
      "inputs": [],
      "stateMutability": "nonpayable",
      "type": "constructor"
    },
    {
      "inputs": [],
      "name": "get",
      "outputs": [
        {
          "internalType": "string",
          "name": "",
          "type": "string"
        }
      ],
      "stateMutability": "view",
      "type": "function",
      "constant": true
    },
    {
      "inputs": [
        {
          "internalType": "string",
          "name": "_value",
          "type": "string"
        }
      ],
      "name": "set",
      "outputs": [],
      "stateMutability": "nonpayable",
      "type": "function"
    },
    {
      "inputs": [],
      "name": "getMobileNumber",
      "outputs": [
        {
          "internalType": "int256",
          "name": "",
          "type": "int256"
        }
      ],
      "stateMutability": "view",
      "type": "function",
      "constant": true
    },
    {
      "inputs": [
        {
          "internalType": "int256",
          "name": "_mobileNumber",
          "type": "int256"
        }
      ],
      "name": "setMobileNumber",
      "outputs": [],
      "stateMutability": "nonpayable",
      "type": "function"
    },
    {
      "inputs": [],
      "name": "getOwnerName",
      "outputs": [
        {
          "internalType": "string",
          "name": "",
          "type": "string"
        }
      ],
      "stateMutability": "view",
      "type": "function",
      "constant": true
    },
    {
      "inputs": [
        {
          "internalType": "string",
          "name": "_ownerName",
          "type": "string"
        }
      ],
      "name": "setOwnerName",
      "outputs": [],
      "stateMutability": "nonpayable",
      "type": "function"
    },
    {
      "inputs": [],
      "name": "getPropertyAddress",
      "outputs": [
        {
          "internalType": "string",
          "name": "",
          "type": "string"
        }
      ],
      "stateMutability": "view",
      "type": "function",
      "constant": true
    },
    {
      "inputs": [],
      "name": "getWeeklyRent",
      "outputs": [
        {
          "internalType": "int256",
          "name": "",
          "type": "int256"
        }
      ],
      "stateMutability": "view",
      "type": "function",
      "constant": true
    },
    {
      "inputs": [],
      "name": "getDeposit",
      "outputs": [
        {
          "internalType": "int256",
          "name": "",
          "type": "int256"
        }
      ],
      "stateMutability": "view",
      "type": "function",
      "constant": true
    },
    {
      "inputs": [],
      "name": "getStartDate",
      "outputs": [
        {
          "internalType": "int256",
          "name": "",
          "type": "int256"
        }
      ],
      "stateMutability": "view",
      "type": "function",
      "constant": true
    },
    {
      "inputs": [],
      "name": "getEndDate",
      "outputs": [
        {
          "internalType": "int256",
          "name": "",
          "type": "int256"
        }
      ],
      "stateMutability": "view",
      "type": "function",
      "constant": true
    }
  ],
  "bytecode": "0x608060405234801561001057600080fd5b506040518060400160405280600781526020017f6d7956616c7565000000000000000000000000000000000000000000000000008152506000908051906020019061005c9291906100b6565b506040518060400160405280600381526020017f52656e0000000000000000000000000000000000000000000000000000000000815250600290805190602001906100a89291906100b6565b50607b6001819055506101ba565b8280546100c290610188565b90600052602060002090601f0160209004810192826100e4576000855561012b565b82601f106100fd57805160ff191683800117855561012b565b8280016001018555821561012b579182015b8281111561012a57825182559160200191906001019061010f565b5b509050610138919061013c565b5090565b5b8082111561015557600081600090555060010161013d565b5090565b7f4e487b7100000000000000000000000000000000000000000000000000000000600052602260045260246000fd5b600060028204905060018216806101a057607f821691505b602082108114156101b4576101b3610159565b5b50919050565b61082c806101c96000396000f3fe608060405234801561001057600080fd5b50600436106100a95760003560e01c806378f305c61161007157806378f305c61461013e5780639abea44d1461015c578063a386c4101461017a578063b135648814610198578063c399ec88146101b6578063f2c4769a146101d4576100a9565b80630ff245bc146100ae578063145ef6e9146100ca578063295795e2146100e85780634ed3885e146101045780636d4ce63c14610120575b600080fd5b6100c860048036038101906100c39190610505565b6101f2565b005b6100d26101fc565b6040516100df91906105cb565b60405180910390f35b61010260048036038101906100fd9190610722565b61028e565b005b61011e60048036038101906101199190610722565b6102a8565b005b6101286102c2565b60405161013591906105cb565b60405180910390f35b610146610354565b604051610153919061077a565b60405180910390f35b61016461035e565b604051610171919061077a565b60405180910390f35b610182610368565b60405161018f919061077a565b60405180910390f35b6101a0610372565b6040516101ad919061077a565b60405180910390f35b6101be61037c565b6040516101cb919061077a565b60405180910390f35b6101dc610386565b6040516101e991906105cb565b60405180910390f35b8060018190555050565b60606002805461020b906107c4565b80601f0160208091040260200160405190810160405280929190818152602001828054610237906107c4565b80156102845780601f1061025957610100808354040283529160200191610284565b820191906000526020600020905b81548152906001019060200180831161026757829003601f168201915b5050505050905090565b80600290805190602001906102a4929190610418565b5050565b80600090805190602001906102be929190610418565b5050565b6060600080546102d1906107c4565b80601f01602080910402602001604051908101604052809291908181526020018280546102fd906107c4565b801561034a5780601f1061031f5761010080835404028352916020019161034a565b820191906000526020600020905b81548152906001019060200180831161032d57829003601f168201915b5050505050905090565b6000600654905090565b6000600454905090565b6000600154905090565b6000600754905090565b6000600554905090565b606060038054610395906107c4565b80601f01602080910402602001604051908101604052809291908181526020018280546103c1906107c4565b801561040e5780601f106103e35761010080835404028352916020019161040e565b820191906000526020600020905b8154815290600101906020018083116103f157829003601f168201915b5050505050905090565b828054610424906107c4565b90600052602060002090601f016020900481019282610446576000855561048d565b82601f1061045f57805160ff191683800117855561048d565b8280016001018555821561048d579182015b8281111561048c578251825591602001919060010190610471565b5b50905061049a919061049e565b5090565b5b808211156104b757600081600090555060010161049f565b5090565b6000604051905090565b600080fd5b600080fd5b6000819050919050565b6104e2816104cf565b81146104ed57600080fd5b50565b6000813590506104ff816104d9565b92915050565b60006020828403121561051b5761051a6104c5565b5b6000610529848285016104f0565b91505092915050565b600081519050919050565b600082825260208201905092915050565b60005b8381101561056c578082015181840152602081019050610551565b8381111561057b576000848401525b50505050565b6000601f19601f8301169050919050565b600061059d82610532565b6105a7818561053d565b93506105b781856020860161054e565b6105c081610581565b840191505092915050565b600060208201905081810360008301526105e58184610592565b905092915050565b600080fd5b600080fd5b7f4e487b7100000000000000000000000000000000000000000000000000000000600052604160045260246000fd5b61062f82610581565b810181811067ffffffffffffffff8211171561064e5761064d6105f7565b5b80604052505050565b60006106616104bb565b905061066d8282610626565b919050565b600067ffffffffffffffff82111561068d5761068c6105f7565b5b61069682610581565b9050602081019050919050565b82818337600083830152505050565b60006106c56106c084610672565b610657565b9050828152602081018484840111156106e1576106e06105f2565b5b6106ec8482856106a3565b509392505050565b600082601f830112610709576107086105ed565b5b81356107198482602086016106b2565b91505092915050565b600060208284031215610738576107376104c5565b5b600082013567ffffffffffffffff811115610756576107556104ca565b5b610762848285016106f4565b91505092915050565b610774816104cf565b82525050565b600060208201905061078f600083018461076b565b92915050565b7f4e487b7100000000000000000000000000000000000000000000000000000000600052602260045260246000fd5b600060028204905060018216806107dc57607f821691505b602082108114156107f0576107ef610795565b5b5091905056fea2646970667358221220ee45c1d13f890cb499a8426a668a8d03459797cd6a88461931441cd81545021e64736f6c634300080a0033",
  "immutableReferences": {},
  "source": "// SPDX-License-Identifier: MIT\npragma solidity ^0.8.10;\n\n// MyContract\ncontract MyContract {\n\n    // value\n    string value;\n    int mobileNumber;\n    // string ownerName;\n    string ownerName;\n    string peropertyAddress;\n    int weeklyRent;\n    int deposit;\n    int startDate;\n    int endDate;\n    string suppliedServices;\n    bool petsAllowed;\n    \n\n\n    // \n    // public\n    // valuemyValue\n    constructor() {\n        value = \"myValue\";\n        ownerName = \"Ren\";\n        mobileNumber = 123;\n        \n    }\n\n    // public\n    // view\n    function get() public view returns(string memory ) {\n        return value;\n    }\n\n    // public\n    function set(string memory _value) public {\n        value = _value;\n    }\n\n\n    function getMobileNumber() public view returns(int) {\n        return mobileNumber;\n    }\n\n    function setMobileNumber(int _mobileNumber) public {\n        mobileNumber = _mobileNumber;\n    }\n\n    function getOwnerName() public view returns (string memory) {\n        return ownerName;\t\n    }\n\n    function setOwnerName(string memory _ownerName) public {\n        ownerName = _ownerName;\n    }\n\n    function getPropertyAddress() public view returns (string memory) {\n        return peropertyAddress;\t\n    }\n    \n    function getWeeklyRent() public view returns(int) {\n        return weeklyRent;\n    }\n    function getDeposit() public view returns(int) {\n        return deposit;\n    }\n    function getStartDate() public view returns(int) {\n        return startDate;\n    }\n        function getEndDate() public view returns(int) {\n        return endDate;\n    }\n\n    // function setDetails(string memory setOwnerName, int setMobileNumber, string memory setPropertyAddress, int setWeeklyRent, int setDeposit, uint setStartDate, uint setEndDate, string memory setSuppliedServices, bool setPetsAllowed) public payable {\n    //     ownerName = setOwnerName;\n    //     mobileNumber = setMobileNumber;\n    //     peropertyAddress = setPropertyAddress;\n    //     weeklyRent = setWeeklyRent;\n    //     deposit = setDeposit;\n    //     startDate = setStartDate;\n    //     endDate = setEndDate;\n    //     suppliedServices = setSuppliedServices;\n    //     petsAllowed = setPetsAllowed;\n\n    // }\n}",
  "sourcePath": "/Users/yuxuanli/mydapp/contracts/MyContract.sol",
  "compiler": {
    "name": "solc",
    "version": "0.8.10+commit.fc410830.Emscripten.clang"
  },
  "schemaVersion": "3.4.3",
  "updatedAt": "2022-04-04T08:34:26.609Z",
  "networkType": "ethereum",
  "devdoc": {
    "kind": "dev",
    "methods": {},
    "version": 1
  },
  "userdoc": {
    "kind": "user",
    "methods": {},
    "version": 1
  }
}