{
  "contractName": "MyContract",
  "abi": [
    {
      "inputs": [],
      "stateMutability": "nonpayable",
      "type": "constructor"
    },
    {
      "anonymous": false,
      "inputs": [
        {
          "indexed": false,
          "internalType": "address",
          "name": "addy",
          "type": "address"
        },
        {
          "indexed": false,
          "internalType": "uint256",
          "name": "value",
          "type": "uint256"
        }
      ],
      "name": "seeSender",
      "type": "event"
    },
    {
      "anonymous": false,
      "inputs": [
        {
          "indexed": false,
          "internalType": "uint256",
          "name": "num",
          "type": "uint256"
        }
      ],
      "name": "showNum",
      "type": "event"
    },
    {
      "stateMutability": "payable",
      "type": "fallback",
      "payable": true
    },
    {
      "inputs": [],
      "name": "balance",
      "outputs": [
        {
          "internalType": "uint256",
          "name": "",
          "type": "uint256"
        }
      ],
      "stateMutability": "view",
      "type": "function",
      "constant": true
    },
    {
      "inputs": [
        {
          "internalType": "string",
          "name": "s",
          "type": "string"
        }
      ],
      "name": "stringToUint",
      "outputs": [
        {
          "internalType": "uint256",
          "name": "result",
          "type": "uint256"
        }
      ],
      "stateMutability": "pure",
      "type": "function",
      "constant": true
    },
    {
      "inputs": [
        {
          "internalType": "string",
          "name": "_ownerName",
          "type": "string"
        },
        {
          "internalType": "string",
          "name": "_mobileNumber",
          "type": "string"
        },
        {
          "internalType": "string",
          "name": "_propertyAddress",
          "type": "string"
        },
        {
          "internalType": "string",
          "name": "_weeklyRent",
          "type": "string"
        },
        {
          "internalType": "string",
          "name": "_deposit",
          "type": "string"
        },
        {
          "internalType": "string",
          "name": "_startDate",
          "type": "string"
        },
        {
          "internalType": "string",
          "name": "_endDate",
          "type": "string"
        },
        {
          "internalType": "string",
          "name": "_suppliedServices",
          "type": "string"
        },
        {
          "internalType": "string",
          "name": "_petsAllowed",
          "type": "string"
        }
      ],
      "name": "set",
      "outputs": [],
      "stateMutability": "nonpayable",
      "type": "function"
    },
    {
      "inputs": [
        {
          "internalType": "string",
          "name": "newName",
          "type": "string"
        },
        {
          "internalType": "string",
          "name": "newNumber",
          "type": "string"
        },
        {
          "internalType": "string",
          "name": "newStart",
          "type": "string"
        },
        {
          "internalType": "string",
          "name": "newEnd",
          "type": "string"
        }
      ],
      "name": "setTenant",
      "outputs": [],
      "stateMutability": "nonpayable",
      "type": "function"
    },
    {
      "inputs": [],
      "name": "getMobileNumber",
      "outputs": [
        {
          "internalType": "string",
          "name": "",
          "type": "string"
        }
      ],
      "stateMutability": "view",
      "type": "function",
      "constant": true
    },
    {
      "inputs": [],
      "name": "getOwnerName",
      "outputs": [
        {
          "internalType": "string",
          "name": "",
          "type": "string"
        }
      ],
      "stateMutability": "view",
      "type": "function",
      "constant": true
    },
    {
      "inputs": [],
      "name": "getPropertyAddress",
      "outputs": [
        {
          "internalType": "string",
          "name": "",
          "type": "string"
        }
      ],
      "stateMutability": "view",
      "type": "function",
      "constant": true
    },
    {
      "inputs": [],
      "name": "getWeeklyRent",
      "outputs": [
        {
          "internalType": "string",
          "name": "",
          "type": "string"
        }
      ],
      "stateMutability": "view",
      "type": "function",
      "constant": true
    },
    {
      "inputs": [],
      "name": "getDeposit",
      "outputs": [
        {
          "internalType": "string",
          "name": "",
          "type": "string"
        }
      ],
      "stateMutability": "view",
      "type": "function",
      "constant": true
    },
    {
      "inputs": [],
      "name": "getStartDate",
      "outputs": [
        {
          "internalType": "string",
          "name": "",
          "type": "string"
        }
      ],
      "stateMutability": "view",
      "type": "function",
      "constant": true
    },
    {
      "inputs": [],
      "name": "getEndDate",
      "outputs": [
        {
          "internalType": "string",
          "name": "",
          "type": "string"
        }
      ],
      "stateMutability": "view",
      "type": "function",
      "constant": true
    },
    {
      "inputs": [],
      "name": "getSuppliedServices",
      "outputs": [
        {
          "internalType": "string",
          "name": "",
          "type": "string"
        }
      ],
      "stateMutability": "view",
      "type": "function",
      "constant": true
    },
    {
      "inputs": [],
      "name": "getPetsAllowed",
      "outputs": [
        {
          "internalType": "string",
          "name": "",
          "type": "string"
        }
      ],
      "stateMutability": "view",
      "type": "function",
      "constant": true
    },
    {
      "inputs": [],
      "name": "getTenantName",
      "outputs": [
        {
          "internalType": "string",
          "name": "",
          "type": "string"
        }
      ],
      "stateMutability": "view",
      "type": "function",
      "constant": true
    },
    {
      "inputs": [],
      "name": "getTenantNumber",
      "outputs": [
        {
          "internalType": "string",
          "name": "",
          "type": "string"
        }
      ],
      "stateMutability": "view",
      "type": "function",
      "constant": true
    },
    {
      "inputs": [],
      "name": "getTenantStartDate",
      "outputs": [
        {
          "internalType": "string",
          "name": "",
          "type": "string"
        }
      ],
      "stateMutability": "view",
      "type": "function",
      "constant": true
    },
    {
      "inputs": [],
      "name": "getTenantEndDate",
      "outputs": [
        {
          "internalType": "string",
          "name": "",
          "type": "string"
        }
      ],
      "stateMutability": "view",
      "type": "function",
      "constant": true
    },
    {
      "inputs": [
        {
          "internalType": "address payable",
          "name": "_receiver",
          "type": "address"
        },
        {
          "internalType": "uint256",
          "name": "amount",
          "type": "uint256"
        }
      ],
      "name": "sendDeposit",
      "outputs": [],
      "stateMutability": "payable",
      "type": "function",
      "payable": true
    },
    {
      "inputs": [
        {
          "internalType": "address payable",
          "name": "_sender",
          "type": "address"
        },
        {
          "internalType": "uint256",
          "name": "amount",
          "type": "uint256"
        }
      ],
      "name": "returnDeposit",
      "outputs": [],
      "stateMutability": "payable",
      "type": "function",
      "payable": true
    },
    {
      "inputs": [
        {
          "internalType": "uint256",
          "name": "amount",
          "type": "uint256"
        }
      ],
      "name": "payDeposit",
      "outputs": [],
      "stateMutability": "payable",
      "type": "function",
      "payable": true
    },
    {
      "inputs": [
        {
          "internalType": "address payable",
          "name": "_landlordAddress",
          "type": "address"
        }
      ],
      "name": "getLandlordBalance",
      "outputs": [
        {
          "internalType": "uint256",
          "name": "",
          "type": "uint256"
        }
      ],
      "stateMutability": "view",
      "type": "function",
      "constant": true
    },
    {
      "inputs": [
        {
          "internalType": "address payable",
          "name": "_tenantAddress",
          "type": "address"
        }
      ],
      "name": "getTenantBalance",
      "outputs": [
        {
          "internalType": "uint256",
          "name": "",
          "type": "uint256"
        }
      ],
      "stateMutability": "view",
      "type": "function",
      "constant": true
    },
    {
      "inputs": [],
      "name": "getBalance",
      "outputs": [
        {
          "internalType": "uint256",
          "name": "",
          "type": "uint256"
        }
      ],
      "stateMutability": "view",
      "type": "function",
      "constant": true
    },
    {
      "inputs": [
        {
          "internalType": "address payable",
          "name": "_recipient",
          "type": "address"
        },
        {
          "internalType": "uint256",
          "name": "_amount",
          "type": "uint256"
        }
      ],
      "name": "transferAmount",
      "outputs": [],
      "stateMutability": "payable",
      "type": "function",
      "payable": true
    },
    {
      "inputs": [],
      "name": "blc",
      "outputs": [
        {
          "internalType": "uint256",
          "name": "",
          "type": "uint256"
        }
      ],
      "stateMutability": "view",
      "type": "function",
      "constant": true
    },
    {
      "inputs": [],
      "name": "blc2",
      "outputs": [
        {
          "internalType": "uint256",
          "name": "",
          "type": "uint256"
        }
      ],
      "stateMutability": "view",
      "type": "function",
      "constant": true
    },
    {
      "inputs": [],
      "name": "blc3",
      "outputs": [
        {
          "internalType": "uint256",
          "name": "",
          "type": "uint256"
        }
      ],
      "stateMutability": "view",
      "type": "function",
      "constant": true
    },
    {
      "inputs": [],
      "name": "blc4",
      "outputs": [
        {
          "internalType": "uint256",
          "name": "",
          "type": "uint256"
        }
      ],
      "stateMutability": "view",
      "type": "function",
      "constant": true
    },
    {
      "inputs": [],
      "name": "printNum",
      "outputs": [
        {
          "internalType": "uint256",
          "name": "y",
          "type": "uint256"
        }
      ],
      "stateMutability": "nonpayable",
      "type": "function"
    },
    {
      "inputs": [],
      "name": "printValue",
      "outputs": [
        {
          "internalType": "uint256",
          "name": "y",
          "type": "uint256"
        }
      ],
      "stateMutability": "nonpayable",
      "type": "function"
    }
  ],
  "bytecode": "0x60806040527312f38f0d6069af8cee15b3eb046fb3fa76413325600d60006101000a81548173ffffffffffffffffffffffffffffffffffffffff021916908373ffffffffffffffffffffffffffffffffffffffff16021790555073e31934c4161f87585ddbb2433645e7823f13b3dc600e60006101000a81548173ffffffffffffffffffffffffffffffffffffffff021916908373ffffffffffffffffffffffffffffffffffffffff160217905550600d60009054906101000a900473ffffffffffffffffffffffffffffffffffffffff16600f60006101000a81548173ffffffffffffffffffffffffffffffffffffffff021916908373ffffffffffffffffffffffffffffffffffffffff160217905550600e60009054906101000a900473ffffffffffffffffffffffffffffffffffffffff16601060006101000a81548173ffffffffffffffffffffffffffffffffffffffff021916908373ffffffffffffffffffffffffffffffffffffffff16021790555034801561018057600080fd5b5060456012819055506000601381905550611c4c806101a06000396000f3fe6080604052600436106101d15760003560e01c8063823cd098116100f7578063b9ca5d0411610095578063d7081e0311610064578063d7081e03146106d2578063df77baf6146106ee578063e35fd0c714610719578063f2c4769a14610735576101d2565b8063b9ca5d0414610635578063c399ec8814610660578063d28c4d601461068b578063d29709fb146106b6576101d2565b8063a386c410116100d1578063a386c41014610589578063a3be3d82146105b4578063b1356488146105df578063b69ef8a81461060a576101d2565b8063823cd0981461050c57806395e59332146105355780639abea44d1461055e576101d2565b80632bab91891161016f57806366369c631161013e57806366369c631461044e57806369faae561461048b57806378f305c6146104b65780638067271a146104e1576101d2565b80632bab9189146103905780632cd847d2146103bb5780634b7eb085146103e65780634d1cbb6614610423576101d2565b80631bd95155116101ab5780631bd95155146102e15780631c0f72e11461031e5780631c22bc521461034957806328cd3f1814610374576101d2565b806307a231571461026057806312065fe01461028b578063145ef6e9146102b6576101d2565b5b7fd12227671e623657b1b61a7d389cb45ee0759918f8d1bdf2d41d3df7410e939033346040516102039291906113f8565b60405180910390a17fd7a8b273ecc27fa489b50c5d78b9dfcc80f03fbe664a7c4eed57965f91993b9960125460405161023c9190611421565b60405180910390a1600160126000828254610257919061146b565b92505081905550005b34801561026c57600080fd5b50610275610760565b604051610282919061155a565b60405180910390f35b34801561029757600080fd5b506102a06107f2565b6040516102ad9190611421565b60405180910390f35b3480156102c257600080fd5b506102cb6107fa565b6040516102d8919061155a565b60405180910390f35b3480156102ed57600080fd5b50610308600480360381019061030391906116c5565b61088c565b6040516103159190611421565b60405180910390f35b34801561032a57600080fd5b50610333610926565b6040516103409190611421565b60405180910390f35b34801561035557600080fd5b5061035e61095e565b60405161036b919061155a565b60405180910390f35b61038e6004803603810190610389919061173a565b6109f0565b005b34801561039c57600080fd5b506103a56109ff565b6040516103b2919061155a565b60405180910390f35b3480156103c757600080fd5b506103d0610a91565b6040516103dd919061155a565b60405180910390f35b3480156103f257600080fd5b5061040d600480360381019061040891906117a5565b610b23565b60405161041a9190611421565b60405180910390f35b34801561042f57600080fd5b50610438610b44565b6040516104459190611421565b60405180910390f35b34801561045a57600080fd5b50610475600480360381019061047091906117a5565b610b87565b6040516104829190611421565b60405180910390f35b34801561049757600080fd5b506104a0610ba8565b6040516104ad9190611421565b60405180910390f35b3480156104c257600080fd5b506104cb610bb5565b6040516104d8919061155a565b60405180910390f35b3480156104ed57600080fd5b506104f6610c47565b6040516105039190611421565b60405180910390f35b34801561051857600080fd5b50610533600480360381019061052e91906117d2565b610c51565b005b34801561054157600080fd5b5061055c600480360381019061055791906118a9565b610cfa565b005b34801561056a57600080fd5b50610573610dd4565b604051610580919061155a565b60405180910390f35b34801561059557600080fd5b5061059e610e66565b6040516105ab919061155a565b60405180910390f35b3480156105c057600080fd5b506105c9610ef8565b6040516105d6919061155a565b60405180910390f35b3480156105eb57600080fd5b506105f4610f8a565b604051610601919061155a565b60405180910390f35b34801561061657600080fd5b5061061f61101c565b60405161062c9190611421565b60405180910390f35b34801561064157600080fd5b5061064a611022565b6040516106579190611421565b60405180910390f35b34801561066c57600080fd5b50610675611032565b604051610682919061155a565b60405180910390f35b34801561069757600080fd5b506106a06110c4565b6040516106ad9190611421565b60405180910390f35b6106d060048036038101906106cb9190611a6f565b6110f6565b005b6106ec60048036038101906106e79190611a6f565b611141565b005b3480156106fa57600080fd5b5061070361118c565b604051610710919061155a565b60405180910390f35b610733600480360381019061072e9190611a6f565b61121e565b005b34801561074157600080fd5b5061074a611269565b604051610757919061155a565b60405180910390f35b60606007805461076f90611ade565b80601f016020809104026020016040519081016040528092919081815260200182805461079b90611ade565b80156107e85780601f106107bd576101008083540402835291602001916107e8565b820191906000526020600020905b8154815290600101906020018083116107cb57829003601f168201915b5050505050905090565b600047905090565b60606001805461080990611ade565b80601f016020809104026020016040519081016040528092919081815260200182805461083590611ade565b80156108825780601f1061085757610100808354040283529160200191610882565b820191906000526020600020905b81548152906001019060200180831161086557829003601f168201915b5050505050905090565b6000808290506000809250600090505b815181101561091f5760008282815181106108ba576108b9611b10565b5b602001015160f81c60f81b60f81c60ff169050603081101580156108df575060398111155b1561090b576030816108f19190611b3f565b600a856108fe9190611b73565b610908919061146b565b93505b50808061091790611bcd565b91505061089c565b5050919050565b60008073e31934c4161f87585ddbb2433645e7823f13b3dc73ffffffffffffffffffffffffffffffffffffffff163190508091505090565b6060600c805461096d90611ade565b80601f016020809104026020016040519081016040528092919081815260200182805461099990611ade565b80156109e65780601f106109bb576101008083540402835291602001916109e6565b820191906000526020600020905b8154815290600101906020018083116109c957829003601f168201915b5050505050905090565b8034146109fc57600080fd5b50565b6060600a8054610a0e90611ade565b80601f0160208091040260200160405190810160405280929190818152602001828054610a3a90611ade565b8015610a875780601f10610a5c57610100808354040283529160200191610a87565b820191906000526020600020905b815481529060010190602001808311610a6a57829003601f168201915b5050505050905090565b606060088054610aa090611ade565b80601f0160208091040260200160405190810160405280929190818152602001828054610acc90611ade565b8015610b195780601f10610aee57610100808354040283529160200191610b19565b820191906000526020600020905b815481529060010190602001808311610afc57829003601f168201915b5050505050905090565b60008173ffffffffffffffffffffffffffffffffffffffff16319050919050565b60007fd7a8b273ecc27fa489b50c5d78b9dfcc80f03fbe664a7c4eed57965f91993b99601254604051610b779190611421565b60405180910390a1601254905090565b60008173ffffffffffffffffffffffffffffffffffffffff16319050919050565b6000804790508091505090565b606060058054610bc490611ade565b80601f0160208091040260200160405190810160405280929190818152602001828054610bf090611ade565b8015610c3d5780601f10610c1257610100808354040283529160200191610c3d565b820191906000526020600020905b815481529060010190602001808311610c2057829003601f168201915b5050505050905090565b6000601354905090565b8360099080519060200190610c679291906112fb565b5082600a9080519060200190610c7e9291906112fb565b5081600b9080519060200190610c959291906112fb565b5080600c9080519060200190610cac9291906112fb565b506000610cb7611032565b90506000610cc48261088c565b9050610cf2600f60009054906101000a900473ffffffffffffffffffffffffffffffffffffffff168261121e565b505050505050565b8860019080519060200190610d109291906112fb565b508760009080519060200190610d279291906112fb565b508660029080519060200190610d3e9291906112fb565b508560039080519060200190610d559291906112fb565b508460049080519060200190610d6c9291906112fb565b508360059080519060200190610d839291906112fb565b508260069080519060200190610d9a9291906112fb565b508160079080519060200190610db19291906112fb565b508060089080519060200190610dc89291906112fb565b50505050505050505050565b606060038054610de390611ade565b80601f0160208091040260200160405190810160405280929190818152602001828054610e0f90611ade565b8015610e5c5780601f10610e3157610100808354040283529160200191610e5c565b820191906000526020600020905b815481529060010190602001808311610e3f57829003601f168201915b5050505050905090565b606060008054610e7590611ade565b80601f0160208091040260200160405190810160405280929190818152602001828054610ea190611ade565b8015610eee5780601f10610ec357610100808354040283529160200191610eee565b820191906000526020600020905b815481529060010190602001808311610ed157829003601f168201915b5050505050905090565b606060098054610f0790611ade565b80601f0160208091040260200160405190810160405280929190818152602001828054610f3390611ade565b8015610f805780601f10610f5557610100808354040283529160200191610f80565b820191906000526020600020905b815481529060010190602001808311610f6357829003601f168201915b5050505050905090565b606060068054610f9990611ade565b80601f0160208091040260200160405190810160405280929190818152602001828054610fc590611ade565b80156110125780601f10610fe757610100808354040283529160200191611012565b820191906000526020600020905b815481529060010190602001808311610ff557829003601f168201915b5050505050905090565b60115481565b6000670de0b6b3a7640000905090565b60606004805461104190611ade565b80601f016020809104026020016040519081016040528092919081815260200182805461106d90611ade565b80156110ba5780601f1061108f576101008083540402835291602001916110ba565b820191906000526020600020905b81548152906001019060200180831161109d57829003601f168201915b5050505050905090565b6000806110cf610926565b905060006110db611022565b9050600081836110eb9190611b3f565b905080935050505090565b8173ffffffffffffffffffffffffffffffffffffffff166108fc829081150290604051600060405180830381858888f1935050505015801561113c573d6000803e3d6000fd5b505050565b8173ffffffffffffffffffffffffffffffffffffffff166108fc829081150290604051600060405180830381858888f19350505050158015611187573d6000803e3d6000fd5b505050565b6060600b805461119b90611ade565b80601f01602080910402602001604051908101604052809291908181526020018280546111c790611ade565b80156112145780601f106111e957610100808354040283529160200191611214565b820191906000526020600020905b8154815290600101906020018083116111f757829003601f168201915b5050505050905090565b8173ffffffffffffffffffffffffffffffffffffffff166108fc829081150290604051600060405180830381858888f19350505050158015611264573d6000803e3d6000fd5b505050565b60606002805461127890611ade565b80601f01602080910402602001604051908101604052809291908181526020018280546112a490611ade565b80156112f15780601f106112c6576101008083540402835291602001916112f1565b820191906000526020600020905b8154815290600101906020018083116112d457829003601f168201915b5050505050905090565b82805461130790611ade565b90600052602060002090601f0160209004810192826113295760008555611370565b82601f1061134257805160ff1916838001178555611370565b82800160010185558215611370579182015b8281111561136f578251825591602001919060010190611354565b5b50905061137d9190611381565b5090565b5b8082111561139a576000816000905550600101611382565b5090565b600073ffffffffffffffffffffffffffffffffffffffff82169050919050565b60006113c98261139e565b9050919050565b6113d9816113be565b82525050565b6000819050919050565b6113f2816113df565b82525050565b600060408201905061140d60008301856113d0565b61141a60208301846113e9565b9392505050565b600060208201905061143660008301846113e9565b92915050565b7f4e487b7100000000000000000000000000000000000000000000000000000000600052601160045260246000fd5b6000611476826113df565b9150611481836113df565b9250827fffffffffffffffffffffffffffffffffffffffffffffffffffffffffffffffff038211156114b6576114b561143c565b5b828201905092915050565b600081519050919050565b600082825260208201905092915050565b60005b838110156114fb5780820151818401526020810190506114e0565b8381111561150a576000848401525b50505050565b6000601f19601f8301169050919050565b600061152c826114c1565b61153681856114cc565b93506115468185602086016114dd565b61154f81611510565b840191505092915050565b600060208201905081810360008301526115748184611521565b905092915050565b6000604051905090565b600080fd5b600080fd5b600080fd5b600080fd5b7f4e487b7100000000000000000000000000000000000000000000000000000000600052604160045260246000fd5b6115d282611510565b810181811067ffffffffffffffff821117156115f1576115f061159a565b5b80604052505050565b600061160461157c565b905061161082826115c9565b919050565b600067ffffffffffffffff8211156116305761162f61159a565b5b61163982611510565b9050602081019050919050565b82818337600083830152505050565b600061166861166384611615565b6115fa565b90508281526020810184848401111561168457611683611595565b5b61168f848285611646565b509392505050565b600082601f8301126116ac576116ab611590565b5b81356116bc848260208601611655565b91505092915050565b6000602082840312156116db576116da611586565b5b600082013567ffffffffffffffff8111156116f9576116f861158b565b5b61170584828501611697565b91505092915050565b611717816113df565b811461172257600080fd5b50565b6000813590506117348161170e565b92915050565b6000602082840312156117505761174f611586565b5b600061175e84828501611725565b91505092915050565b60006117728261139e565b9050919050565b61178281611767565b811461178d57600080fd5b50565b60008135905061179f81611779565b92915050565b6000602082840312156117bb576117ba611586565b5b60006117c984828501611790565b91505092915050565b600080600080608085870312156117ec576117eb611586565b5b600085013567ffffffffffffffff81111561180a5761180961158b565b5b61181687828801611697565b945050602085013567ffffffffffffffff8111156118375761183661158b565b5b61184387828801611697565b935050604085013567ffffffffffffffff8111156118645761186361158b565b5b61187087828801611697565b925050606085013567ffffffffffffffff8111156118915761189061158b565b5b61189d87828801611697565b91505092959194509250565b60008060008060008060008060006101208a8c0312156118cc576118cb611586565b5b60008a013567ffffffffffffffff8111156118ea576118e961158b565b5b6118f68c828d01611697565b99505060208a013567ffffffffffffffff8111156119175761191661158b565b5b6119238c828d01611697565b98505060408a013567ffffffffffffffff8111156119445761194361158b565b5b6119508c828d01611697565b97505060608a013567ffffffffffffffff8111156119715761197061158b565b5b61197d8c828d01611697565b96505060808a013567ffffffffffffffff81111561199e5761199d61158b565b5b6119aa8c828d01611697565b95505060a08a013567ffffffffffffffff8111156119cb576119ca61158b565b5b6119d78c828d01611697565b94505060c08a013567ffffffffffffffff8111156119f8576119f761158b565b5b611a048c828d01611697565b93505060e08a013567ffffffffffffffff811115611a2557611a2461158b565b5b611a318c828d01611697565b9250506101008a013567ffffffffffffffff811115611a5357611a5261158b565b5b611a5f8c828d01611697565b9150509295985092959850929598565b60008060408385031215611a8657611a85611586565b5b6000611a9485828601611790565b9250506020611aa585828601611725565b9150509250929050565b7f4e487b7100000000000000000000000000000000000000000000000000000000600052602260045260246000fd5b60006002820490506001821680611af657607f821691505b60208210811415611b0a57611b09611aaf565b5b50919050565b7f4e487b7100000000000000000000000000000000000000000000000000000000600052603260045260246000fd5b6000611b4a826113df565b9150611b55836113df565b925082821015611b6857611b6761143c565b5b828203905092915050565b6000611b7e826113df565b9150611b89836113df565b9250817fffffffffffffffffffffffffffffffffffffffffffffffffffffffffffffffff0483118215151615611bc257611bc161143c565b5b828202905092915050565b6000611bd8826113df565b91507fffffffffffffffffffffffffffffffffffffffffffffffffffffffffffffffff821415611c0b57611c0a61143c565b5b60018201905091905056fea26469706673582212204afe7e1c720b876d048eb7c70b26e99c3d963ecbcb5adb1baf295e2352238c0964736f6c634300080a0033",
  "immutableReferences": {},
  "source": "// SPDX-License-Identifier: MIT\npragma solidity ^0.8.10;\n\n// MyContract\ncontract MyContract {\n\n    // value\n    // string value;\n    string mobileNumber;\n    // string ownerName;\n    string ownerName;\n    string propertyAddress;\n    string weeklyRent;\n    string deposit;\n    string startDate;\n    string endDate;\n    string suppliedServices;\n    string petsAllowed;\n\n    string tenantName;\n    string tenantNumber;\n    string tenantStartDate;\n    string tenantEndDate;\n\n    // string landlordAddress;\n    // string tenantAddress;\n    address landlordAddress = 0x12f38F0d6069AF8cEE15B3EB046FB3Fa76413325;\n    address tenantAddress = 0xe31934c4161f87585DdBb2433645e7823F13b3dC;\n    address payable landlordAddressPayable = payable(landlordAddress);\n    address payable tenantAddressPayable = payable(tenantAddress);\n\n\n    // constructor() {\n    //     // value = \"myValue\";\n    //     ownerName = \"Ren\";\n        \n    // }\n\n    function stringToUint(string memory s) public pure returns (uint result) {\n        bytes memory b = bytes(s);\n        uint i;\n        result = 0;\n        for (i = 0; i < b.length; i++) {\n            uint c = uint(uint8(b[i]));\n            // uint c = uint(b[i]);\n            if (c >= 48 && c <= 57) {\n                result = result * 10 + (c - 48);\n            }\n        }\n    }\n\n    function set(string memory _ownerName, string memory _mobileNumber, string memory _propertyAddress, string memory _weeklyRent, string memory _deposit, string memory _startDate,\n                string memory _endDate, string memory _suppliedServices, string memory _petsAllowed) public {\n        ownerName = _ownerName;\n        mobileNumber = _mobileNumber;\n        propertyAddress = _propertyAddress;\n        weeklyRent = _weeklyRent;\n        deposit = _deposit;\n        startDate = _startDate;\n        endDate = _endDate;\n        suppliedServices = _suppliedServices;\n        petsAllowed = _petsAllowed;\n    }\n\n    function setTenant(string memory newName, string memory newNumber, string memory newStart, string memory newEnd) public {\n        tenantName = newName;\n        tenantNumber = newNumber;\n        tenantStartDate = newStart;\n        tenantEndDate = newEnd;\n        //call send deposit here \n        string memory depositSet = getDeposit();\n        uint depositUint = stringToUint(depositSet);\n        sendDeposit(landlordAddressPayable, depositUint);\n    }\n\n\n    function getMobileNumber() public view returns(string memory) {\n        return mobileNumber;\n    }\n\n\n    function getOwnerName() public view returns (string memory) {\n        return ownerName;\t\n    }\n\n\n    function getPropertyAddress() public view returns (string memory) {\n        return propertyAddress;\t\n    }\n    \n    function getWeeklyRent() public view returns(string memory) {\n        return weeklyRent;\n    }\n    function getDeposit() public view returns(string memory) {\n        return deposit;\n    }\n    function getStartDate() public view returns(string memory) {\n        return startDate;\n    }\n        function getEndDate() public view returns(string memory) {\n        return endDate;\n    }\n\n    function getSuppliedServices() public view returns (string memory) {\n        return suppliedServices;\n    }\n\n    function getPetsAllowed() public view returns (string memory) {\n        return petsAllowed;\n    }\n\n    function getTenantName() public view returns (string memory) {\n        return tenantName;\n    }\n\n    function getTenantNumber() public view returns (string memory) {\n        return tenantNumber;\n    }\n\n    function getTenantStartDate() public view returns (string memory) {\n        return tenantStartDate;\n    }\n\n        function getTenantEndDate() public view returns (string memory) {\n        return tenantEndDate;\n    }\n\n        uint256 public balance;\n\n\n    function sendDeposit(address payable _receiver, uint amount) payable public {\n        // msg.sender.transfer(msg.value);\n\n         _receiver.transfer(amount);\n    }\n\n    function returnDeposit(address payable _sender, uint amount) payable public {\n        _sender.transfer(amount);\n    }\n\n\n\n    function payDeposit(uint256 amount) payable public {\n        require(msg.value == amount);\n        // nothing else to do!\n    }\n\n    function getLandlordBalance(address payable _landlordAddress) public view returns (uint) {\n        return _landlordAddress.balance;\n    }\n\n        function getTenantBalance(address payable _tenantAddress) public view returns (uint) {\n        return _tenantAddress.balance;\n    }\n\n\n\n// testing \n\n    function getBalance() public view returns(uint){\n        return address(this).balance;\n    }\n\n    function transferAmount(address payable _recipient, uint _amount) external payable {\n        _recipient.transfer(_amount);\n    }\n\n//     function send(address payable _receiver) external payable {\n//         require(msg.value == 0.5 ether);\n//         _receiver.send(msg.value);\n//   }\n    function blc() public view returns (uint256) {\n        uint balanceInEth = address(0xe31934c4161f87585DdBb2433645e7823F13b3dC).balance;\n        return balanceInEth;\n        // return 1.then(function(bn) { return bn.toString() });\n        \n    }\n\n    function blc2() public view returns (uint256) {\n        // uint balanceInEth = address(this).balance;\n        // return balanceInEth;\n        // return 1.then(function(bn) { return bn.toString() });\n        return 10**18;\n        \n    }\n\n    function blc3() public view returns (uint256) {\n        uint256 bl1 = blc();\n        uint256 bl2 = blc2();\n        uint256 sub = bl1 - bl2;\n        return sub;\n        \n    }\n\n    function blc4() public view returns (uint256) {\n        uint balanceInEth = address(this).balance;\n        return balanceInEth;\n        \n    }\n      uint num;\n  uint value;\n    \n  constructor() {\n      num = 69;\n      value = 0;\n  }\n  \n  event showNum(uint num);\n  event seeSender(address addy, uint value);\n\n  fallback() external payable {\n    emit seeSender(msg.sender, msg.value);\n    emit showNum(num);\n    num += 1;\n  }\n\n  function printNum() public returns (uint y){\n    emit showNum(num);\n    return num;\n  }\n\n  function printValue() public returns (uint y){\n    return value;\n  }\n\n\n\n\n\n\n}",
  "sourcePath": "/Users/yuxuanli/mydapp/contracts/MyContract.sol",
  "compiler": {
    "name": "solc",
    "version": "0.8.10+commit.fc410830.Emscripten.clang"
  },
  "schemaVersion": "3.4.3",
  "updatedAt": "2022-04-29T13:47:36.222Z",
  "networkType": "ethereum",
  "devdoc": {
    "kind": "dev",
    "methods": {},
    "version": 1
  },
  "userdoc": {
    "kind": "user",
    "methods": {},
    "version": 1
  }
}