{
  "contractName": "MyContract",
  "abi": [
    {
      "inputs": [],
      "stateMutability": "nonpayable",
      "type": "constructor"
    },
    {
      "stateMutability": "payable",
      "type": "fallback",
      "payable": true
    },
    {
      "inputs": [],
      "name": "balance",
      "outputs": [
        {
          "internalType": "uint256",
          "name": "",
          "type": "uint256"
        }
      ],
      "stateMutability": "view",
      "type": "function",
      "constant": true
    },
    {
      "inputs": [
        {
          "internalType": "string",
          "name": "s",
          "type": "string"
        }
      ],
      "name": "stringToUint",
      "outputs": [
        {
          "internalType": "uint256",
          "name": "result",
          "type": "uint256"
        }
      ],
      "stateMutability": "pure",
      "type": "function",
      "constant": true
    },
    {
      "inputs": [
        {
          "internalType": "string",
          "name": "_ownerName",
          "type": "string"
        },
        {
          "internalType": "string",
          "name": "_mobileNumber",
          "type": "string"
        },
        {
          "internalType": "string",
          "name": "_propertyAddress",
          "type": "string"
        },
        {
          "internalType": "string",
          "name": "_weeklyRent",
          "type": "string"
        },
        {
          "internalType": "string",
          "name": "_deposit",
          "type": "string"
        },
        {
          "internalType": "string",
          "name": "_startDate",
          "type": "string"
        },
        {
          "internalType": "string",
          "name": "_endDate",
          "type": "string"
        },
        {
          "internalType": "string",
          "name": "_suppliedServices",
          "type": "string"
        },
        {
          "internalType": "string",
          "name": "_petsAllowed",
          "type": "string"
        }
      ],
      "name": "set",
      "outputs": [],
      "stateMutability": "nonpayable",
      "type": "function"
    },
    {
      "inputs": [
        {
          "internalType": "string",
          "name": "newName",
          "type": "string"
        },
        {
          "internalType": "string",
          "name": "newNumber",
          "type": "string"
        },
        {
          "internalType": "string",
          "name": "newStart",
          "type": "string"
        },
        {
          "internalType": "string",
          "name": "newEnd",
          "type": "string"
        }
      ],
      "name": "setTenant",
      "outputs": [],
      "stateMutability": "nonpayable",
      "type": "function"
    },
    {
      "inputs": [],
      "name": "getMobileNumber",
      "outputs": [
        {
          "internalType": "string",
          "name": "",
          "type": "string"
        }
      ],
      "stateMutability": "view",
      "type": "function",
      "constant": true
    },
    {
      "inputs": [],
      "name": "getOwnerName",
      "outputs": [
        {
          "internalType": "string",
          "name": "",
          "type": "string"
        }
      ],
      "stateMutability": "view",
      "type": "function",
      "constant": true
    },
    {
      "inputs": [],
      "name": "getPropertyAddress",
      "outputs": [
        {
          "internalType": "string",
          "name": "",
          "type": "string"
        }
      ],
      "stateMutability": "view",
      "type": "function",
      "constant": true
    },
    {
      "inputs": [],
      "name": "getWeeklyRent",
      "outputs": [
        {
          "internalType": "string",
          "name": "",
          "type": "string"
        }
      ],
      "stateMutability": "view",
      "type": "function",
      "constant": true
    },
    {
      "inputs": [],
      "name": "getDeposit",
      "outputs": [
        {
          "internalType": "string",
          "name": "",
          "type": "string"
        }
      ],
      "stateMutability": "view",
      "type": "function",
      "constant": true
    },
    {
      "inputs": [],
      "name": "getStartDate",
      "outputs": [
        {
          "internalType": "string",
          "name": "",
          "type": "string"
        }
      ],
      "stateMutability": "view",
      "type": "function",
      "constant": true
    },
    {
      "inputs": [],
      "name": "getEndDate",
      "outputs": [
        {
          "internalType": "string",
          "name": "",
          "type": "string"
        }
      ],
      "stateMutability": "view",
      "type": "function",
      "constant": true
    },
    {
      "inputs": [],
      "name": "getSuppliedServices",
      "outputs": [
        {
          "internalType": "string",
          "name": "",
          "type": "string"
        }
      ],
      "stateMutability": "view",
      "type": "function",
      "constant": true
    },
    {
      "inputs": [],
      "name": "getPetsAllowed",
      "outputs": [
        {
          "internalType": "string",
          "name": "",
          "type": "string"
        }
      ],
      "stateMutability": "view",
      "type": "function",
      "constant": true
    },
    {
      "inputs": [],
      "name": "getTenantName",
      "outputs": [
        {
          "internalType": "string",
          "name": "",
          "type": "string"
        }
      ],
      "stateMutability": "view",
      "type": "function",
      "constant": true
    },
    {
      "inputs": [],
      "name": "getTenantNumber",
      "outputs": [
        {
          "internalType": "string",
          "name": "",
          "type": "string"
        }
      ],
      "stateMutability": "view",
      "type": "function",
      "constant": true
    },
    {
      "inputs": [],
      "name": "getTenantStartDate",
      "outputs": [
        {
          "internalType": "string",
          "name": "",
          "type": "string"
        }
      ],
      "stateMutability": "view",
      "type": "function",
      "constant": true
    },
    {
      "inputs": [],
      "name": "getTenantEndDate",
      "outputs": [
        {
          "internalType": "string",
          "name": "",
          "type": "string"
        }
      ],
      "stateMutability": "view",
      "type": "function",
      "constant": true
    },
    {
      "inputs": [
        {
          "internalType": "address payable",
          "name": "_receiver",
          "type": "address"
        },
        {
          "internalType": "uint256",
          "name": "amount",
          "type": "uint256"
        }
      ],
      "name": "sendDeposit",
      "outputs": [],
      "stateMutability": "payable",
      "type": "function",
      "payable": true
    },
    {
      "inputs": [
        {
          "internalType": "address payable",
          "name": "_landlordAddress",
          "type": "address"
        }
      ],
      "name": "getLandlordBalance",
      "outputs": [
        {
          "internalType": "uint256",
          "name": "",
          "type": "uint256"
        }
      ],
      "stateMutability": "view",
      "type": "function",
      "constant": true
    },
    {
      "inputs": [
        {
          "internalType": "address payable",
          "name": "_tenantAddress",
          "type": "address"
        }
      ],
      "name": "getTenantBalance",
      "outputs": [
        {
          "internalType": "uint256",
          "name": "",
          "type": "uint256"
        }
      ],
      "stateMutability": "view",
      "type": "function",
      "constant": true
    },
    {
      "inputs": [],
      "name": "getBalance",
      "outputs": [
        {
          "internalType": "uint256",
          "name": "",
          "type": "uint256"
        }
      ],
      "stateMutability": "view",
      "type": "function",
      "constant": true
    },
    {
      "inputs": [
        {
          "internalType": "address payable",
          "name": "_recipient",
          "type": "address"
        },
        {
          "internalType": "uint256",
          "name": "_amount",
          "type": "uint256"
        }
      ],
      "name": "transferAmount",
      "outputs": [],
      "stateMutability": "payable",
      "type": "function",
      "payable": true
    }
  ],
  "bytecode": "0x60806040527331248ef67b5a5afd0623b54dbfa467901818fc2c600d60006101000a81548173ffffffffffffffffffffffffffffffffffffffff021916908373ffffffffffffffffffffffffffffffffffffffff16021790555073df5d173d48ce72d3af0ab5c614bf7e25b36af6a6600e60006101000a81548173ffffffffffffffffffffffffffffffffffffffff021916908373ffffffffffffffffffffffffffffffffffffffff160217905550600d60009054906101000a900473ffffffffffffffffffffffffffffffffffffffff16600f60006101000a81548173ffffffffffffffffffffffffffffffffffffffff021916908373ffffffffffffffffffffffffffffffffffffffff160217905550600e60009054906101000a900473ffffffffffffffffffffffffffffffffffffffff16601060006101000a81548173ffffffffffffffffffffffffffffffffffffffff021916908373ffffffffffffffffffffffffffffffffffffffff1602179055503480156200018157600080fd5b506040518060400160405280600381526020017f52656e000000000000000000000000000000000000000000000000000000000081525060019080519060200190620001cf92919062000224565b506040518060400160405280600181526020017f3100000000000000000000000000000000000000000000000000000000000000815250600490805190602001906200021d92919062000224565b5062000339565b828054620002329062000303565b90600052602060002090601f016020900481019282620002565760008555620002a2565b82601f106200027157805160ff1916838001178555620002a2565b82800160010185558215620002a2579182015b82811115620002a157825182559160200191906001019062000284565b5b509050620002b19190620002b5565b5090565b5b80821115620002d0576000816000905550600101620002b6565b5090565b7f4e487b7100000000000000000000000000000000000000000000000000000000600052602260045260246000fd5b600060028204905060018216806200031c57607f821691505b60208210811415620003335762000332620002d4565b5b50919050565b61180280620003496000396000f3fe6080604052600436106101395760003560e01c806395e59332116100ab578063b69ef8a81161006f578063b69ef8a81461041e578063c399ec8814610449578063d7081e0314610474578063df77baf614610490578063e35fd0c7146104bb578063f2c4769a146104d75761013a565b806395e59332146103495780639abea44d14610372578063a386c4101461039d578063a3be3d82146103c8578063b1356488146103f35761013a565b80632bab9189116100fd5780632bab9189146102255780632cd847d2146102505780634b7eb0851461027b57806366369c63146102b857806378f305c6146102f5578063823cd098146103205761013a565b806307a231571461013c57806312065fe014610167578063145ef6e9146101925780631bd95155146101bd5780631c22bc52146101fa5761013a565b5b005b34801561014857600080fd5b50610151610502565b60405161015e9190611064565b60405180910390f35b34801561017357600080fd5b5061017c610594565b604051610189919061109f565b60405180910390f35b34801561019e57600080fd5b506101a761059c565b6040516101b49190611064565b60405180910390f35b3480156101c957600080fd5b506101e460048036038101906101df9190611203565b61062e565b6040516101f1919061109f565b60405180910390f35b34801561020657600080fd5b5061020f6106c8565b60405161021c9190611064565b60405180910390f35b34801561023157600080fd5b5061023a61075a565b6040516102479190611064565b60405180910390f35b34801561025c57600080fd5b506102656107ec565b6040516102729190611064565b60405180910390f35b34801561028757600080fd5b506102a2600480360381019061029d91906112aa565b61087e565b6040516102af919061109f565b60405180910390f35b3480156102c457600080fd5b506102df60048036038101906102da91906112aa565b61089f565b6040516102ec919061109f565b60405180910390f35b34801561030157600080fd5b5061030a6108c0565b6040516103179190611064565b60405180910390f35b34801561032c57600080fd5b50610347600480360381019061034291906112d7565b610952565b005b34801561035557600080fd5b50610370600480360381019061036b91906113ae565b6109b4565b005b34801561037e57600080fd5b50610387610a8e565b6040516103949190611064565b60405180910390f35b3480156103a957600080fd5b506103b2610b20565b6040516103bf9190611064565b60405180910390f35b3480156103d457600080fd5b506103dd610bb2565b6040516103ea9190611064565b60405180910390f35b3480156103ff57600080fd5b50610408610c44565b6040516104159190611064565b60405180910390f35b34801561042a57600080fd5b50610433610cd6565b604051610440919061109f565b60405180910390f35b34801561045557600080fd5b5061045e610cdc565b60405161046b9190611064565b60405180910390f35b61048e600480360381019061048991906115a0565b610d6e565b005b34801561049c57600080fd5b506104a5610db9565b6040516104b29190611064565b60405180910390f35b6104d560048036038101906104d091906115a0565b610e4b565b005b3480156104e357600080fd5b506104ec610e96565b6040516104f99190611064565b60405180910390f35b6060600780546105119061160f565b80601f016020809104026020016040519081016040528092919081815260200182805461053d9061160f565b801561058a5780601f1061055f5761010080835404028352916020019161058a565b820191906000526020600020905b81548152906001019060200180831161056d57829003601f168201915b5050505050905090565b600047905090565b6060600180546105ab9061160f565b80601f01602080910402602001604051908101604052809291908181526020018280546105d79061160f565b80156106245780601f106105f957610100808354040283529160200191610624565b820191906000526020600020905b81548152906001019060200180831161060757829003601f168201915b5050505050905090565b6000808290506000809250600090505b81518110156106c157600082828151811061065c5761065b611641565b5b602001015160f81c60f81b60f81c60ff16905060308110158015610681575060398111155b156106ad57603081610693919061169f565b600a856106a091906116d3565b6106aa919061172d565b93505b5080806106b990611783565b91505061063e565b5050919050565b6060600c80546106d79061160f565b80601f01602080910402602001604051908101604052809291908181526020018280546107039061160f565b80156107505780601f1061072557610100808354040283529160200191610750565b820191906000526020600020905b81548152906001019060200180831161073357829003601f168201915b5050505050905090565b6060600a80546107699061160f565b80601f01602080910402602001604051908101604052809291908181526020018280546107959061160f565b80156107e25780601f106107b7576101008083540402835291602001916107e2565b820191906000526020600020905b8154815290600101906020018083116107c557829003601f168201915b5050505050905090565b6060600880546107fb9061160f565b80601f01602080910402602001604051908101604052809291908181526020018280546108279061160f565b80156108745780601f1061084957610100808354040283529160200191610874565b820191906000526020600020905b81548152906001019060200180831161085757829003601f168201915b5050505050905090565b60008173ffffffffffffffffffffffffffffffffffffffff16319050919050565b60008173ffffffffffffffffffffffffffffffffffffffff16319050919050565b6060600580546108cf9061160f565b80601f01602080910402602001604051908101604052809291908181526020018280546108fb9061160f565b80156109485780601f1061091d57610100808354040283529160200191610948565b820191906000526020600020905b81548152906001019060200180831161092b57829003601f168201915b5050505050905090565b8360099080519060200190610968929190610f28565b5082600a908051906020019061097f929190610f28565b5081600b9080519060200190610996929190610f28565b5080600c90805190602001906109ad929190610f28565b5050505050565b88600190805190602001906109ca929190610f28565b5087600090805190602001906109e1929190610f28565b5086600290805190602001906109f8929190610f28565b508560039080519060200190610a0f929190610f28565b508460049080519060200190610a26929190610f28565b508360059080519060200190610a3d929190610f28565b508260069080519060200190610a54929190610f28565b508160079080519060200190610a6b929190610f28565b508060089080519060200190610a82929190610f28565b50505050505050505050565b606060038054610a9d9061160f565b80601f0160208091040260200160405190810160405280929190818152602001828054610ac99061160f565b8015610b165780601f10610aeb57610100808354040283529160200191610b16565b820191906000526020600020905b815481529060010190602001808311610af957829003601f168201915b5050505050905090565b606060008054610b2f9061160f565b80601f0160208091040260200160405190810160405280929190818152602001828054610b5b9061160f565b8015610ba85780601f10610b7d57610100808354040283529160200191610ba8565b820191906000526020600020905b815481529060010190602001808311610b8b57829003601f168201915b5050505050905090565b606060098054610bc19061160f565b80601f0160208091040260200160405190810160405280929190818152602001828054610bed9061160f565b8015610c3a5780601f10610c0f57610100808354040283529160200191610c3a565b820191906000526020600020905b815481529060010190602001808311610c1d57829003601f168201915b5050505050905090565b606060068054610c539061160f565b80601f0160208091040260200160405190810160405280929190818152602001828054610c7f9061160f565b8015610ccc5780601f10610ca157610100808354040283529160200191610ccc565b820191906000526020600020905b815481529060010190602001808311610caf57829003601f168201915b5050505050905090565b60115481565b606060048054610ceb9061160f565b80601f0160208091040260200160405190810160405280929190818152602001828054610d179061160f565b8015610d645780601f10610d3957610100808354040283529160200191610d64565b820191906000526020600020905b815481529060010190602001808311610d4757829003601f168201915b5050505050905090565b8173ffffffffffffffffffffffffffffffffffffffff166108fc829081150290604051600060405180830381858888f19350505050158015610db4573d6000803e3d6000fd5b505050565b6060600b8054610dc89061160f565b80601f0160208091040260200160405190810160405280929190818152602001828054610df49061160f565b8015610e415780601f10610e1657610100808354040283529160200191610e41565b820191906000526020600020905b815481529060010190602001808311610e2457829003601f168201915b5050505050905090565b8173ffffffffffffffffffffffffffffffffffffffff166108fc829081150290604051600060405180830381858888f19350505050158015610e91573d6000803e3d6000fd5b505050565b606060028054610ea59061160f565b80601f0160208091040260200160405190810160405280929190818152602001828054610ed19061160f565b8015610f1e5780601f10610ef357610100808354040283529160200191610f1e565b820191906000526020600020905b815481529060010190602001808311610f0157829003601f168201915b5050505050905090565b828054610f349061160f565b90600052602060002090601f016020900481019282610f565760008555610f9d565b82601f10610f6f57805160ff1916838001178555610f9d565b82800160010185558215610f9d579182015b82811115610f9c578251825591602001919060010190610f81565b5b509050610faa9190610fae565b5090565b5b80821115610fc7576000816000905550600101610faf565b5090565b600081519050919050565b600082825260208201905092915050565b60005b83811015611005578082015181840152602081019050610fea565b83811115611014576000848401525b50505050565b6000601f19601f8301169050919050565b600061103682610fcb565b6110408185610fd6565b9350611050818560208601610fe7565b6110598161101a565b840191505092915050565b6000602082019050818103600083015261107e818461102b565b905092915050565b6000819050919050565b61109981611086565b82525050565b60006020820190506110b46000830184611090565b92915050565b6000604051905090565b600080fd5b600080fd5b600080fd5b600080fd5b7f4e487b7100000000000000000000000000000000000000000000000000000000600052604160045260246000fd5b6111108261101a565b810181811067ffffffffffffffff8211171561112f5761112e6110d8565b5b80604052505050565b60006111426110ba565b905061114e8282611107565b919050565b600067ffffffffffffffff82111561116e5761116d6110d8565b5b6111778261101a565b9050602081019050919050565b82818337600083830152505050565b60006111a66111a184611153565b611138565b9050828152602081018484840111156111c2576111c16110d3565b5b6111cd848285611184565b509392505050565b600082601f8301126111ea576111e96110ce565b5b81356111fa848260208601611193565b91505092915050565b600060208284031215611219576112186110c4565b5b600082013567ffffffffffffffff811115611237576112366110c9565b5b611243848285016111d5565b91505092915050565b600073ffffffffffffffffffffffffffffffffffffffff82169050919050565b60006112778261124c565b9050919050565b6112878161126c565b811461129257600080fd5b50565b6000813590506112a48161127e565b92915050565b6000602082840312156112c0576112bf6110c4565b5b60006112ce84828501611295565b91505092915050565b600080600080608085870312156112f1576112f06110c4565b5b600085013567ffffffffffffffff81111561130f5761130e6110c9565b5b61131b878288016111d5565b945050602085013567ffffffffffffffff81111561133c5761133b6110c9565b5b611348878288016111d5565b935050604085013567ffffffffffffffff811115611369576113686110c9565b5b611375878288016111d5565b925050606085013567ffffffffffffffff811115611396576113956110c9565b5b6113a2878288016111d5565b91505092959194509250565b60008060008060008060008060006101208a8c0312156113d1576113d06110c4565b5b60008a013567ffffffffffffffff8111156113ef576113ee6110c9565b5b6113fb8c828d016111d5565b99505060208a013567ffffffffffffffff81111561141c5761141b6110c9565b5b6114288c828d016111d5565b98505060408a013567ffffffffffffffff811115611449576114486110c9565b5b6114558c828d016111d5565b97505060608a013567ffffffffffffffff811115611476576114756110c9565b5b6114828c828d016111d5565b96505060808a013567ffffffffffffffff8111156114a3576114a26110c9565b5b6114af8c828d016111d5565b95505060a08a013567ffffffffffffffff8111156114d0576114cf6110c9565b5b6114dc8c828d016111d5565b94505060c08a013567ffffffffffffffff8111156114fd576114fc6110c9565b5b6115098c828d016111d5565b93505060e08a013567ffffffffffffffff81111561152a576115296110c9565b5b6115368c828d016111d5565b9250506101008a013567ffffffffffffffff811115611558576115576110c9565b5b6115648c828d016111d5565b9150509295985092959850929598565b61157d81611086565b811461158857600080fd5b50565b60008135905061159a81611574565b92915050565b600080604083850312156115b7576115b66110c4565b5b60006115c585828601611295565b92505060206115d68582860161158b565b9150509250929050565b7f4e487b7100000000000000000000000000000000000000000000000000000000600052602260045260246000fd5b6000600282049050600182168061162757607f821691505b6020821081141561163b5761163a6115e0565b5b50919050565b7f4e487b7100000000000000000000000000000000000000000000000000000000600052603260045260246000fd5b7f4e487b7100000000000000000000000000000000000000000000000000000000600052601160045260246000fd5b60006116aa82611086565b91506116b583611086565b9250828210156116c8576116c7611670565b5b828203905092915050565b60006116de82611086565b91506116e983611086565b9250817fffffffffffffffffffffffffffffffffffffffffffffffffffffffffffffffff048311821515161561172257611721611670565b5b828202905092915050565b600061173882611086565b915061174383611086565b9250827fffffffffffffffffffffffffffffffffffffffffffffffffffffffffffffffff0382111561177857611777611670565b5b828201905092915050565b600061178e82611086565b91507fffffffffffffffffffffffffffffffffffffffffffffffffffffffffffffffff8214156117c1576117c0611670565b5b60018201905091905056fea26469706673582212202cc0fc8d956fe71d20b54288a20d46762bd20d9e57378362b5a18586fd91c5b464736f6c634300080a0033",
  "immutableReferences": {},
  "source": "// SPDX-License-Identifier: MIT\npragma solidity ^0.8.10;\n\n// MyContract\ncontract MyContract {\n\n    // value\n    // string value;\n    string mobileNumber;\n    // string ownerName;\n    string ownerName;\n    string propertyAddress;\n    string weeklyRent;\n    string deposit;\n    string startDate;\n    string endDate;\n    string suppliedServices;\n    string petsAllowed;\n\n    string tenantName;\n    string tenantNumber;\n    string tenantStartDate;\n    string tenantEndDate;\n\n    // string landlordAddress;\n    // string tenantAddress;\n    address landlordAddress = 0x31248Ef67b5a5AFd0623B54dBfA467901818Fc2c;  // ********************** edit this\n    address tenantAddress = 0xdF5d173d48cE72d3AF0AB5c614BF7e25B36Af6a6; // ************************ edit this \n    address payable landlordAddressPayable = payable(landlordAddress);\n    address payable tenantAddressPayable = payable(tenantAddress);\n\n\n    constructor() {\n        // value = \"myValue\";\n        ownerName = \"Ren\";\n        deposit = \"1\";\n        \n    }\n\n    function stringToUint(string memory s) public pure returns (uint result) {\n        bytes memory b = bytes(s);\n        uint i;\n        result = 0;\n        for (i = 0; i < b.length; i++) {\n            uint c = uint(uint8(b[i]));\n            // uint c = uint(b[i]);\n            if (c >= 48 && c <= 57) {\n                result = result * 10 + (c - 48);\n            }\n        }\n    }\n\n    function set(string memory _ownerName, string memory _mobileNumber, string memory _propertyAddress, string memory _weeklyRent, string memory _deposit, string memory _startDate,\n                string memory _endDate, string memory _suppliedServices, string memory _petsAllowed) public {\n        ownerName = _ownerName;\n        mobileNumber = _mobileNumber;\n        propertyAddress = _propertyAddress;\n        weeklyRent = _weeklyRent;\n        deposit = _deposit;\n        startDate = _startDate;\n        endDate = _endDate;\n        suppliedServices = _suppliedServices;\n        petsAllowed = _petsAllowed;\n    }\n\n    function setTenant(string memory newName, string memory newNumber, string memory newStart, string memory newEnd) public {\n        tenantName = newName;\n        tenantNumber = newNumber;\n        tenantStartDate = newStart;\n        tenantEndDate = newEnd;\n        //call send deposit here \n        // string memory depositSet = getDeposit();\n        // uint depositUint = stringToUint(depositSet);\n        // sendDeposit(landlordAddressPayable, depositUint);\n    }\n\n\n    function getMobileNumber() public view returns(string memory) {\n        return mobileNumber;\n    }\n\n\n    function getOwnerName() public view returns (string memory) {\n        return ownerName;\t\n    }\n\n\n    function getPropertyAddress() public view returns (string memory) {\n        return propertyAddress;\t\n    }\n    \n    function getWeeklyRent() public view returns(string memory) {\n        return weeklyRent;\n    }\n    function getDeposit() public view returns(string memory) {\n        return deposit;\n    }\n    function getStartDate() public view returns(string memory) {\n        return startDate;\n    }\n        function getEndDate() public view returns(string memory) {\n        return endDate;\n    }\n\n    function getSuppliedServices() public view returns (string memory) {\n        return suppliedServices;\n    }\n\n    function getPetsAllowed() public view returns (string memory) {\n        return petsAllowed;\n    }\n\n    function getTenantName() public view returns (string memory) {\n        return tenantName;\n    }\n\n    function getTenantNumber() public view returns (string memory) {\n        return tenantNumber;\n    }\n\n    function getTenantStartDate() public view returns (string memory) {\n        return tenantStartDate;\n    }\n\n        function getTenantEndDate() public view returns (string memory) {\n        return tenantEndDate;\n    }\n\n        uint256 public balance;\n\n\n\n// Tenant functions\n    fallback() external payable {}\n    // function () public payable {}\n\n    function sendDeposit(address payable _receiver, uint amount) payable public {\n         _receiver.transfer(amount);\n    }\n\n    function getLandlordBalance(address payable _landlordAddress) public view returns (uint) {\n        return _landlordAddress.balance;\n    }\n\n    function getTenantBalance(address payable _tenantAddress) public view returns (uint) {\n        return _tenantAddress.balance;\n    }\n\n\n\n// testing \n\n    function getBalance() public view returns(uint){\n        return address(this).balance;\n    }\n\n    function transferAmount(address payable _recipient, uint _amount) external payable {\n        _recipient.transfer(_amount);\n    }\n\n//     function send(address payable _receiver) external payable {\n//         require(msg.value == 0.5 ether);\n//         _receiver.send(msg.value);\n//   }\n    // function blc() public view returns (uint256) {\n    //     uint balanceInEth = address(0xe31934c4161f87585DdBb2433645e7823F13b3dC).balance;\n    //     return balanceInEth;\n    //     // return 1.then(function(bn) { return bn.toString() });\n        \n    // }\n\n    // function blc2() public view returns (uint256) {\n    //     // uint balanceInEth = address(this).balance;\n    //     // return balanceInEth;\n    //     // return 1.then(function(bn) { return bn.toString() });\n    //     return 10**18;\n        \n    // }\n\n    // function blc3() public view returns (uint256) {\n    //     uint256 bl1 = blc();\n    //     uint256 bl2 = blc2();\n    //     uint256 sub = bl1 - bl2;\n    //     return sub;\n        \n    // }\n\n    // function blc4() public view returns (uint256) {\n    //     uint balanceInEth = address(this).balance;\n    //     return balanceInEth;\n        \n    // }\n\n\n//   fallback() external payable {\n//     emit seeSender(msg.sender, msg.value);\n//     emit showNum(num);\n//     num += 1;\n//   }\n\n\n\n\n\n\n\n}",
  "sourcePath": "/Users/yuxuanli/mydapp/contracts/MyContract.sol",
  "compiler": {
    "name": "solc",
    "version": "0.8.10+commit.fc410830.Emscripten.clang"
  },
  "schemaVersion": "3.4.3",
  "updatedAt": "2022-05-01T08:34:39.901Z",
  "networkType": "ethereum",
  "devdoc": {
    "kind": "dev",
    "methods": {},
    "version": 1
  },
  "userdoc": {
    "kind": "user",
    "methods": {},
    "version": 1
  }
}