{
  "contractName": "MyContract",
  "abi": [
    {
      "inputs": [],
      "stateMutability": "nonpayable",
      "type": "constructor"
    },
    {
      "inputs": [],
      "name": "get",
      "outputs": [
        {
          "internalType": "string",
          "name": "",
          "type": "string"
        }
      ],
      "stateMutability": "view",
      "type": "function"
    },
    {
      "inputs": [
        {
          "internalType": "string",
          "name": "_value",
          "type": "string"
        }
      ],
      "name": "set",
      "outputs": [],
      "stateMutability": "nonpayable",
      "type": "function"
    },
    {
      "inputs": [],
      "name": "getMobileNumber",
      "outputs": [
        {
          "internalType": "int256",
          "name": "",
          "type": "int256"
        }
      ],
      "stateMutability": "view",
      "type": "function"
    },
    {
      "inputs": [],
      "name": "getOwnerName",
      "outputs": [
        {
          "internalType": "string",
          "name": "",
          "type": "string"
        }
      ],
      "stateMutability": "view",
      "type": "function"
    },
    {
      "inputs": [],
      "name": "getPropertyAddress",
      "outputs": [
        {
          "internalType": "string",
          "name": "",
          "type": "string"
        }
      ],
      "stateMutability": "view",
      "type": "function"
    },
    {
      "inputs": [],
      "name": "getWeeklyRent",
      "outputs": [
        {
          "internalType": "int256",
          "name": "",
          "type": "int256"
        }
      ],
      "stateMutability": "view",
      "type": "function"
    },
    {
      "inputs": [],
      "name": "getDeposit",
      "outputs": [
        {
          "internalType": "int256",
          "name": "",
          "type": "int256"
        }
      ],
      "stateMutability": "view",
      "type": "function"
    },
    {
      "inputs": [],
      "name": "getStartDate",
      "outputs": [
        {
          "internalType": "uint256",
          "name": "",
          "type": "uint256"
        }
      ],
      "stateMutability": "view",
      "type": "function"
    },
    {
      "inputs": [],
      "name": "getEndDate",
      "outputs": [
        {
          "internalType": "uint256",
          "name": "",
          "type": "uint256"
        }
      ],
      "stateMutability": "view",
      "type": "function"
    },
    {
      "inputs": [
        {
          "internalType": "string",
          "name": "setOwnerName",
          "type": "string"
        },
        {
          "internalType": "int256",
          "name": "setMobileNumber",
          "type": "int256"
        },
        {
          "internalType": "string",
          "name": "setPropertyAddress",
          "type": "string"
        },
        {
          "internalType": "int256",
          "name": "setWeeklyRent",
          "type": "int256"
        },
        {
          "internalType": "int256",
          "name": "setDeposit",
          "type": "int256"
        },
        {
          "internalType": "uint256",
          "name": "setStartDate",
          "type": "uint256"
        },
        {
          "internalType": "uint256",
          "name": "setEndDate",
          "type": "uint256"
        },
        {
          "internalType": "string",
          "name": "setSuppliedServices",
          "type": "string"
        },
        {
          "internalType": "bool",
          "name": "setPetsAllowed",
          "type": "bool"
        }
      ],
      "name": "setDetails",
      "outputs": [],
      "stateMutability": "payable",
      "type": "function"
    }
  ],
  "bytecode": "0x608060405234801561001057600080fd5b506040518060400160405280600781526020017f6d7956616c7565000000000000000000000000000000000000000000000000008152506000908051906020019061005c929190610062565b50610166565b82805461006e90610134565b90600052602060002090601f01602090048101928261009057600085556100d7565b82601f106100a957805160ff19168380011785556100d7565b828001600101855582156100d7579182015b828111156100d65782518255916020019190600101906100bb565b5b5090506100e491906100e8565b5090565b5b808211156101015760008160009055506001016100e9565b5090565b7f4e487b7100000000000000000000000000000000000000000000000000000000600052602260045260246000fd5b6000600282049050600182168061014c57607f821691505b602082108114156101605761015f610105565b5b50919050565b610a5f806101756000396000f3fe6080604052600436106100915760003560e01c8063a386c41011610059578063a386c4101461016b578063b135648814610196578063c399ec88146101c1578063c5681ac8146101ec578063f2c4769a1461020857610091565b8063145ef6e9146100965780634ed3885e146100c15780636d4ce63c146100ea57806378f305c6146101155780639abea44d14610140575b600080fd5b3480156100a257600080fd5b506100ab610233565b6040516100b891906105fe565b60405180910390f35b3480156100cd57600080fd5b506100e860048036038101906100e39190610769565b6102c5565b005b3480156100f657600080fd5b506100ff6102df565b60405161010c91906105fe565b60405180910390f35b34801561012157600080fd5b5061012a610371565b60405161013791906107cb565b60405180910390f35b34801561014c57600080fd5b5061015561037b565b60405161016291906107ff565b60405180910390f35b34801561017757600080fd5b50610180610385565b60405161018d91906107ff565b60405180910390f35b3480156101a257600080fd5b506101ab61038f565b6040516101b891906107cb565b60405180910390f35b3480156101cd57600080fd5b506101d6610399565b6040516101e391906107ff565b60405180910390f35b610206600480360381019061020191906108aa565b6103a3565b005b34801561021457600080fd5b5061021d610430565b60405161022a91906105fe565b60405180910390f35b606060028054610242906109f7565b80601f016020809104026020016040519081016040528092919081815260200182805461026e906109f7565b80156102bb5780601f10610290576101008083540402835291602001916102bb565b820191906000526020600020905b81548152906001019060200180831161029e57829003601f168201915b5050505050905090565b80600090805190602001906102db9291906104c2565b5050565b6060600080546102ee906109f7565b80601f016020809104026020016040519081016040528092919081815260200182805461031a906109f7565b80156103675780601f1061033c57610100808354040283529160200191610367565b820191906000526020600020905b81548152906001019060200180831161034a57829003601f168201915b5050505050905090565b6000600654905090565b6000600454905090565b6000600154905090565b6000600754905090565b6000600554905090565b88600290805190602001906103b99291906104c2565b508760018190555086600390805190602001906103d79291906104c2565b5085600481905550846005819055508360068190555082600781905550816008908051906020019061040a9291906104c2565b5080600960006101000a81548160ff021916908315150217905550505050505050505050565b60606003805461043f906109f7565b80601f016020809104026020016040519081016040528092919081815260200182805461046b906109f7565b80156104b85780601f1061048d576101008083540402835291602001916104b8565b820191906000526020600020905b81548152906001019060200180831161049b57829003601f168201915b5050505050905090565b8280546104ce906109f7565b90600052602060002090601f0160209004810192826104f05760008555610537565b82601f1061050957805160ff1916838001178555610537565b82800160010185558215610537579182015b8281111561053657825182559160200191906001019061051b565b5b5090506105449190610548565b5090565b5b80821115610561576000816000905550600101610549565b5090565b600081519050919050565b600082825260208201905092915050565b60005b8381101561059f578082015181840152602081019050610584565b838111156105ae576000848401525b50505050565b6000601f19601f8301169050919050565b60006105d082610565565b6105da8185610570565b93506105ea818560208601610581565b6105f3816105b4565b840191505092915050565b6000602082019050818103600083015261061881846105c5565b905092915050565b6000604051905090565b600080fd5b600080fd5b600080fd5b600080fd5b7f4e487b7100000000000000000000000000000000000000000000000000000000600052604160045260246000fd5b610676826105b4565b810181811067ffffffffffffffff821117156106955761069461063e565b5b80604052505050565b60006106a8610620565b90506106b4828261066d565b919050565b600067ffffffffffffffff8211156106d4576106d361063e565b5b6106dd826105b4565b9050602081019050919050565b82818337600083830152505050565b600061070c610707846106b9565b61069e565b90508281526020810184848401111561072857610727610639565b5b6107338482856106ea565b509392505050565b600082601f8301126107505761074f610634565b5b81356107608482602086016106f9565b91505092915050565b60006020828403121561077f5761077e61062a565b5b600082013567ffffffffffffffff81111561079d5761079c61062f565b5b6107a98482850161073b565b91505092915050565b6000819050919050565b6107c5816107b2565b82525050565b60006020820190506107e060008301846107bc565b92915050565b6000819050919050565b6107f9816107e6565b82525050565b600060208201905061081460008301846107f0565b92915050565b610823816107e6565b811461082e57600080fd5b50565b6000813590506108408161081a565b92915050565b61084f816107b2565b811461085a57600080fd5b50565b60008135905061086c81610846565b92915050565b60008115159050919050565b61088781610872565b811461089257600080fd5b50565b6000813590506108a48161087e565b92915050565b60008060008060008060008060006101208a8c0312156108cd576108cc61062a565b5b60008a013567ffffffffffffffff8111156108eb576108ea61062f565b5b6108f78c828d0161073b565b99505060206109088c828d01610831565b98505060408a013567ffffffffffffffff8111156109295761092861062f565b5b6109358c828d0161073b565b97505060606109468c828d01610831565b96505060806109578c828d01610831565b95505060a06109688c828d0161085d565b94505060c06109798c828d0161085d565b93505060e08a013567ffffffffffffffff81111561099a5761099961062f565b5b6109a68c828d0161073b565b9250506101006109b88c828d01610895565b9150509295985092959850929598565b7f4e487b7100000000000000000000000000000000000000000000000000000000600052602260045260246000fd5b60006002820490506001821680610a0f57607f821691505b60208210811415610a2357610a226109c8565b5b5091905056fea2646970667358221220867f389a84ddb3d6412e54752d830b13c5b42cd755ced99502a5b2a60e1a611764736f6c634300080a0033",
  "immutableReferences": {},
  "source": "// SPDX-License-Identifier: MIT\npragma solidity ^0.8.10;\n\n// MyContract\ncontract MyContract {\n\n    // value\n    string value;\n    int mobileNumber;\n\n    string ownerName;\n    // int phoneNumber;\n    string peropertyAddress;\n    int weeklyRent;\n    int deposit;\n    uint startDate;\n    uint endDate;\n    string suppliedServices;\n    bool petsAllowed;\n\n\n    // \n    // public\n    // valuemyValue\n    constructor() {\n        value = \"myValue\";\n        // mobileNumber = 123;\n    }\n\n    // public\n    // view\n    function get() public view returns(string memory ) {\n        return value;\n    }\n\n    // public\n    function set(string memory _value) public {\n        value = _value;\n    }\n\n\n    function getMobileNumber() public view returns(int) {\n        return mobileNumber;\n    }\n\n    // function setMobileNumber(int _mobileNumber) public {\n    //     mobileNumber = _mobileNumber;\n    // }\n\n    function getOwnerName() public view returns (string memory) {\n        return ownerName;\t\n    }\n\n    function getPropertyAddress() public view returns (string memory) {\n        return peropertyAddress;\t\n    }\n    \n    function getWeeklyRent() public view returns(int) {\n        return weeklyRent;\n    }\n    function getDeposit() public view returns(int) {\n        return deposit;\n    }\n    function getStartDate() public view returns(uint) {\n        return startDate;\n    }\n        function getEndDate() public view returns(uint) {\n        return endDate;\n    }\n\n    function setDetails(string memory setOwnerName, int setMobileNumber, string memory setPropertyAddress, int setWeeklyRent, int setDeposit, uint setStartDate, uint setEndDate, string memory setSuppliedServices, bool setPetsAllowed) public payable {\n        ownerName = setOwnerName;\n        mobileNumber = setMobileNumber;\n        peropertyAddress = setPropertyAddress;\n        weeklyRent = setWeeklyRent;\n        deposit = setDeposit;\n        startDate = setStartDate;\n        endDate = setEndDate;\n        suppliedServices = setSuppliedServices;\n        petsAllowed = setPetsAllowed;\n\n    }\n}",
  "sourcePath": "/Users/yuxuanli/mydapp/contracts/MyContract.sol",
  "compiler": {
    "name": "solc",
    "version": "0.8.10+commit.fc410830.Emscripten.clang"
  },
  "schemaVersion": "3.4.3",
  "updatedAt": "2022-03-27T05:12:36.311Z",
  "devdoc": {
    "kind": "dev",
    "methods": {},
    "version": 1
  },
  "userdoc": {
    "kind": "user",
    "methods": {},
    "version": 1
  }
}