{
  "contractName": "MyContract",
  "abi": [
    {
      "inputs": [],
      "stateMutability": "nonpayable",
      "type": "constructor"
    },
    {
      "inputs": [],
      "name": "balance",
      "outputs": [
        {
          "internalType": "uint256",
          "name": "",
          "type": "uint256"
        }
      ],
      "stateMutability": "view",
      "type": "function",
      "constant": true
    },
    {
      "inputs": [
        {
          "internalType": "string",
          "name": "s",
          "type": "string"
        }
      ],
      "name": "stringToUint",
      "outputs": [
        {
          "internalType": "uint256",
          "name": "result",
          "type": "uint256"
        }
      ],
      "stateMutability": "pure",
      "type": "function",
      "constant": true
    },
    {
      "inputs": [
        {
          "internalType": "string",
          "name": "_ownerName",
          "type": "string"
        },
        {
          "internalType": "string",
          "name": "_mobileNumber",
          "type": "string"
        },
        {
          "internalType": "string",
          "name": "_propertyAddress",
          "type": "string"
        },
        {
          "internalType": "string",
          "name": "_weeklyRent",
          "type": "string"
        },
        {
          "internalType": "string",
          "name": "_deposit",
          "type": "string"
        },
        {
          "internalType": "string",
          "name": "_startDate",
          "type": "string"
        },
        {
          "internalType": "string",
          "name": "_endDate",
          "type": "string"
        },
        {
          "internalType": "string",
          "name": "_suppliedServices",
          "type": "string"
        },
        {
          "internalType": "string",
          "name": "_petsAllowed",
          "type": "string"
        }
      ],
      "name": "set",
      "outputs": [],
      "stateMutability": "nonpayable",
      "type": "function"
    },
    {
      "inputs": [
        {
          "internalType": "string",
          "name": "newName",
          "type": "string"
        },
        {
          "internalType": "string",
          "name": "newNumber",
          "type": "string"
        },
        {
          "internalType": "string",
          "name": "newStart",
          "type": "string"
        },
        {
          "internalType": "string",
          "name": "newEnd",
          "type": "string"
        }
      ],
      "name": "setTenant",
      "outputs": [],
      "stateMutability": "nonpayable",
      "type": "function"
    },
    {
      "inputs": [],
      "name": "getMobileNumber",
      "outputs": [
        {
          "internalType": "string",
          "name": "",
          "type": "string"
        }
      ],
      "stateMutability": "view",
      "type": "function",
      "constant": true
    },
    {
      "inputs": [],
      "name": "getOwnerName",
      "outputs": [
        {
          "internalType": "string",
          "name": "",
          "type": "string"
        }
      ],
      "stateMutability": "view",
      "type": "function",
      "constant": true
    },
    {
      "inputs": [],
      "name": "getPropertyAddress",
      "outputs": [
        {
          "internalType": "string",
          "name": "",
          "type": "string"
        }
      ],
      "stateMutability": "view",
      "type": "function",
      "constant": true
    },
    {
      "inputs": [],
      "name": "getWeeklyRent",
      "outputs": [
        {
          "internalType": "string",
          "name": "",
          "type": "string"
        }
      ],
      "stateMutability": "view",
      "type": "function",
      "constant": true
    },
    {
      "inputs": [],
      "name": "getDeposit",
      "outputs": [
        {
          "internalType": "string",
          "name": "",
          "type": "string"
        }
      ],
      "stateMutability": "view",
      "type": "function",
      "constant": true
    },
    {
      "inputs": [],
      "name": "getStartDate",
      "outputs": [
        {
          "internalType": "string",
          "name": "",
          "type": "string"
        }
      ],
      "stateMutability": "view",
      "type": "function",
      "constant": true
    },
    {
      "inputs": [],
      "name": "getEndDate",
      "outputs": [
        {
          "internalType": "string",
          "name": "",
          "type": "string"
        }
      ],
      "stateMutability": "view",
      "type": "function",
      "constant": true
    },
    {
      "inputs": [],
      "name": "getSuppliedServices",
      "outputs": [
        {
          "internalType": "string",
          "name": "",
          "type": "string"
        }
      ],
      "stateMutability": "view",
      "type": "function",
      "constant": true
    },
    {
      "inputs": [],
      "name": "getPetsAllowed",
      "outputs": [
        {
          "internalType": "string",
          "name": "",
          "type": "string"
        }
      ],
      "stateMutability": "view",
      "type": "function",
      "constant": true
    },
    {
      "inputs": [],
      "name": "getTenantName",
      "outputs": [
        {
          "internalType": "string",
          "name": "",
          "type": "string"
        }
      ],
      "stateMutability": "view",
      "type": "function",
      "constant": true
    },
    {
      "inputs": [],
      "name": "getTenantNumber",
      "outputs": [
        {
          "internalType": "string",
          "name": "",
          "type": "string"
        }
      ],
      "stateMutability": "view",
      "type": "function",
      "constant": true
    },
    {
      "inputs": [],
      "name": "getTenantStartDate",
      "outputs": [
        {
          "internalType": "string",
          "name": "",
          "type": "string"
        }
      ],
      "stateMutability": "view",
      "type": "function",
      "constant": true
    },
    {
      "inputs": [],
      "name": "getTenantEndDate",
      "outputs": [
        {
          "internalType": "string",
          "name": "",
          "type": "string"
        }
      ],
      "stateMutability": "view",
      "type": "function",
      "constant": true
    },
    {
      "inputs": [
        {
          "internalType": "address payable",
          "name": "_receiver",
          "type": "address"
        },
        {
          "internalType": "uint256",
          "name": "amount",
          "type": "uint256"
        }
      ],
      "name": "sendDeposit",
      "outputs": [],
      "stateMutability": "payable",
      "type": "function",
      "payable": true
    },
    {
      "inputs": [
        {
          "internalType": "address payable",
          "name": "_sender",
          "type": "address"
        },
        {
          "internalType": "uint256",
          "name": "amount",
          "type": "uint256"
        }
      ],
      "name": "returnDeposit",
      "outputs": [],
      "stateMutability": "payable",
      "type": "function",
      "payable": true
    },
    {
      "inputs": [
        {
          "internalType": "uint256",
          "name": "amount",
          "type": "uint256"
        }
      ],
      "name": "payDeposit",
      "outputs": [],
      "stateMutability": "payable",
      "type": "function",
      "payable": true
    },
    {
      "inputs": [
        {
          "internalType": "address payable",
          "name": "_landlordAddress",
          "type": "address"
        }
      ],
      "name": "getLandlordBalance",
      "outputs": [
        {
          "internalType": "uint256",
          "name": "",
          "type": "uint256"
        }
      ],
      "stateMutability": "view",
      "type": "function",
      "constant": true
    },
    {
      "inputs": [
        {
          "internalType": "address payable",
          "name": "_tenantAddress",
          "type": "address"
        }
      ],
      "name": "getTenantBalance",
      "outputs": [
        {
          "internalType": "uint256",
          "name": "",
          "type": "uint256"
        }
      ],
      "stateMutability": "view",
      "type": "function",
      "constant": true
    }
  ],
  "bytecode": "0x60806040527312f38f0d6069af8cee15b3eb046fb3fa76413325600d60006101000a81548173ffffffffffffffffffffffffffffffffffffffff021916908373ffffffffffffffffffffffffffffffffffffffff16021790555073e31934c4161f87585ddbb2433645e7823f13b3dc600e60006101000a81548173ffffffffffffffffffffffffffffffffffffffff021916908373ffffffffffffffffffffffffffffffffffffffff160217905550600d60009054906101000a900473ffffffffffffffffffffffffffffffffffffffff16600f60006101000a81548173ffffffffffffffffffffffffffffffffffffffff021916908373ffffffffffffffffffffffffffffffffffffffff160217905550600e60009054906101000a900473ffffffffffffffffffffffffffffffffffffffff16601060006101000a81548173ffffffffffffffffffffffffffffffffffffffff021916908373ffffffffffffffffffffffffffffffffffffffff1602179055503480156200018157600080fd5b506040518060400160405280600381526020017f52656e000000000000000000000000000000000000000000000000000000000081525060019080519060200190620001cf929190620001d6565b50620002eb565b828054620001e490620002b5565b90600052602060002090601f01602090048101928262000208576000855562000254565b82601f106200022357805160ff191683800117855562000254565b8280016001018555821562000254579182015b828111156200025357825182559160200191906001019062000236565b5b50905062000263919062000267565b5090565b5b808211156200028257600081600090555060010162000268565b5090565b7f4e487b7100000000000000000000000000000000000000000000000000000000600052602260045260246000fd5b60006002820490506001821680620002ce57607f821691505b60208210811415620002e557620002e462000286565b5b50919050565b61186c80620002fb6000396000f3fe6080604052600436106101355760003560e01c806395e59332116100ab578063b69ef8a81161006f578063b69ef8a81461040d578063c399ec8814610438578063d29709fb14610463578063df77baf61461047f578063e35fd0c7146104aa578063f2c4769a146104c657610135565b806395e59332146103385780639abea44d14610361578063a386c4101461038c578063a3be3d82146103b7578063b1356488146103e257610135565b80632bab9189116100fd5780632bab9189146102145780632cd847d21461023f5780634b7eb0851461026a57806366369c63146102a757806378f305c6146102e4578063823cd0981461030f57610135565b806307a231571461013a578063145ef6e9146101655780631bd95155146101905780631c22bc52146101cd57806328cd3f18146101f8575b600080fd5b34801561014657600080fd5b5061014f6104f1565b60405161015c91906110a1565b60405180910390f35b34801561017157600080fd5b5061017a610583565b60405161018791906110a1565b60405180910390f35b34801561019c57600080fd5b506101b760048036038101906101b2919061120c565b610615565b6040516101c4919061126e565b60405180910390f35b3480156101d957600080fd5b506101e26106af565b6040516101ef91906110a1565b60405180910390f35b610212600480360381019061020d91906112b5565b610741565b005b34801561022057600080fd5b50610229610750565b60405161023691906110a1565b60405180910390f35b34801561024b57600080fd5b506102546107e2565b60405161026191906110a1565b60405180910390f35b34801561027657600080fd5b50610291600480360381019061028c9190611340565b610874565b60405161029e919061126e565b60405180910390f35b3480156102b357600080fd5b506102ce60048036038101906102c99190611340565b610895565b6040516102db919061126e565b60405180910390f35b3480156102f057600080fd5b506102f96108b6565b60405161030691906110a1565b60405180910390f35b34801561031b57600080fd5b506103366004803603810190610331919061136d565b610948565b005b34801561034457600080fd5b5061035f600480360381019061035a9190611444565b6109f1565b005b34801561036d57600080fd5b50610376610acb565b60405161038391906110a1565b60405180910390f35b34801561039857600080fd5b506103a1610b5d565b6040516103ae91906110a1565b60405180910390f35b3480156103c357600080fd5b506103cc610bef565b6040516103d991906110a1565b60405180910390f35b3480156103ee57600080fd5b506103f7610c81565b60405161040491906110a1565b60405180910390f35b34801561041957600080fd5b50610422610d13565b60405161042f919061126e565b60405180910390f35b34801561044457600080fd5b5061044d610d19565b60405161045a91906110a1565b60405180910390f35b61047d6004803603810190610478919061160a565b610dab565b005b34801561048b57600080fd5b50610494610df6565b6040516104a191906110a1565b60405180910390f35b6104c460048036038101906104bf919061160a565b610e88565b005b3480156104d257600080fd5b506104db610ed3565b6040516104e891906110a1565b60405180910390f35b60606007805461050090611679565b80601f016020809104026020016040519081016040528092919081815260200182805461052c90611679565b80156105795780601f1061054e57610100808354040283529160200191610579565b820191906000526020600020905b81548152906001019060200180831161055c57829003601f168201915b5050505050905090565b60606001805461059290611679565b80601f01602080910402602001604051908101604052809291908181526020018280546105be90611679565b801561060b5780601f106105e05761010080835404028352916020019161060b565b820191906000526020600020905b8154815290600101906020018083116105ee57829003601f168201915b5050505050905090565b6000808290506000809250600090505b81518110156106a8576000828281518110610643576106426116ab565b5b602001015160f81c60f81b60f81c60ff16905060308110158015610668575060398111155b156106945760308161067a9190611709565b600a85610687919061173d565b6106919190611797565b93505b5080806106a0906117ed565b915050610625565b5050919050565b6060600c80546106be90611679565b80601f01602080910402602001604051908101604052809291908181526020018280546106ea90611679565b80156107375780601f1061070c57610100808354040283529160200191610737565b820191906000526020600020905b81548152906001019060200180831161071a57829003601f168201915b5050505050905090565b80341461074d57600080fd5b50565b6060600a805461075f90611679565b80601f016020809104026020016040519081016040528092919081815260200182805461078b90611679565b80156107d85780601f106107ad576101008083540402835291602001916107d8565b820191906000526020600020905b8154815290600101906020018083116107bb57829003601f168201915b5050505050905090565b6060600880546107f190611679565b80601f016020809104026020016040519081016040528092919081815260200182805461081d90611679565b801561086a5780601f1061083f5761010080835404028352916020019161086a565b820191906000526020600020905b81548152906001019060200180831161084d57829003601f168201915b5050505050905090565b60008173ffffffffffffffffffffffffffffffffffffffff16319050919050565b60008173ffffffffffffffffffffffffffffffffffffffff16319050919050565b6060600580546108c590611679565b80601f01602080910402602001604051908101604052809291908181526020018280546108f190611679565b801561093e5780601f106109135761010080835404028352916020019161093e565b820191906000526020600020905b81548152906001019060200180831161092157829003601f168201915b5050505050905090565b836009908051906020019061095e929190610f65565b5082600a9080519060200190610975929190610f65565b5081600b908051906020019061098c929190610f65565b5080600c90805190602001906109a3929190610f65565b5060006109ae610d19565b905060006109bb82610615565b90506109e9600f60009054906101000a900473ffffffffffffffffffffffffffffffffffffffff1682610e88565b505050505050565b8860019080519060200190610a07929190610f65565b508760009080519060200190610a1e929190610f65565b508660029080519060200190610a35929190610f65565b508560039080519060200190610a4c929190610f65565b508460049080519060200190610a63929190610f65565b508360059080519060200190610a7a929190610f65565b508260069080519060200190610a91929190610f65565b508160079080519060200190610aa8929190610f65565b508060089080519060200190610abf929190610f65565b50505050505050505050565b606060038054610ada90611679565b80601f0160208091040260200160405190810160405280929190818152602001828054610b0690611679565b8015610b535780601f10610b2857610100808354040283529160200191610b53565b820191906000526020600020905b815481529060010190602001808311610b3657829003601f168201915b5050505050905090565b606060008054610b6c90611679565b80601f0160208091040260200160405190810160405280929190818152602001828054610b9890611679565b8015610be55780601f10610bba57610100808354040283529160200191610be5565b820191906000526020600020905b815481529060010190602001808311610bc857829003601f168201915b5050505050905090565b606060098054610bfe90611679565b80601f0160208091040260200160405190810160405280929190818152602001828054610c2a90611679565b8015610c775780601f10610c4c57610100808354040283529160200191610c77565b820191906000526020600020905b815481529060010190602001808311610c5a57829003601f168201915b5050505050905090565b606060068054610c9090611679565b80601f0160208091040260200160405190810160405280929190818152602001828054610cbc90611679565b8015610d095780601f10610cde57610100808354040283529160200191610d09565b820191906000526020600020905b815481529060010190602001808311610cec57829003601f168201915b5050505050905090565b60115481565b606060048054610d2890611679565b80601f0160208091040260200160405190810160405280929190818152602001828054610d5490611679565b8015610da15780601f10610d7657610100808354040283529160200191610da1565b820191906000526020600020905b815481529060010190602001808311610d8457829003601f168201915b5050505050905090565b8173ffffffffffffffffffffffffffffffffffffffff166108fc829081150290604051600060405180830381858888f19350505050158015610df1573d6000803e3d6000fd5b505050565b6060600b8054610e0590611679565b80601f0160208091040260200160405190810160405280929190818152602001828054610e3190611679565b8015610e7e5780601f10610e5357610100808354040283529160200191610e7e565b820191906000526020600020905b815481529060010190602001808311610e6157829003601f168201915b5050505050905090565b8173ffffffffffffffffffffffffffffffffffffffff166108fc829081150290604051600060405180830381858888f19350505050158015610ece573d6000803e3d6000fd5b505050565b606060028054610ee290611679565b80601f0160208091040260200160405190810160405280929190818152602001828054610f0e90611679565b8015610f5b5780601f10610f3057610100808354040283529160200191610f5b565b820191906000526020600020905b815481529060010190602001808311610f3e57829003601f168201915b5050505050905090565b828054610f7190611679565b90600052602060002090601f016020900481019282610f935760008555610fda565b82601f10610fac57805160ff1916838001178555610fda565b82800160010185558215610fda579182015b82811115610fd9578251825591602001919060010190610fbe565b5b509050610fe79190610feb565b5090565b5b80821115611004576000816000905550600101610fec565b5090565b600081519050919050565b600082825260208201905092915050565b60005b83811015611042578082015181840152602081019050611027565b83811115611051576000848401525b50505050565b6000601f19601f8301169050919050565b600061107382611008565b61107d8185611013565b935061108d818560208601611024565b61109681611057565b840191505092915050565b600060208201905081810360008301526110bb8184611068565b905092915050565b6000604051905090565b600080fd5b600080fd5b600080fd5b600080fd5b7f4e487b7100000000000000000000000000000000000000000000000000000000600052604160045260246000fd5b61111982611057565b810181811067ffffffffffffffff82111715611138576111376110e1565b5b80604052505050565b600061114b6110c3565b90506111578282611110565b919050565b600067ffffffffffffffff821115611177576111766110e1565b5b61118082611057565b9050602081019050919050565b82818337600083830152505050565b60006111af6111aa8461115c565b611141565b9050828152602081018484840111156111cb576111ca6110dc565b5b6111d684828561118d565b509392505050565b600082601f8301126111f3576111f26110d7565b5b813561120384826020860161119c565b91505092915050565b600060208284031215611222576112216110cd565b5b600082013567ffffffffffffffff8111156112405761123f6110d2565b5b61124c848285016111de565b91505092915050565b6000819050919050565b61126881611255565b82525050565b6000602082019050611283600083018461125f565b92915050565b61129281611255565b811461129d57600080fd5b50565b6000813590506112af81611289565b92915050565b6000602082840312156112cb576112ca6110cd565b5b60006112d9848285016112a0565b91505092915050565b600073ffffffffffffffffffffffffffffffffffffffff82169050919050565b600061130d826112e2565b9050919050565b61131d81611302565b811461132857600080fd5b50565b60008135905061133a81611314565b92915050565b600060208284031215611356576113556110cd565b5b60006113648482850161132b565b91505092915050565b60008060008060808587031215611387576113866110cd565b5b600085013567ffffffffffffffff8111156113a5576113a46110d2565b5b6113b1878288016111de565b945050602085013567ffffffffffffffff8111156113d2576113d16110d2565b5b6113de878288016111de565b935050604085013567ffffffffffffffff8111156113ff576113fe6110d2565b5b61140b878288016111de565b925050606085013567ffffffffffffffff81111561142c5761142b6110d2565b5b611438878288016111de565b91505092959194509250565b60008060008060008060008060006101208a8c031215611467576114666110cd565b5b60008a013567ffffffffffffffff811115611485576114846110d2565b5b6114918c828d016111de565b99505060208a013567ffffffffffffffff8111156114b2576114b16110d2565b5b6114be8c828d016111de565b98505060408a013567ffffffffffffffff8111156114df576114de6110d2565b5b6114eb8c828d016111de565b97505060608a013567ffffffffffffffff81111561150c5761150b6110d2565b5b6115188c828d016111de565b96505060808a013567ffffffffffffffff811115611539576115386110d2565b5b6115458c828d016111de565b95505060a08a013567ffffffffffffffff811115611566576115656110d2565b5b6115728c828d016111de565b94505060c08a013567ffffffffffffffff811115611593576115926110d2565b5b61159f8c828d016111de565b93505060e08a013567ffffffffffffffff8111156115c0576115bf6110d2565b5b6115cc8c828d016111de565b9250506101008a013567ffffffffffffffff8111156115ee576115ed6110d2565b5b6115fa8c828d016111de565b9150509295985092959850929598565b60008060408385031215611621576116206110cd565b5b600061162f8582860161132b565b9250506020611640858286016112a0565b9150509250929050565b7f4e487b7100000000000000000000000000000000000000000000000000000000600052602260045260246000fd5b6000600282049050600182168061169157607f821691505b602082108114156116a5576116a461164a565b5b50919050565b7f4e487b7100000000000000000000000000000000000000000000000000000000600052603260045260246000fd5b7f4e487b7100000000000000000000000000000000000000000000000000000000600052601160045260246000fd5b600061171482611255565b915061171f83611255565b925082821015611732576117316116da565b5b828203905092915050565b600061174882611255565b915061175383611255565b9250817fffffffffffffffffffffffffffffffffffffffffffffffffffffffffffffffff048311821515161561178c5761178b6116da565b5b828202905092915050565b60006117a282611255565b91506117ad83611255565b9250827fffffffffffffffffffffffffffffffffffffffffffffffffffffffffffffffff038211156117e2576117e16116da565b5b828201905092915050565b60006117f882611255565b91507fffffffffffffffffffffffffffffffffffffffffffffffffffffffffffffffff82141561182b5761182a6116da565b5b60018201905091905056fea2646970667358221220e5fe50bcb7348e64f4384c49fcc58e3452d88697a906d5f6896e37916a53dc7364736f6c634300080a0033",
  "immutableReferences": {},
  "source": "// SPDX-License-Identifier: MIT\npragma solidity ^0.8.10;\n\n// MyContract\ncontract MyContract {\n\n    // value\n    // string value;\n    string mobileNumber;\n    // string ownerName;\n    string ownerName;\n    string propertyAddress;\n    string weeklyRent;\n    string deposit;\n    string startDate;\n    string endDate;\n    string suppliedServices;\n    string petsAllowed;\n\n    string tenantName;\n    string tenantNumber;\n    string tenantStartDate;\n    string tenantEndDate;\n\n    // string landlordAddress;\n    // string tenantAddress;\n    address landlordAddress = 0x12f38F0d6069AF8cEE15B3EB046FB3Fa76413325;\n    address tenantAddress = 0xe31934c4161f87585DdBb2433645e7823F13b3dC;\n    address payable landlordAddressPayable = payable(landlordAddress);\n    address payable tenantAddressPayable = payable(tenantAddress);\n\n    \n\n\n    // \n    // public\n    // valuemyValue\n    constructor() {\n        // value = \"myValue\";\n        ownerName = \"Ren\";\n        \n    }\n\n    // public\n    // view\n    // function get() public view returns(string memory) {\n    //     return value;\n    // }\n    // Code example:\n    //  function st2num(string memory numString) public pure returns(uint) {\n    //     uint  val=0;\n    //     bytes   memory stringBytes = bytes(numString);\n    //     for (uint  i =  0; i<stringBytes.length; i++) {\n    //         uint exp = stringBytes.length - i;\n    //         bytes1 ival = stringBytes[i];\n    //         uint8 uval = uint8(ival);\n    //        uint jval = uval - uint(0x30);\n   \n    //        val +=  (uint(jval) * (10**(exp-1))); \n    //     }\n    //   return val;\n    // }\n\n    function stringToUint(string memory s) public pure returns (uint result) {\n        bytes memory b = bytes(s);\n        uint i;\n        result = 0;\n        for (i = 0; i < b.length; i++) {\n            uint c = uint(uint8(b[i]));\n            // uint c = uint(b[i]);\n            if (c >= 48 && c <= 57) {\n                result = result * 10 + (c - 48);\n            }\n        }\n    }\n    // public\n    function set(string memory _ownerName, string memory _mobileNumber, string memory _propertyAddress, string memory _weeklyRent, string memory _deposit, string memory _startDate,\n                string memory _endDate, string memory _suppliedServices, string memory _petsAllowed) public {\n        ownerName = _ownerName;\n        mobileNumber = _mobileNumber;\n        propertyAddress = _propertyAddress;\n        weeklyRent = _weeklyRent;\n        deposit = _deposit;\n        startDate = _startDate;\n        endDate = _endDate;\n        suppliedServices = _suppliedServices;\n        petsAllowed = _petsAllowed;\n    }\n\n    function setTenant(string memory newName, string memory newNumber, string memory newStart, string memory newEnd) public {\n        tenantName = newName;\n        tenantNumber = newNumber;\n        tenantStartDate = newStart;\n        tenantEndDate = newEnd;\n        //call send deposit here \n        string memory depositSet = getDeposit();\n        uint depositUint = stringToUint(depositSet);\n        sendDeposit(landlordAddressPayable, depositUint);\n    }\n\n\n    function getMobileNumber() public view returns(string memory) {\n        return mobileNumber;\n    }\n\n\n    function getOwnerName() public view returns (string memory) {\n        return ownerName;\t\n    }\n\n\n    function getPropertyAddress() public view returns (string memory) {\n        return propertyAddress;\t\n    }\n    \n    function getWeeklyRent() public view returns(string memory) {\n        return weeklyRent;\n    }\n    function getDeposit() public view returns(string memory) {\n        return deposit;\n    }\n    function getStartDate() public view returns(string memory) {\n        return startDate;\n    }\n        function getEndDate() public view returns(string memory) {\n        return endDate;\n    }\n\n    function getSuppliedServices() public view returns (string memory) {\n        return suppliedServices;\n    }\n\n    function getPetsAllowed() public view returns (string memory) {\n        return petsAllowed;\n    }\n\n    function getTenantName() public view returns (string memory) {\n        return tenantName;\n    }\n\n    function getTenantNumber() public view returns (string memory) {\n        return tenantNumber;\n    }\n\n    function getTenantStartDate() public view returns (string memory) {\n        return tenantStartDate;\n    }\n\n        function getTenantEndDate() public view returns (string memory) {\n        return tenantEndDate;\n    }\n\n        uint256 public balance;\n\n\n    function sendDeposit(address payable _receiver, uint amount) payable public {\n        // msg.sender.transfer(msg.value);\n\n         _receiver.transfer(amount);\n    }\n\n    function returnDeposit(address payable _sender, uint amount) payable public {\n        _sender.transfer(amount);\n    }\n\n\n\n    function payDeposit(uint256 amount) payable public {\n        require(msg.value == amount);\n        // nothing else to do!\n    }\n\n    function getLandlordBalance(address payable _landlordAddress) public view returns (uint) {\n        return _landlordAddress.balance;\n    }\n\n        function getTenantBalance(address payable _tenantAddress) public view returns (uint) {\n        return _tenantAddress.balance;\n    }\n\n\n\n\n\n}",
  "sourcePath": "/Users/yuxuanli/mydapp/contracts/MyContract.sol",
  "compiler": {
    "name": "solc",
    "version": "0.8.10+commit.fc410830.Emscripten.clang"
  },
  "schemaVersion": "3.4.3",
  "updatedAt": "2022-04-25T07:59:08.871Z",
  "networkType": "ethereum",
  "devdoc": {
    "kind": "dev",
    "methods": {},
    "version": 1
  },
  "userdoc": {
    "kind": "user",
    "methods": {},
    "version": 1
  }
}